{
  "address": "0x3c02b0E88B9a38eE494CF16AEb0E022A8072CeF3",
  "abi": [
    {
      "inputs": [
        {
          "internalType": "address",
          "name": "_contractOwner",
          "type": "address"
        },
        {
          "internalType": "string",
          "name": "_name",
          "type": "string"
        },
        {
          "internalType": "string",
          "name": "_symbol",
          "type": "string"
        },
        {
          "internalType": "uint256",
          "name": "_initialFeatures",
          "type": "uint256"
        }
      ],
      "stateMutability": "nonpayable",
      "type": "constructor"
    },
    {
      "anonymous": false,
      "inputs": [
        {
          "indexed": true,
          "internalType": "address",
          "name": "owner",
          "type": "address"
        },
        {
          "indexed": true,
          "internalType": "address",
          "name": "approved",
          "type": "address"
        },
        {
          "indexed": true,
          "internalType": "uint256",
          "name": "tokenId",
          "type": "uint256"
        }
      ],
      "name": "Approval",
      "type": "event"
    },
    {
      "anonymous": false,
      "inputs": [
        {
          "indexed": true,
          "internalType": "address",
          "name": "_owner",
          "type": "address"
        },
        {
          "indexed": true,
          "internalType": "address",
          "name": "_operator",
          "type": "address"
        },
        {
          "indexed": false,
          "internalType": "bool",
          "name": "_approved",
          "type": "bool"
        }
      ],
      "name": "ApprovalForAll",
      "type": "event"
    },
    {
      "anonymous": false,
      "inputs": [
        {
          "indexed": true,
          "internalType": "address",
          "name": "by",
          "type": "address"
        },
        {
          "indexed": false,
          "internalType": "string",
          "name": "oldVal",
          "type": "string"
        },
        {
          "indexed": false,
          "internalType": "string",
          "name": "newVal",
          "type": "string"
        }
      ],
      "name": "BaseURIUpdated",
      "type": "event"
    },
    {
      "anonymous": false,
      "inputs": [
        {
          "indexed": false,
          "internalType": "uint8",
          "name": "version",
          "type": "uint8"
        }
      ],
      "name": "Initialized",
      "type": "event"
    },
    {
      "anonymous": false,
      "inputs": [
        {
          "indexed": true,
          "internalType": "address",
          "name": "operator",
          "type": "address"
        },
        {
          "indexed": false,
          "internalType": "uint256",
          "name": "requested",
          "type": "uint256"
        },
        {
          "indexed": false,
          "internalType": "uint256",
          "name": "assigned",
          "type": "uint256"
        }
      ],
      "name": "RoleUpdated",
      "type": "event"
    },
    {
      "anonymous": false,
      "inputs": [
        {
          "indexed": true,
          "internalType": "address",
          "name": "by",
          "type": "address"
        },
        {
          "indexed": true,
          "internalType": "uint256",
          "name": "tokenId",
          "type": "uint256"
        },
        {
          "indexed": false,
          "internalType": "string",
          "name": "oldVal",
          "type": "string"
        },
        {
          "indexed": false,
          "internalType": "string",
          "name": "newVal",
          "type": "string"
        }
      ],
      "name": "TokenURIUpdated",
      "type": "event"
    },
    {
      "anonymous": false,
      "inputs": [
        {
          "indexed": true,
          "internalType": "address",
          "name": "from",
          "type": "address"
        },
        {
          "indexed": true,
          "internalType": "address",
          "name": "to",
          "type": "address"
        },
        {
          "indexed": true,
          "internalType": "uint256",
          "name": "tokenId",
          "type": "uint256"
        }
      ],
      "name": "Transfer",
      "type": "event"
    },
    {
      "inputs": [],
      "name": "BATCH_SIZE_MULTIPLIER",
      "outputs": [
        {
          "internalType": "uint8",
          "name": "",
          "type": "uint8"
        }
      ],
      "stateMutability": "view",
      "type": "function"
    },
    {
      "inputs": [],
      "name": "DOMAIN_SEPARATOR",
      "outputs": [
        {
          "internalType": "bytes32",
          "name": "",
          "type": "bytes32"
        }
      ],
      "stateMutability": "view",
      "type": "function"
    },
    {
      "inputs": [],
      "name": "DOMAIN_TYPEHASH",
      "outputs": [
        {
          "internalType": "bytes32",
          "name": "",
          "type": "bytes32"
        }
      ],
      "stateMutability": "view",
      "type": "function"
    },
    {
      "inputs": [],
      "name": "FEATURE_BURNS_ON_BEHALF",
      "outputs": [
        {
          "internalType": "uint32",
          "name": "",
          "type": "uint32"
        }
      ],
      "stateMutability": "view",
      "type": "function"
    },
    {
      "inputs": [],
      "name": "FEATURE_OPERATOR_PERMITS",
      "outputs": [
        {
          "internalType": "uint32",
          "name": "",
          "type": "uint32"
        }
      ],
      "stateMutability": "view",
      "type": "function"
    },
    {
      "inputs": [],
      "name": "FEATURE_OWN_BURNS",
      "outputs": [
        {
          "internalType": "uint32",
          "name": "",
          "type": "uint32"
        }
      ],
      "stateMutability": "view",
      "type": "function"
    },
    {
      "inputs": [],
      "name": "FEATURE_PERMITS",
      "outputs": [
        {
          "internalType": "uint32",
          "name": "",
          "type": "uint32"
        }
      ],
      "stateMutability": "view",
      "type": "function"
    },
    {
      "inputs": [],
      "name": "FEATURE_TRANSFERS",
      "outputs": [
        {
          "internalType": "uint32",
          "name": "",
          "type": "uint32"
        }
      ],
      "stateMutability": "view",
      "type": "function"
    },
    {
      "inputs": [],
      "name": "FEATURE_TRANSFERS_ON_BEHALF",
      "outputs": [
        {
          "internalType": "uint32",
          "name": "",
          "type": "uint32"
        }
      ],
      "stateMutability": "view",
      "type": "function"
    },
    {
      "inputs": [],
      "name": "PERMIT_FOR_ALL_TYPEHASH",
      "outputs": [
        {
          "internalType": "bytes32",
          "name": "",
          "type": "bytes32"
        }
      ],
      "stateMutability": "view",
      "type": "function"
    },
    {
      "inputs": [],
      "name": "PERMIT_TYPEHASH",
      "outputs": [
        {
          "internalType": "bytes32",
          "name": "",
          "type": "bytes32"
        }
      ],
      "stateMutability": "view",
      "type": "function"
    },
    {
      "inputs": [],
      "name": "ROLE_ACCESS_MANAGER",
      "outputs": [
        {
          "internalType": "uint256",
          "name": "",
          "type": "uint256"
        }
      ],
      "stateMutability": "view",
      "type": "function"
    },
    {
      "inputs": [],
      "name": "ROLE_TOKEN_CREATOR",
      "outputs": [
        {
          "internalType": "uint32",
          "name": "",
          "type": "uint32"
        }
      ],
      "stateMutability": "view",
      "type": "function"
    },
    {
      "inputs": [],
      "name": "ROLE_TOKEN_DESTROYER",
      "outputs": [
        {
          "internalType": "uint32",
          "name": "",
          "type": "uint32"
        }
      ],
      "stateMutability": "view",
      "type": "function"
    },
    {
      "inputs": [],
      "name": "ROLE_UPGRADE_MANAGER",
      "outputs": [
        {
          "internalType": "uint256",
          "name": "",
          "type": "uint256"
        }
      ],
      "stateMutability": "view",
      "type": "function"
    },
    {
      "inputs": [],
      "name": "ROLE_URI_MANAGER",
      "outputs": [
        {
          "internalType": "uint32",
          "name": "",
          "type": "uint32"
        }
      ],
      "stateMutability": "view",
      "type": "function"
    },
    {
      "inputs": [
        {
          "internalType": "address",
          "name": "_approved",
          "type": "address"
        },
        {
          "internalType": "uint256",
          "name": "_tokenId",
          "type": "uint256"
        }
      ],
      "name": "approve",
      "outputs": [],
      "stateMutability": "nonpayable",
      "type": "function"
    },
    {
      "inputs": [
        {
          "internalType": "address",
          "name": "_owner",
          "type": "address"
        }
      ],
      "name": "balanceOf",
      "outputs": [
        {
          "internalType": "uint256",
          "name": "",
          "type": "uint256"
        }
      ],
      "stateMutability": "view",
      "type": "function"
    },
    {
      "inputs": [],
      "name": "baseURI",
      "outputs": [
        {
          "internalType": "string",
          "name": "",
          "type": "string"
        }
      ],
      "stateMutability": "view",
      "type": "function"
    },
    {
      "inputs": [
        {
          "internalType": "uint256",
          "name": "_tokenId",
          "type": "uint256"
        }
      ],
      "name": "burn",
      "outputs": [],
      "stateMutability": "nonpayable",
      "type": "function"
    },
    {
      "inputs": [],
      "name": "decimals",
      "outputs": [
        {
          "internalType": "uint8",
          "name": "",
          "type": "uint8"
        }
      ],
      "stateMutability": "view",
      "type": "function"
    },
    {
      "inputs": [
        {
          "internalType": "uint256",
          "name": "_tokenId",
          "type": "uint256"
        }
      ],
      "name": "exists",
      "outputs": [
        {
          "internalType": "bool",
          "name": "",
          "type": "bool"
        }
      ],
      "stateMutability": "view",
      "type": "function"
    },
    {
      "inputs": [],
      "name": "features",
      "outputs": [
        {
          "internalType": "uint256",
          "name": "",
          "type": "uint256"
        }
      ],
      "stateMutability": "view",
      "type": "function"
    },
    {
      "inputs": [
        {
          "internalType": "uint256",
          "name": "_tokenId",
          "type": "uint256"
        }
      ],
      "name": "getApproved",
      "outputs": [
        {
          "internalType": "address",
          "name": "",
          "type": "address"
        }
      ],
      "stateMutability": "view",
      "type": "function"
    },
    {
      "inputs": [],
      "name": "getInitializedVersion",
      "outputs": [
        {
          "internalType": "uint64",
          "name": "",
          "type": "uint64"
        }
      ],
      "stateMutability": "view",
      "type": "function"
    },
    {
      "inputs": [
        {
          "internalType": "address",
          "name": "operator",
          "type": "address"
        }
      ],
      "name": "getRole",
      "outputs": [
        {
          "internalType": "uint256",
          "name": "",
          "type": "uint256"
        }
      ],
      "stateMutability": "view",
      "type": "function"
    },
    {
      "inputs": [
        {
          "internalType": "address",
          "name": "_owner",
          "type": "address"
        },
        {
          "internalType": "address",
          "name": "_operator",
          "type": "address"
        }
      ],
      "name": "isApprovedForAll",
      "outputs": [
        {
          "internalType": "bool",
          "name": "",
          "type": "bool"
        }
      ],
      "stateMutability": "view",
      "type": "function"
    },
    {
      "inputs": [
        {
          "internalType": "uint256",
          "name": "required",
          "type": "uint256"
        }
      ],
      "name": "isFeatureEnabled",
      "outputs": [
        {
          "internalType": "bool",
          "name": "",
          "type": "bool"
        }
      ],
      "stateMutability": "view",
      "type": "function"
    },
    {
      "inputs": [
        {
          "internalType": "address",
          "name": "operator",
          "type": "address"
        },
        {
          "internalType": "uint256",
          "name": "required",
          "type": "uint256"
        }
      ],
      "name": "isOperatorInRole",
      "outputs": [
        {
          "internalType": "bool",
          "name": "",
          "type": "bool"
        }
      ],
      "stateMutability": "view",
      "type": "function"
    },
    {
      "inputs": [
        {
          "internalType": "uint256",
          "name": "required",
          "type": "uint256"
        }
      ],
      "name": "isSenderInRole",
      "outputs": [
        {
          "internalType": "bool",
          "name": "",
          "type": "bool"
        }
      ],
      "stateMutability": "view",
      "type": "function"
    },
    {
      "inputs": [
        {
          "internalType": "uint256",
          "name": "_tokenId",
          "type": "uint256"
        }
      ],
      "name": "isTransferable",
      "outputs": [
        {
          "internalType": "bool",
          "name": "",
          "type": "bool"
        }
      ],
      "stateMutability": "view",
      "type": "function"
    },
    {
      "inputs": [
        {
          "internalType": "address",
          "name": "_to",
          "type": "address"
        },
        {
          "internalType": "uint256",
          "name": "_tokenId",
          "type": "uint256"
        }
      ],
      "name": "mint",
      "outputs": [],
      "stateMutability": "nonpayable",
      "type": "function"
    },
    {
      "inputs": [
        {
          "internalType": "address",
          "name": "_to",
          "type": "address"
        },
        {
          "internalType": "uint256",
          "name": "_tokenId",
          "type": "uint256"
        },
        {
          "internalType": "uint256",
          "name": "n",
          "type": "uint256"
        }
      ],
      "name": "mintBatch",
      "outputs": [],
      "stateMutability": "nonpayable",
      "type": "function"
    },
    {
      "inputs": [
        {
          "internalType": "bytes[]",
          "name": "data",
          "type": "bytes[]"
        }
      ],
      "name": "multicall",
      "outputs": [
        {
          "internalType": "bytes[]",
          "name": "results",
          "type": "bytes[]"
        }
      ],
      "stateMutability": "nonpayable",
      "type": "function"
    },
    {
      "inputs": [],
      "name": "name",
      "outputs": [
        {
          "internalType": "string",
          "name": "",
          "type": "string"
        }
      ],
      "stateMutability": "view",
      "type": "function"
    },
    {
      "inputs": [
        {
          "internalType": "uint256",
          "name": "_tokenId",
          "type": "uint256"
        }
      ],
      "name": "ownerOf",
      "outputs": [
        {
          "internalType": "address",
          "name": "",
          "type": "address"
        }
      ],
      "stateMutability": "view",
      "type": "function"
    },
    {
      "inputs": [
        {
          "internalType": "address",
          "name": "_owner",
          "type": "address"
        },
        {
          "internalType": "address",
          "name": "_operator",
          "type": "address"
        },
        {
          "internalType": "uint256",
          "name": "_tokenId",
          "type": "uint256"
        },
        {
          "internalType": "uint256",
          "name": "_exp",
          "type": "uint256"
        },
        {
          "internalType": "uint8",
          "name": "v",
          "type": "uint8"
        },
        {
          "internalType": "bytes32",
          "name": "r",
          "type": "bytes32"
        },
        {
          "internalType": "bytes32",
          "name": "s",
          "type": "bytes32"
        }
      ],
      "name": "permit",
      "outputs": [],
      "stateMutability": "nonpayable",
      "type": "function"
    },
    {
      "inputs": [
        {
          "internalType": "address",
          "name": "_owner",
          "type": "address"
        },
        {
          "internalType": "address",
          "name": "_operator",
          "type": "address"
        },
        {
          "internalType": "bool",
          "name": "_approved",
          "type": "bool"
        },
        {
          "internalType": "uint256",
          "name": "_exp",
          "type": "uint256"
        },
        {
          "internalType": "uint8",
          "name": "v",
          "type": "uint8"
        },
        {
          "internalType": "bytes32",
          "name": "r",
          "type": "bytes32"
        },
        {
          "internalType": "bytes32",
          "name": "s",
          "type": "bytes32"
        }
      ],
      "name": "permitForAll",
      "outputs": [],
      "stateMutability": "nonpayable",
      "type": "function"
    },
    {
      "inputs": [
        {
          "internalType": "address",
          "name": "",
          "type": "address"
        }
      ],
      "name": "permitNonces",
      "outputs": [
        {
          "internalType": "uint256",
          "name": "",
          "type": "uint256"
        }
      ],
      "stateMutability": "view",
      "type": "function"
    },
    {
      "inputs": [
        {
          "internalType": "address",
          "name": "_contractOwner",
          "type": "address"
        },
        {
          "internalType": "string",
          "name": "_name",
          "type": "string"
        },
        {
          "internalType": "string",
          "name": "_symbol",
          "type": "string"
        },
        {
          "internalType": "uint256",
          "name": "_initialFeatures",
          "type": "uint256"
        }
      ],
      "name": "postConstruct",
      "outputs": [],
      "stateMutability": "nonpayable",
      "type": "function"
    },
    {
      "inputs": [
        {
          "internalType": "address",
          "name": "_to",
          "type": "address"
        },
        {
          "internalType": "uint256",
          "name": "_tokenId",
          "type": "uint256"
        },
        {
          "internalType": "bytes",
          "name": "_data",
          "type": "bytes"
        }
      ],
      "name": "safeMint",
      "outputs": [],
      "stateMutability": "nonpayable",
      "type": "function"
    },
    {
      "inputs": [
        {
          "internalType": "address",
          "name": "_to",
          "type": "address"
        },
        {
          "internalType": "uint256",
          "name": "_tokenId",
          "type": "uint256"
        }
      ],
      "name": "safeMint",
      "outputs": [],
      "stateMutability": "nonpayable",
      "type": "function"
    },
    {
      "inputs": [
        {
          "internalType": "address",
          "name": "_to",
          "type": "address"
        },
        {
          "internalType": "uint256",
          "name": "_tokenId",
          "type": "uint256"
        },
        {
          "internalType": "uint256",
          "name": "n",
          "type": "uint256"
        }
      ],
      "name": "safeMintBatch",
      "outputs": [],
      "stateMutability": "nonpayable",
      "type": "function"
    },
    {
      "inputs": [
        {
          "internalType": "address",
          "name": "_to",
          "type": "address"
        },
        {
          "internalType": "uint256",
          "name": "_tokenId",
          "type": "uint256"
        },
        {
          "internalType": "uint256",
          "name": "n",
          "type": "uint256"
        },
        {
          "internalType": "bytes",
          "name": "_data",
          "type": "bytes"
        }
      ],
      "name": "safeMintBatch",
      "outputs": [],
      "stateMutability": "nonpayable",
      "type": "function"
    },
    {
      "inputs": [
        {
          "internalType": "address",
          "name": "_from",
          "type": "address"
        },
        {
          "internalType": "address",
          "name": "_to",
          "type": "address"
        },
        {
          "internalType": "uint256",
          "name": "_tokenId",
          "type": "uint256"
        }
      ],
      "name": "safeTransferFrom",
      "outputs": [],
      "stateMutability": "nonpayable",
      "type": "function"
    },
    {
      "inputs": [
        {
          "internalType": "address",
          "name": "_from",
          "type": "address"
        },
        {
          "internalType": "address",
          "name": "_to",
          "type": "address"
        },
        {
          "internalType": "uint256",
          "name": "_tokenId",
          "type": "uint256"
        },
        {
          "internalType": "bytes",
          "name": "_data",
          "type": "bytes"
        }
      ],
      "name": "safeTransferFrom",
      "outputs": [],
      "stateMutability": "nonpayable",
      "type": "function"
    },
    {
      "inputs": [
        {
          "internalType": "address",
          "name": "_operator",
          "type": "address"
        },
        {
          "internalType": "bool",
          "name": "_approved",
          "type": "bool"
        }
      ],
      "name": "setApprovalForAll",
      "outputs": [],
      "stateMutability": "nonpayable",
      "type": "function"
    },
    {
      "inputs": [
        {
          "internalType": "string",
          "name": "_baseURI",
          "type": "string"
        }
      ],
      "name": "setBaseURI",
      "outputs": [],
      "stateMutability": "nonpayable",
      "type": "function"
    },
    {
      "inputs": [
        {
          "internalType": "uint256",
          "name": "_tokenId",
          "type": "uint256"
        },
        {
          "internalType": "string",
          "name": "_tokenURI",
          "type": "string"
        }
      ],
      "name": "setTokenURI",
      "outputs": [],
      "stateMutability": "nonpayable",
      "type": "function"
    },
    {
      "inputs": [
        {
          "internalType": "bytes4",
          "name": "interfaceId",
          "type": "bytes4"
        }
      ],
      "name": "supportsInterface",
      "outputs": [
        {
          "internalType": "bool",
          "name": "",
          "type": "bool"
        }
      ],
      "stateMutability": "view",
      "type": "function"
    },
    {
      "inputs": [],
      "name": "symbol",
      "outputs": [
        {
          "internalType": "string",
          "name": "",
          "type": "string"
        }
      ],
      "stateMutability": "view",
      "type": "function"
    },
    {
      "inputs": [
        {
          "internalType": "uint256",
          "name": "_index",
          "type": "uint256"
        }
      ],
      "name": "tokenByIndex",
      "outputs": [
        {
          "internalType": "uint256",
          "name": "",
          "type": "uint256"
        }
      ],
      "stateMutability": "view",
      "type": "function"
    },
    {
      "inputs": [
        {
          "internalType": "address",
          "name": "_owner",
          "type": "address"
        },
        {
          "internalType": "uint256",
          "name": "_index",
          "type": "uint256"
        }
      ],
      "name": "tokenOfOwnerByIndex",
      "outputs": [
        {
          "internalType": "uint256",
          "name": "",
          "type": "uint256"
        }
      ],
      "stateMutability": "view",
      "type": "function"
    },
    {
      "inputs": [
        {
          "internalType": "uint256",
          "name": "_tokenId",
          "type": "uint256"
        }
      ],
      "name": "tokenURI",
      "outputs": [
        {
          "internalType": "string",
          "name": "",
          "type": "string"
        }
      ],
      "stateMutability": "view",
      "type": "function"
    },
    {
      "inputs": [],
      "name": "totalSupply",
      "outputs": [
        {
          "internalType": "uint256",
          "name": "",
          "type": "uint256"
        }
      ],
      "stateMutability": "view",
      "type": "function"
    },
    {
      "inputs": [
        {
          "internalType": "address",
          "name": "_from",
          "type": "address"
        },
        {
          "internalType": "address",
          "name": "_to",
          "type": "address"
        },
        {
          "internalType": "uint256",
          "name": "_tokenId",
          "type": "uint256"
        }
      ],
      "name": "transferFrom",
      "outputs": [],
      "stateMutability": "nonpayable",
      "type": "function"
    },
    {
      "inputs": [
        {
          "internalType": "uint256",
          "name": "_mask",
          "type": "uint256"
        }
      ],
      "name": "updateFeatures",
      "outputs": [],
      "stateMutability": "nonpayable",
      "type": "function"
    },
    {
      "inputs": [
        {
          "internalType": "address",
          "name": "operator",
          "type": "address"
        },
        {
          "internalType": "uint256",
          "name": "role",
          "type": "uint256"
        }
      ],
      "name": "updateRole",
      "outputs": [],
      "stateMutability": "nonpayable",
      "type": "function"
    }
  ],
  "transactionHash": "0xc55eea0ae2b7ed8f1349929e0e36a6750c96d9cb9f7577c6321000733f52c36f",
  "args": [
    "0x0000000000000000000000000000000000000000",
    "implementation contract, not for use",
    "N/A",
    0
  ],
  "numDeployments": 1,
  "solcInputHash": "cd2c6b463d056161b2416efc6015212e",
  "bytecode": "0x60a06040819052600060808190526200001b91603b916200045f565b503480156200002957600080fd5b5060405162003f0b38038062003f0b8339810160408190526200004c91620005b8565b600054610100900460ff16158080156200006d5750600054600160ff909116105b806200009d57506200008a306200016860201b620021e21760201c565b1580156200009d575060005460ff166001145b620000f55760405162461bcd60e51b815260206004820152602e602482015260008051602062003ecb83398151915260448201526d191e481a5b9a5d1a585b1a5e995960921b60648201526084015b60405180910390fd5b6000805460ff19166001179055801562000119576000805461ff0019166101001790555b80156200014f576000805461ff00191690556040516001815260008051602062003eeb8339815191529060200160405180910390a15b506200015e8484848462000177565b5050505062000699565b6001600160a01b03163b151590565b600054610100900460ff1615808015620001985750600054600160ff909116105b80620001c85750620001b5306200016860201b620021e21760201c565b158015620001c8575060005460ff166001145b6200021c5760405162461bcd60e51b815260206004820152602e602482015260008051602062003ecb83398151915260448201526d191e481a5b9a5d1a585b1a5e995960921b6064820152608401620000ec565b6000805460ff19166001179055801562000240576000805461ff0019166101001790555b6000845111620002935760405162461bcd60e51b815260206004820152601560248201527f746f6b656e206e616d65206973206e6f742073657400000000000000000000006044820152606401620000ec565b6000835111620002e65760405162461bcd60e51b815260206004820152601760248201527f746f6b656e2073796d626f6c206973206e6f74207365740000000000000000006044820152606401620000ec565b8351620002fb9060339060208701906200045f565b508251620003119060349060208601906200045f565b506001600160a01b0385161515806200032957508115155b156200033b576200033b858362000378565b801562000371576000805461ff00191690556040516001815260008051602062003eeb8339815191529060200160405180910390a15b5050505050565b600054610100900460ff16620003e55760405162461bcd60e51b815260206004820152602b60248201527f496e697469616c697a61626c653a20636f6e7472616374206973206e6f74206960448201526a6e697469616c697a696e6760a81b6064820152608401620000ec565b620003f4826000198062000405565b6200040130828062000405565b5050565b6001600160a01b03831660008181526001602090815260409182902084905581518581529081018490527fe9be537308880e0f56b7d7cfd7abf85f14c4934486d138f848b92a0cbaf659b4910160405180910390a2505050565b8280546200046d9062000646565b90600052602060002090601f016020900481019282620004915760008555620004dc565b82601f10620004ac57805160ff1916838001178555620004dc565b82800160010185558215620004dc579182015b82811115620004dc578251825591602001919060010190620004bf565b50620004ea929150620004ee565b5090565b5b80821115620004ea5760008155600101620004ef565b600082601f83011262000516578081fd5b81516001600160401b038082111562000533576200053362000683565b604051601f8301601f19908116603f011681019082821181831017156200055e576200055e62000683565b816040528381526020925086838588010111156200057a578485fd5b8491505b838210156200059d57858201830151818301840152908201906200057e565b83821115620005ae57848385830101525b9695505050505050565b60008060008060808587031215620005ce578384fd5b84516001600160a01b0381168114620005e5578485fd5b60208601519094506001600160401b038082111562000602578485fd5b620006108883890162000505565b9450604087015191508082111562000626578384fd5b50620006358782880162000505565b606096909601519497939650505050565b600181811c908216806200065b57607f821691505b602082108114156200067d57634e487b7160e01b600052602260045260246000fd5b50919050565b634e487b7160e01b600052604160045260246000fd5b61382280620006a96000396000f3fe608060405234801561001057600080fd5b506004361061038e5760003560e01c80636c0360eb116101de578063ae60bda41161010f578063c688d693116100ad578063e62cac761161007c578063e62cac76146107dd578063e985e9c5146107e7578063f63c2f82146107fa578063fcc2c0781461080257600080fd5b8063c688d69314610791578063c87b56dd146107a4578063d505accf146107b7578063d5bb7f67146107ca57600080fd5b8063b2564569116100e9578063b25645691461074e578063b3c6501514610761578063b88d4fde14610776578063c0d6568d1461078957600080fd5b8063ae60bda414610725578063ae682e2e14610730578063af65e2a81461073b57600080fd5b80639032c7261161017c578063a144819411610156578063a1448194146106cc578063a22cb465146106df578063ac9650d8146106f2578063ae5b102e1461071257600080fd5b80639032c726146106a957806395d89b41146106bc57806398b622a2146106c457600080fd5b8063768bfc9a116101b8578063768bfc9a1461067b5780638832e6e3146106845780638d4e57e6146106975780638f6fba8c146106a157600080fd5b80636c0360eb1461064d57806370a0823114610655578063725f36261461066857600080fd5b80632f745c59116102c35780634427673311610261578063585956d611610230578063585956d6146105ed5780635a0ff57b1461061457806361587911146106275780636352211e1461063a57600080fd5b8063442767331461057c5780634f558e79146105a55780634f6ccce7146105c757806355f804b3146105da57600080fd5b80633644e5151161029d5780633644e5151461053b57806340c10f191461054357806342842e0e1461055657806342966c681461056957600080fd5b80632f745c59146104e757806330adf81f146104fa578063313ce5671461052157600080fd5b806318160ddd1161033057806320606b701161030a57806320606b701461048557806323b872dd146104ac5780632b521416146104bf5780632e81aaea146104d457600080fd5b806318160ddd1461044b578063191d0ffc1461045d5780631a0b04ea1461047d57600080fd5b8063095ea7b31161036c578063095ea7b3146103fb5780630dc5b4241461041057806314b7b4e11461042e578063162094c41461043857600080fd5b806301ffc9a71461039357806306fdde03146103bb578063081812fc146103d0575b600080fd5b6103a66103a13660046132a6565b610815565b60405190151581526020015b60405180910390f35b6103c36108b8565b6040516103b2919061347f565b6103e36103de366004613319565b610946565b6040516001600160a01b0390911681526020016103b2565b61040e61040936600461313f565b610996565b005b61041961020081565b60405163ffffffff90911681526020016103b2565b6104196210000081565b61040e610446366004613331565b6109a5565b6037545b6040519081526020016103b2565b61044f61046b366004612ef3565b603a6020526000908152604090205481565b610419600881565b61044f7f8cad95687ba82c2ce50e74f7b754645e5117c3a5bec8151c0726d5857980a86681565b61040e6104ba366004612faf565b610a3c565b3060009081526001602052604090205461044f565b61040e6104e23660046131bd565b610cfd565b61044f6104f536600461313f565b610f12565b61044f7fee2282d7affd5a432b221a559e429129347b0c19a3f102179a5fb1859eef3d2981565b610529600081565b60405160ff90911681526020016103b2565b61044f610fc5565b61040e61055136600461313f565b61105e565b61040e610564366004612faf565b611252565b61040e610577366004613319565b61126d565b61044f61058a366004612ef3565b6001600160a01b031660009081526001602052604090205490565b6103a66105b3366004613319565b600090815260356020526040902054151590565b61044f6105d5366004613319565b611407565b61040e6105e83660046132de565b6114a1565b61044f7f47ab88482c90e4bb94b82a947ae78fa91fb25de1469ab491f4c15b9a0a2677ee81565b61040e6106223660046130c6565b611520565b61040e6106353660046131bd565b611714565b6103e3610648366004613319565b61172f565b6103c3611764565b61044f610663366004612ef3565b611771565b6103a6610676366004613319565b6117b5565b61041961040081565b61040e610692366004613168565b6117d1565b6104196201000081565b610419600281565b61040e6106b7366004612f3f565b6118a4565b6103c3611a2c565b610529600881565b61040e6106da36600461313f565b611a39565b61040e6106ed36600461309d565b611a53565b610705610700366004613236565b611a5e565b6040516103b2919061341e565b61040e61072036600461313f565b611bec565b61044f600160fe1b81565b61044f600160ff1b81565b61040e6107493660046131ef565b611c71565b6103a661075c366004613319565b611d6b565b60005460405160ff90911681526020016103b2565b61040e610784366004612fea565b611d9e565b610419600181565b6103a661079f36600461313f565b611e72565b6103c36107b2366004613319565b611e9b565b61040e6107c5366004613050565b61203b565b61040e6107d8366004613319565b61219b565b6104196202000081565b6103a66107f5366004612f0d565b6121a8565b610419601081565b6103a6610810366004613319565b6121d6565b60006001600160e01b031982166301ffc9a760e01b148061084657506001600160e01b031982166380ac58cd60e01b145b8061086157506001600160e01b03198216635b5e139f60e01b145b8061087c57506001600160e01b0319821663780e9d6360e01b145b8061089757506001600160e01b03198216633197b5d160e21b145b806108b257506001600160e01b03198216630852cd8d60e31b145b92915050565b603380546108c59061370a565b80601f01602080910402602001604051908101604052809291908181526020018280546108f19061370a565b801561093e5780601f106109135761010080835404028352916020019161093e565b820191906000526020600020905b81548152906001019060200180831161092157829003601f168201915b505050505081565b60008181526035602052604081205461097a5760405162461bcd60e51b81526004016109719061356f565b60405180910390fd5b506000908152603860205260409020546001600160a01b031690565b6109a13383836121f1565b5050565b6109b1621000006121d6565b6109cd5760405162461bcd60e51b815260040161097190613603565b6000828152603c6020526040908190209051839133917f7989fff0ffb34805e8b3574b890ed6157f85a384c69b9a0c04991b24cabb825991610a10918690613492565b60405180910390a36000828152603c602090815260409091208251610a3792840190612d60565b505050565b6001600160a01b03831633148015610a595750610a5960016117b5565b80610a7d57506001600160a01b0383163314801590610a7d5750610a7d60026117b5565b6001600160a01b0384163314610ac8576040518060400160405280602081526020017f7472616e7366657273206f6e20626568616c66206172652064697361626c6564815250610af8565b604051806040016040528060168152602001751d1c985b9cd9995c9cc8185c9948191a5cd8589b195960521b8152505b90610b165760405162461bcd60e51b8152600401610971919061347f565b506001600160a01b038216610b3d5760405162461bcd60e51b8152600401610971906135dd565b610b468161172f565b6001600160a01b0316836001600160a01b031614610b765760405162461bcd60e51b815260040161097190613603565b6001600160a01b038316331480610ba65750610b9181610946565b6001600160a01b0316336001600160a01b0316145b80610bb65750610bb683336121a8565b610bd25760405162461bcd60e51b815260040161097190613603565b610bdb81611d6b565b610c165760405162461bcd60e51b815260206004820152600c60248201526b3637b1b5b2b2103a37b5b2b760a11b6044820152606401610971565b816001600160a01b0316836001600160a01b031614610cbf57610c38816122ee565b6001600160a01b0382166000818152603660209081526040808320805486855260358452918420805460a09390931b63ffffffff60a01b1663ffffffff60c01b909316929092179094179055825460018101845592825290206008820401805460079092166004026101000a63ffffffff8181021990931692841602919091179055610cc9565b610cc98382612476565b80826001600160a01b0316846001600160a01b03166000805160206137cd83398151915260405160405180910390a4505050565b610d09620100006121d6565b610d255760405162461bcd60e51b815260040161097190613603565b6001600160a01b038316610d4b5760405162461bcd60e51b8152600401610971906135dd565b60018111610d8c5760405162461bcd60e51b815260206004820152600e60248201526d1b881a5cc81d1bdbc81cdb585b1b60921b6044820152606401610971565b818263ffffffff1614610dd55760405162461bcd60e51b8152602060048201526011602482015270746f6b656e204944206f766572666c6f7760781b6044820152606401610971565b6001610de18284613676565b610deb91906136c7565b6001610df78385613676565b610e0191906136c7565b63ffffffff1614610e4d5760405162461bcd60e51b81526020600482015260166024820152756e2d746820746f6b656e204944206f766572666c6f7760501b6044820152606401610971565b60005b81811015610eb557610e656105b38285613676565b15610ea35760405162461bcd60e51b815260206004820152600e60248201526d185b1c9958591e481b5a5b9d195960921b6044820152606401610971565b80610ead81613745565b915050610e50565b50610ec18383836124cb565b60005b81811015610f0c57610ed68184613676565b6040516001600160a01b038616906000906000805160206137cd833981519152908290a480610f0481613745565b915050610ec4565b50505050565b6000610f1d83611771565b8210610f615760405162461bcd60e51b8152602060048201526013602482015272696e646578206f7574206f6620626f756e647360681b6044820152606401610971565b6001600160a01b0383166000908152603660205260409020805483908110610f9957634e487b7160e01b600052603260045260246000fd5b6000918252602090912060088204015460079091166004026101000a900463ffffffff16905092915050565b604080518082018252600c81526b54696e79455243373231763160a01b60209182015281517f8cad95687ba82c2ce50e74f7b754645e5117c3a5bec8151c0726d5857980a866818301527f551db5283b6851bbd9bc94ddacddf94c131900f6dbabedf6638c7e849fa2a2f681840152466060820152306080808301919091528351808303909101815260a0909101909252815191012090565b61106a620100006121d6565b6110865760405162461bcd60e51b815260040161097190613603565b6001600160a01b0382166110ac5760405162461bcd60e51b8152600401610971906135dd565b808163ffffffff16146110f55760405162461bcd60e51b8152602060048201526011602482015270746f6b656e204944206f766572666c6f7760781b6044820152606401610971565b600081815260356020526040902054156111425760405162461bcd60e51b815260206004820152600e60248201526d185b1c9958591e481b5a5b9d195960921b6044820152606401610971565b61122881836001600160a01b031660008181526036602090815260408083208054603780548887526035865293862063ffffffff60c01b60c09590951b9490941663ffffffff60a01b60a09390931b92909216919091179095179091558054600181810183559184529183206008808404909101805463ffffffff97881660046007968716810261010090810a838102908c02199094169390931790935587549485018855969095529082047f42a7b7dd785cd69714a189dffb3fd7d7174edc9ece837694ce50f7078f7c31ae018054929093160290920a928302929093021916179055565b60405181906001600160a01b038416906000906000805160206137cd833981519152908290a45050565b610a3783838360405180602001604052806000815250611d9e565b60006112788261172f565b9050611286620200006121d6565b6113bd576001600160a01b038116331480156112a757506112a760086117b5565b806112cb57506001600160a01b03811633148015906112cb57506112cb60106117b5565b6001600160a01b0382163314611316576040518060400160405280601c81526020017f6275726e73206f6e20626568616c66206172652064697361626c656400000000815250611342565b60405180604001604052806012815260200171189d5c9b9cc8185c9948191a5cd8589b195960721b8152505b906113605760405162461bcd60e51b8152600401610971919061347f565b506001600160a01b038116331480611391575061137c82610946565b6001600160a01b0316336001600160a01b0316145b806113a157506113a181336121a8565b6113bd5760405162461bcd60e51b815260040161097190613603565b6113c682612590565b6000828152603c602052604081206113dd91612de4565b60405182906000906001600160a01b038416906000805160206137cd833981519152908390a45050565b600061141260375490565b82106114565760405162461bcd60e51b8152602060048201526013602482015272696e646578206f7574206f6620626f756e647360681b6044820152606401610971565b6037828154811061147757634e487b7160e01b600052603260045260246000fd5b6000918252602090912060088204015460079091166004026101000a900463ffffffff1692915050565b6114ad621000006121d6565b6114c95760405162461bcd60e51b815260040161097190613603565b336001600160a01b03167fac455070f26733cc10c09e4389a74bf73bdb676d730ee31215c31d20daa88005603b83604051611505929190613492565b60405180910390a280516109a190603b906020840190612d60565b600054610100900460ff16158080156115405750600054600160ff909116105b8061155a5750303b15801561155a575060005460ff166001145b6115bd5760405162461bcd60e51b815260206004820152602e60248201527f496e697469616c697a61626c653a20636f6e747261637420697320616c72656160448201526d191e481a5b9a5d1a585b1a5e995960921b6064820152608401610971565b6000805460ff1916600117905580156115e0576000805461ff0019166101001790555b60008451116116295760405162461bcd60e51b81526020600482015260156024820152741d1bdad95b881b985b59481a5cc81b9bdd081cd95d605a1b6044820152606401610971565b600083511161167a5760405162461bcd60e51b815260206004820152601760248201527f746f6b656e2073796d626f6c206973206e6f74207365740000000000000000006044820152606401610971565b835161168d906033906020870190612d60565b5082516116a1906034906020860190612d60565b506001600160a01b0385161515806116b857508115155b156116c7576116c78583612706565b801561170d576000805461ff0019169055604051600181527f7f26b83ff96e1f2b6a682f133852f6798a09c465da95921460cefb38474024989060200160405180910390a15b5050505050565b610a3783838360405180602001604052806000815250611c71565b6000818152603560205260408120546001600160a01b0381166108b25760405162461bcd60e51b81526004016109719061356f565b603b80546108c59061370a565b60006001600160a01b0382166117995760405162461bcd60e51b8152600401610971906135dd565b506001600160a01b031660009081526036602052604090205490565b306000908152600160205260408120546108b2905b8316831490565b6117db838361105e565b6001600160a01b0383163b15610a3757604051630a85bd0160e11b81526000906001600160a01b0385169063150b7a02906118209033908590889088906004016133e1565b602060405180830381600087803b15801561183a57600080fd5b505af115801561184e573d6000803e3d6000fd5b505050506040513d601f19601f8201168201806040525081019061187291906132c2565b90506001600160e01b03198116630a85bd0160e11b14610f0c5760405162461bcd60e51b81526004016109719061359c565b6118af6104006117b5565b6118fb5760405162461bcd60e51b815260206004820152601d60248201527f6f70657261746f72207065726d697473206172652064697361626c65640000006044820152606401610971565b6001600160a01b0387166000908152603a6020526040812080546119a1917f47ab88482c90e4bb94b82a947ae78fa91fb25de1469ab491f4c15b9a0a2677ee918b918b918b918761194b83613745565b909155506040805160208101969096526001600160a01b03948516908601529290911660608401521515608083015260a082015260c0810187905260e0015b604051602081830303815290604052858585612789565b9050876001600160a01b0316816001600160a01b0316146119d45760405162461bcd60e51b815260040161097190613544565b844210611a175760405162461bcd60e51b81526020600482015260116024820152701cda59db985d1d5c9948195e1c1a5c9959607a1b6044820152606401610971565b611a228888886127ee565b5050505050505050565b603480546108c59061370a565b6109a18282604051806020016040528060008152506117d1565b6109a13383836127ee565b60608167ffffffffffffffff811115611a8757634e487b7160e01b600052604160045260246000fd5b604051908082528060200260200182016040528015611aba57816020015b6060815260200190600190039081611aa55790505b50905060005b82811015611be55760008030868685818110611aec57634e487b7160e01b600052603260045260246000fd5b9050602002810190611afe919061362a565b604051611b0c9291906133a2565b600060405180830381855af49150503d8060008114611b47576040519150601f19603f3d011682016040523d82523d6000602084013e611b4c565b606091505b509150915081611ba457805115611b665780518082602001fd5b60405162461bcd60e51b815260206004820152601360248201527219195b1959d85d1958d85b1b0819985a5b1959606a1b6044820152606401610971565b80848481518110611bc557634e487b7160e01b600052603260045260246000fd5b602002602001018190525050508080611bdd90613745565b915050611ac0565b5092915050565b611bf9600160ff1b6121d6565b611c155760405162461bcd60e51b815260040161097190613603565b6109a18282611c6c33611c3d876001600160a01b031660009081526001602052604090205490565b6001600160a01b0391909116600090815260016020526040902054600019808818821618908716919091171690565b6128ad565b611c7c848484610cfd565b6001600160a01b0384163b15610f0c5760005b8281101561170d5760006001600160a01b03861663150b7a023383611cb4868a613676565b876040518563ffffffff1660e01b8152600401611cd494939291906133e1565b602060405180830381600087803b158015611cee57600080fd5b505af1158015611d02573d6000803e3d6000fd5b505050506040513d601f19601f82011682018060405250810190611d2691906132c2565b90506001600160e01b03198116630a85bd0160e11b14611d585760405162461bcd60e51b81526004016109719061359c565b5080611d6381613745565b915050611c8f565b600081815260356020526040812054611d965760405162461bcd60e51b81526004016109719061356f565b506001919050565b611da9848484610a3c565b6001600160a01b0383163b15610f0c57604051630a85bd0160e11b81526000906001600160a01b0385169063150b7a0290611dee9033908990889088906004016133e1565b602060405180830381600087803b158015611e0857600080fd5b505af1158015611e1c573d6000803e3d6000fd5b505050506040513d601f19601f82011682018060405250810190611e4091906132c2565b90506001600160e01b03198116630a85bd0160e11b1461170d5760405162461bcd60e51b81526004016109719061359c565b6001600160a01b038216600090815260016020526040812054611e94906117ca565b9392505050565b600081815260356020526040902054606090611ec95760405162461bcd60e51b81526004016109719061356f565b6000828152603c602052604081208054611ee29061370a565b80601f0160208091040260200160405190810160405280929190818152602001828054611f0e9061370a565b8015611f5b5780601f10611f3057610100808354040283529160200191611f5b565b820191906000526020600020905b815481529060010190602001808311611f3e57829003601f168201915b50505050509050600081511115611f725792915050565b603b8054611f7f9061370a565b15159050611f9d575050604080516020810190915260008152919050565b611e94603b8054611fad9061370a565b80601f0160208091040260200160405190810160405280929190818152602001828054611fd99061370a565b80156120265780601f10611ffb57610100808354040283529160200191612026565b820191906000526020600020905b81548152906001019060200180831161200957829003601f168201915b505050505061203685600a612907565b612b22565b6120466102006117b5565b6120895760405162461bcd60e51b81526020600482015260146024820152731c195c9b5a5d1cc8185c9948191a5cd8589b195960621b6044820152606401610971565b6001600160a01b0387166000908152603a60205260408120805461211a917fee2282d7affd5a432b221a559e429129347b0c19a3f102179a5fb1859eef3d29918b918b918b91876120d983613745565b909155506040805160208101969096526001600160a01b0394851690860152929091166060840152608083015260a082015260c0810187905260e00161198a565b9050876001600160a01b0316816001600160a01b03161461214d5760405162461bcd60e51b815260040161097190613544565b8442106121905760405162461bcd60e51b81526020600482015260116024820152701cda59db985d1d5c9948195e1c1a5c9959607a1b6044820152606401610971565b611a228888886121f1565b6121a53082611bec565b50565b6001600160a01b03918216600090815260396020908152604080832093909416825291909152205460ff1690565b60006108b23383611e72565b6001600160a01b03163b151590565b60006121fc8261172f565b9050806001600160a01b0316836001600160a01b031614156122505760405162461bcd60e51b815260206004820152600d60248201526c1cd95b1988185c1c1c9bdd985b609a1b6044820152606401610971565b806001600160a01b0316846001600160a01b03161480612275575061227581856121a8565b6122915760405162461bcd60e51b815260040161097190613603565b60008281526038602052604080822080546001600160a01b0319166001600160a01b0387811691821790925591518593918516917f8c5be1e5ebec7d5bd14f71427d1e84f3dd0314c0f7b2291e5b200ac8c7c3b92591a450505050565b6000818152603560209081526040808320546001600160a01b03811684526036909252822080549192909160a084901c9190839061232e906001906136c7565b8154811061234c57634e487b7160e01b600052603260045260246000fd5b90600052602060002090600891828204019190066004029054906101000a900463ffffffff1690506001838054905061238591906136c7565b8263ffffffff16146124245763ffffffff81811660009081526035602052604090208054600167ffffffff0000000160a01b031663ffffffff60a01b60a086901b161790558354829185919085169081106123f057634e487b7160e01b600052603260045260246000fd5b90600052602060002090600891828204019190066004026101000a81548163ffffffff021916908363ffffffff1602179055505b8280548061244257634e487b7160e01b600052603160045260246000fd5b600082815260209020600860001990920191820401805463ffffffff600460078516026101000a0219169055905561170d84865b60008181526038602052604080822080546001600160a01b0319169055518291906001600160a01b038516907f8c5be1e5ebec7d5bd14f71427d1e84f3dd0314c0f7b2291e5b200ac8c7c3b925908390a45050565b6001600160a01b0383166000908152603660205260408120905b828110156125785781546001600160a01b0386169060a090612508908490613676565b6001600160c01b0316901b6001600160c01b031660c08360378054905061252f9190613676565b6001600160e01b0316901b17176001600160e01b03166035600083876125559190613676565b81526020810191909152604001600020558061257081613745565b9150506124e5565b50612584818484612b4e565b610f0c60378484612b4e565b612599816122ee565b60008181526035602052604081208054908290556037805460c09290921c92916125c5906001906136c7565b815481106125e357634e487b7160e01b600052603260045260246000fd5b90600052602060002090600891828204019190066004029054906101000a900463ffffffff169050600160378054905061261d91906136c7565b8263ffffffff16146126b45763ffffffff818116600090815260356020526040902080546001600160c01b031663ffffffff60c01b60c086901b16179055603780548392851690811061268057634e487b7160e01b600052603260045260246000fd5b90600052602060002090600891828204019190066004026101000a81548163ffffffff021916908363ffffffff1602179055505b60378054806126d357634e487b7160e01b600052603160045260246000fd5b600082815260209020600860001990920191820401805463ffffffff600460078516026101000a02191690559055505050565b600054610100900460ff166127715760405162461bcd60e51b815260206004820152602b60248201527f496e697469616c697a61626c653a20636f6e7472616374206973206e6f74206960448201526a6e697469616c697a696e6760a81b6064820152608401610971565b61277e82600019806128ad565b6109a13082836128ad565b835160208501206000908161279c610fc5565b60405161190160f01b602082015260228101919091526042810183905260620160405160208183030381529060405280519060200120905060006127e282888888612c06565b98975050505050505050565b826001600160a01b0316826001600160a01b031614156128405760405162461bcd60e51b815260206004820152600d60248201526c1cd95b1988185c1c1c9bdd985b609a1b6044820152606401610971565b6001600160a01b03838116600081815260396020908152604080832094871680845294825291829020805460ff191686151590811790915591519182527f17307eab39ab6107e8899845ad3d59bd9653f200f220920489ca2b5937696c31910160405180910390a3505050565b6001600160a01b03831660008181526001602090815260409182902084905581518581529081018490527fe9be537308880e0f56b7d7cfd7abf85f14c4934486d138f848b92a0cbaf659b4910160405180910390a2505050565b60608160ff166002148061291e57508160ff166008145b8061292c57508160ff16600a145b8061293a57508160ff166010145b61294357600080fd5b8261296657506040805180820190915260018152600360fc1b60208201526108b2565b60408051610100808252610120820190925260009160208201818036833701905050905060005b8415612a295760006129a260ff861687613760565b905060006129b182603061368e565b9050600a8260ff16106129cc576129c960078261368e565b90505b8060f81b8484806129dc90613745565b9550815181106129fc57634e487b7160e01b600052603260045260246000fd5b60200101906001600160f81b031916908160001a905350612a2060ff8716886136b3565b9650505061298d565b60008167ffffffffffffffff811115612a5257634e487b7160e01b600052604160045260246000fd5b6040519080825280601f01601f191660200182016040528015612a7c576020820181803683370190505b509050600091505b8051821015612b1957828281518110612aad57634e487b7160e01b600052603260045260246000fd5b602001015160f81c60f81b816001848451612ac891906136c7565b612ad291906136c7565b81518110612af057634e487b7160e01b600052603260045260246000fd5b60200101906001600160f81b031916908160001a90535081612b1181613745565b925050612a84565b95945050505050565b60608282604051602001612b379291906133b2565b604051602081830303815290604052905092915050565b82548181018455836000526008810460206000200160088206915081151915612bb3578160080383811115612b805750825b815460005b82811015612ba4578681018582016020021b9190911790600101612b85565b50825593840193909203916001015b600091505b8282101561170d57600883811115612bcd5750825b6000805b82811015612bf0578481018701602082021b9190911790600101612bd1565b5080600885048401555050600882019150612bb8565b60007f7fffffffffffffffffffffffffffffff5d576e7357a4501ddfe92f46681b20a0821115612c785760405162461bcd60e51b815260206004820152601b60248201527f696e76616c6964207369676e6174757265202773272076616c756500000000006044820152606401610971565b8360ff16601b1480612c8d57508360ff16601c145b612cd95760405162461bcd60e51b815260206004820152601b60248201527f696e76616c6964207369676e6174757265202776272076616c756500000000006044820152606401610971565b6040805160008082526020820180845288905260ff871692820192909252606081018590526080810184905260019060a0016020604051602081039080840390855afa158015612d2d573d6000803e3d6000fd5b5050604051601f1901519150506001600160a01b038116612b195760405162461bcd60e51b815260040161097190613544565b828054612d6c9061370a565b90600052602060002090601f016020900481019282612d8e5760008555612dd4565b82601f10612da757805160ff1916838001178555612dd4565b82800160010185558215612dd4579182015b82811115612dd4578251825591602001919060010190612db9565b50612de0929150612e1a565b5090565b508054612df09061370a565b6000825580601f10612e00575050565b601f0160209004906000526020600020908101906121a591905b5b80821115612de05760008155600101612e1b565b80356001600160a01b0381168114612e4657600080fd5b919050565b80358015158114612e4657600080fd5b600082601f830112612e6b578081fd5b813567ffffffffffffffff80821115612e8657612e866137a0565b604051601f8301601f19908116603f01168101908282118183101715612eae57612eae6137a0565b81604052838152866020858801011115612ec6578485fd5b8360208701602083013792830160200193909352509392505050565b803560ff81168114612e4657600080fd5b600060208284031215612f04578081fd5b611e9482612e2f565b60008060408385031215612f1f578081fd5b612f2883612e2f565b9150612f3660208401612e2f565b90509250929050565b600080600080600080600060e0888a031215612f59578283fd5b612f6288612e2f565b9650612f7060208901612e2f565b9550612f7e60408901612e4b565b945060608801359350612f9360808901612ee2565b925060a0880135915060c0880135905092959891949750929550565b600080600060608486031215612fc3578283fd5b612fcc84612e2f565b9250612fda60208501612e2f565b9150604084013590509250925092565b60008060008060808587031215612fff578384fd5b61300885612e2f565b935061301660208601612e2f565b925060408501359150606085013567ffffffffffffffff811115613038578182fd5b61304487828801612e5b565b91505092959194509250565b600080600080600080600060e0888a03121561306a578283fd5b61307388612e2f565b965061308160208901612e2f565b95506040880135945060608801359350612f9360808901612ee2565b600080604083850312156130af578182fd5b6130b883612e2f565b9150612f3660208401612e4b565b600080600080608085870312156130db578384fd5b6130e485612e2f565b9350602085013567ffffffffffffffff80821115613100578485fd5b61310c88838901612e5b565b94506040870135915080821115613121578384fd5b5061312e87828801612e5b565b949793965093946060013593505050565b60008060408385031215613151578182fd5b61315a83612e2f565b946020939093013593505050565b60008060006060848603121561317c578081fd5b61318584612e2f565b925060208401359150604084013567ffffffffffffffff8111156131a7578182fd5b6131b386828701612e5b565b9150509250925092565b6000806000606084860312156131d1578081fd5b6131da84612e2f565b95602085013595506040909401359392505050565b60008060008060808587031215613204578182fd5b61320d85612e2f565b93506020850135925060408501359150606085013567ffffffffffffffff811115613038578182fd5b60008060208385031215613248578182fd5b823567ffffffffffffffff8082111561325f578384fd5b818501915085601f830112613272578384fd5b813581811115613280578485fd5b8660208260051b8501011115613294578485fd5b60209290920196919550909350505050565b6000602082840312156132b7578081fd5b8135611e94816137b6565b6000602082840312156132d3578081fd5b8151611e94816137b6565b6000602082840312156132ef578081fd5b813567ffffffffffffffff811115613305578182fd5b61331184828501612e5b565b949350505050565b60006020828403121561332a578081fd5b5035919050565b60008060408385031215613343578182fd5b82359150602083013567ffffffffffffffff811115613360578182fd5b61336c85828601612e5b565b9150509250929050565b6000815180845261338e8160208601602086016136de565b601f01601f19169290920160200192915050565b8183823760009101908152919050565b600083516133c48184602088016136de565b8351908301906133d88183602088016136de565b01949350505050565b6001600160a01b038581168252841660208201526040810183905260806060820181905260009061341490830184613376565b9695505050505050565b6000602080830181845280855180835260408601915060408160051b8701019250838701855b8281101561347257603f19888603018452613460858351613376565b94509285019290850190600101613444565b5092979650505050505050565b602081526000611e946020830184613376565b60408152600080845482600182811c9150808316806134b257607f831692505b60208084108214156134d257634e487b7160e01b87526022600452602487fd5b60408801849052606088018280156134f157600181146135025761352c565b60ff1987168252828201975061352c565b60008c815260209020895b878110156135265781548482015290860190840161350d565b83019850505b5050878603818901525050505050612b198185613376565b602080825260119082015270696e76616c6964207369676e617475726560781b604082015260600190565b6020808252601390820152721d1bdad95b88191bd95cdb89dd08195e1a5cdd606a1b604082015260600190565b60208082526021908201527f696e76616c6964206f6e455243373231526563656976656420726573706f6e736040820152606560f81b606082015260800190565b6020808252600c908201526b7a65726f206164647265737360a01b604082015260600190565b6020808252600d908201526c1858d8d95cdcc819195b9a5959609a1b604082015260600190565b6000808335601e19843603018112613640578283fd5b83018035915067ffffffffffffffff82111561365a578283fd5b60200191503681900382131561366f57600080fd5b9250929050565b6000821982111561368957613689613774565b500190565b600060ff821660ff84168060ff038211156136ab576136ab613774565b019392505050565b6000826136c2576136c261378a565b500490565b6000828210156136d9576136d9613774565b500390565b60005b838110156136f95781810151838201526020016136e1565b83811115610f0c5750506000910152565b600181811c9082168061371e57607f821691505b6020821081141561373f57634e487b7160e01b600052602260045260246000fd5b50919050565b600060001982141561375957613759613774565b5060010190565b60008261376f5761376f61378a565b500690565b634e487b7160e01b600052601160045260246000fd5b634e487b7160e01b600052601260045260246000fd5b634e487b7160e01b600052604160045260246000fd5b6001600160e01b0319811681146121a557600080fdfeddf252ad1be2c89b69c2b068fc378daa952ba7f163c4a11628f55a4df523b3efa2646970667358221220cb324fb9bbc5135fb186f103f079e94c024219b6134d16ce64c1e146c307aa3764736f6c63430008040033496e697469616c697a61626c653a20636f6e747261637420697320616c7265617f26b83ff96e1f2b6a682f133852f6798a09c465da95921460cefb3847402498",
  "devdoc": {
    "author": "Basil Gorin",
    "details": "ERC721: contract has passed adopted OpenZeppelin ERC721 tests        https://github.com/OpenZeppelin/openzeppelin-contracts/blob/master/test/token/ERC721/ERC721.behavior.js        https://github.com/OpenZeppelin/openzeppelin-contracts/blob/master/test/token/ERC721/extensions/ERC721URIStorage.test.jsA note on token URI: there are major differences on how token URI behaves comparing to OZ impl:      1. A token URI can be set for non-existing token for pre-allocation purposes,         still the URI will be deleted once token is burnt      2. If token URI is set, base URI has no affect on the token URI, the two are not concatenated,         base URI is used to construct the token URI only if the latter was not explicitly setSupports EIP-712 powered permits - permit() - approve() with signature.      Supports EIP-712 powered operator permits - permitForAll() - setApprovalForAll() with signature.EIP712 Domain:      name: TinyERC721v1      version: not in use, omitted (name already contains version)      chainId: EIP-155 chain id      verifyingContract: deployed contract address      salt: permitNonces[owner], where owner is an address which allows operation on their tokensPermit type:      owner: address      operator: address      tokenId: uint256      nonce: uint256      deadline: uint256Permit typeHash:        keccak256(\"Permit(address owner,address operator,uint256 tokenId,uint256 nonce,uint256 deadline)\")PermitForAll type:      owner: address      operator: address      approved: bool      nonce: uint256      deadline: uint256PermitForAll typeHash:        keccak256(\"PermitForAll(address owner,address operator,bool approved,uint256 nonce,uint256 deadline)\")See https://eips.ethereum.org/EIPS/eip-712See usage examples in tests: erc721_permits.js",
    "events": {
      "BaseURIUpdated(address,string,string)": {
        "details": "Fired in setBaseURI()",
        "params": {
          "by": "an address which executed update",
          "newVal": "new _baseURI value",
          "oldVal": "old _baseURI value"
        }
      },
      "TokenURIUpdated(address,uint256,string,string)": {
        "details": "Fired in setTokenURI()",
        "params": {
          "by": "an address which executed update",
          "newVal": "new _baseURI value",
          "oldVal": "old _baseURI value",
          "tokenId": "token ID which URI was updated"
        }
      }
    },
    "kind": "dev",
    "methods": {
      "approve(address,uint256)": {
        "details": "The zero address indicates there is no approved address.  Throws unless `msg.sender` is the current NFT owner, or an authorized  operator of the current owner.",
        "params": {
          "_approved": "The new approved NFT controller",
          "_tokenId": "The NFT to approve"
        }
      },
      "balanceOf(address)": {
        "details": "NFTs assigned to the zero address are considered invalid, and this  function throws for queries about the zero address.",
        "params": {
          "_owner": "An address for whom to query the balance"
        },
        "returns": {
          "_0": "The number of NFTs owned by `_owner`, possibly zero"
        }
      },
      "burn(uint256)": {
        "details": "Destroys the token with token ID specifiedRequires executor to have `ROLE_TOKEN_DESTROYER` permission      or FEATURE_OWN_BURNS/FEATURE_BURNS_ON_BEHALF features to be enabledCan be disabled by the contract creator forever by disabling      FEATURE_OWN_BURNS/FEATURE_BURNS_ON_BEHALF features and then revoking      its own roles to burn tokens and to enable burning features",
        "params": {
          "_tokenId": "ID of the token to burn"
        }
      },
      "constructor": {
        "details": "Constructs/deploys ERC721 instance with the name and symbol specified",
        "params": {
          "_contractOwner": "smart contract owner (has minting/burning and all other permissions)",
          "_initialFeatures": "RBAC features enabled initially",
          "_name": "name of the token to be accessible as `name()`,      ERC-20 compatible descriptive name for a collection of NFTs in this contract",
          "_symbol": "token symbol to be accessible as `symbol()`,      ERC-20 compatible descriptive name for a collection of NFTs in this contract"
        }
      },
      "exists(uint256)": {
        "details": "Returns whether the specified token ID has an ownership      information associated with it",
        "params": {
          "_tokenId": "ID of the token to query existence for"
        },
        "returns": {
          "_0": "whether the token exists (true - exists, false - doesn't exist)"
        }
      },
      "features()": {
        "details": "Effectively reads userRoles role for the contract itself",
        "returns": {
          "_0": "256-bit bitmask of the features enabled"
        }
      },
      "getApproved(uint256)": {
        "details": "Throws if `_tokenId` is not a valid NFT.",
        "params": {
          "_tokenId": "The NFT to find the approved address for"
        },
        "returns": {
          "_0": "The approved address for this NFT, or the zero address if there is none"
        }
      },
      "getInitializedVersion()": {
        "details": "Highest version that has been initialized.      Non-zero value means contract was already initialized.see {Initializable}, {reinitializer}.",
        "returns": {
          "_0": "highest version that has been initialized"
        }
      },
      "getRole(address)": {
        "details": "Having a simple getter instead of making the mapping public      allows enforcing the encapsulation of the mapping and protects from      writing to it directly in the inheriting smart contracts",
        "params": {
          "operator": "address of a user to read permissions for,      or self address to read global features of the smart contract"
        }
      },
      "isApprovedForAll(address,address)": {
        "params": {
          "_operator": "The address that acts on behalf of the owner",
          "_owner": "The address that owns the NFTs"
        },
        "returns": {
          "_0": "True if `_operator` is an approved operator for `_owner`, false otherwise"
        }
      },
      "isFeatureEnabled(uint256)": {
        "params": {
          "required": "set of features to check against"
        },
        "returns": {
          "_0": "true if all the features requested are enabled, false otherwise"
        }
      },
      "isOperatorInRole(address,uint256)": {
        "params": {
          "operator": "address of the user to check role for",
          "required": "set of permissions (role) to check"
        },
        "returns": {
          "_0": "true if all the permissions requested are enabled, false otherwise"
        }
      },
      "isSenderInRole(uint256)": {
        "params": {
          "required": "set of permissions (role) to check against"
        },
        "returns": {
          "_0": "true if all the permissions requested are enabled, false otherwise"
        }
      },
      "isTransferable(uint256)": {
        "details": "Verifies if token is transferable (i.e. can change ownership, allowed to be transferred);      The default behaviour is to always allow transfer if token existsImplementations may modify the default behaviour based on token metadata      if required",
        "params": {
          "_tokenId": "ID of the token to check if it's transferable"
        },
        "returns": {
          "_0": "true if token is transferable, false otherwise"
        }
      },
      "mint(address,uint256)": {
        "details": "Creates new token with token ID specified      and assigns an ownership `_to` for this tokenUnsafe: doesn't execute `onERC721Received` on the receiver.      Prefer the use of `saveMint` instead of `mint`.Requires executor to have `ROLE_TOKEN_CREATOR` permission",
        "params": {
          "_to": "an address to mint token to",
          "_tokenId": "ID of the token to mint"
        }
      },
      "mintBatch(address,uint256,uint256)": {
        "details": "Creates new tokens starting with token ID specified      and assigns an ownership `_to` for these tokensToken IDs to be minted: [_tokenId, _tokenId + n)n must be greater or equal 2: `n > 1`Unsafe: doesn't execute `onERC721Received` on the receiver.      Prefer the use of `saveMintBatch` instead of `mintBatch`.Requires executor to have `ROLE_TOKEN_CREATOR` permission",
        "params": {
          "_to": "an address to mint tokens to",
          "_tokenId": "ID of the first token to mint",
          "n": "how many tokens to mint, sequentially increasing the _tokenId"
        }
      },
      "multicall(bytes[])": {
        "details": "Multicall support: a function to batch together multiple calls in a single external call.Receives and executes a batch of function calls on this contract.",
        "params": {
          "data": "an array of ABI-encoded function calls"
        },
        "returns": {
          "results": "an array of ABI-encoded results of the function calls"
        }
      },
      "ownerOf(uint256)": {
        "details": "NFTs assigned to zero address are considered invalid, and queries  about them do throw.",
        "params": {
          "_tokenId": "The identifier for an NFT"
        },
        "returns": {
          "_0": "The address of the owner of the NFT"
        }
      },
      "permit(address,address,uint256,uint256,uint8,bytes32,bytes32)": {
        "details": "Executes approve(_operator, _tokenId) on behalf of the token owner      who EIP-712 signed the transaction, i.e. as if transaction sender is the EIP712 signerSets the `_tokenId` as the allowance of `_operator` over `_owner` token,      given `_owner` EIP-712 signed approvalEmits `Approval` event in the same way as `approve` doesRequires:     - `_operator` to be non-zero address     - `_exp` to be a timestamp in the future     - `v`, `r` and `s` to be a valid `secp256k1` signature from `_owner`        over the EIP712-formatted function arguments.     - the signature to use `_owner` current nonce (see `permitNonces`).For more information on the signature format, see the      https://eips.ethereum.org/EIPS/eip-2612#specification",
        "params": {
          "_exp": "signature expiration time (unix timestamp)",
          "_operator": "new approved NFT controller",
          "_owner": "owner of the token to set approval on behalf of,      an address which signed the EIP-712 message",
          "_tokenId": "token ID to approve",
          "r": "half of the ECDSA signature pair",
          "s": "half of the ECDSA signature pair",
          "v": "the recovery byte of the signature"
        }
      },
      "permitForAll(address,address,bool,uint256,uint8,bytes32,bytes32)": {
        "details": "Executes setApprovalForAll(_operator, _approved) on behalf of the owner      who EIP-712 signed the transaction, i.e. as if transaction sender is the EIP712 signerSets the `_operator` as the token operator for `_owner` tokens,      given `_owner` EIP-712 signed approvalEmits `ApprovalForAll` event in the same way as `setApprovalForAll` doesRequires:     - `_operator` to be non-zero address     - `_exp` to be a timestamp in the future     - `v`, `r` and `s` to be a valid `secp256k1` signature from `_owner`        over the EIP712-formatted function arguments.     - the signature to use `_owner` current nonce (see `permitNonces`).For more information on the signature format, see the      https://eips.ethereum.org/EIPS/eip-2612#specification",
        "params": {
          "_approved": "true if the operator is approved, false to revoke approval",
          "_exp": "signature expiration time (unix timestamp)",
          "_operator": "an address to add to the set of authorized operators, i.e.      an address approved by the token owner to spend tokens on its behalf",
          "_owner": "owner of the tokens to set approval on behalf of,      an address which signed the EIP-712 message",
          "r": "half of the ECDSA signature pair",
          "s": "half of the ECDSA signature pair",
          "v": "the recovery byte of the signature"
        }
      },
      "postConstruct(address,string,string,uint256)": {
        "details": "\"Constructor replacement\" for a smart contract with a delayed initialization (post-deployment initialization)",
        "params": {
          "_contractOwner": "smart contract owner (has minting/burning and all other permissions)",
          "_initialFeatures": "RBAC features enabled initially",
          "_name": "name of the token to be accessible as `name()`,      ERC-20 compatible descriptive name for a collection of NFTs in this contract",
          "_symbol": "token symbol to be accessible as `symbol()`,      ERC-20 compatible descriptive name for a collection of NFTs in this contract"
        }
      },
      "safeMint(address,uint256)": {
        "details": "Creates new token with token ID specified      and assigns an ownership `_to` for this tokenChecks if `_to` is a smart contract (code size > 0). If so, it calls      `onERC721Received` on `_to` and throws if the return value is not      `bytes4(keccak256(\"onERC721Received(address,address,uint256,bytes)\"))`.Requires executor to have `ROLE_TOKEN_CREATOR` permission",
        "params": {
          "_to": "an address to mint token to",
          "_tokenId": "ID of the token to mint"
        }
      },
      "safeMint(address,uint256,bytes)": {
        "details": "Creates new token with token ID specified      and assigns an ownership `_to` for this tokenChecks if `_to` is a smart contract (code size > 0). If so, it calls      `onERC721Received` on `_to` and throws if the return value is not      `bytes4(keccak256(\"onERC721Received(address,address,uint256,bytes)\"))`.Requires executor to have `ROLE_TOKEN_CREATOR` permission",
        "params": {
          "_data": "additional data with no specified format, sent in call to `_to`",
          "_to": "an address to mint token to",
          "_tokenId": "ID of the token to mint"
        }
      },
      "safeMintBatch(address,uint256,uint256)": {
        "details": "Creates new tokens starting with token ID specified      and assigns an ownership `_to` for these tokensToken IDs to be minted: [_tokenId, _tokenId + n)n must be greater or equal 2: `n > 1`Checks if `_to` is a smart contract (code size > 0). If so, it calls      `onERC721Received` on `_to` and throws if the return value is not      `bytes4(keccak256(\"onERC721Received(address,address,uint256,bytes)\"))`.Requires executor to have `ROLE_TOKEN_CREATOR` permission",
        "params": {
          "_to": "an address to mint token to",
          "_tokenId": "ID of the token to mint",
          "n": "how many tokens to mint, sequentially increasing the _tokenId"
        }
      },
      "safeMintBatch(address,uint256,uint256,bytes)": {
        "details": "Creates new tokens starting with token ID specified      and assigns an ownership `_to` for these tokensToken IDs to be minted: [_tokenId, _tokenId + n)n must be greater or equal 2: `n > 1`Checks if `_to` is a smart contract (code size > 0). If so, it calls      `onERC721Received` on `_to` and throws if the return value is not      `bytes4(keccak256(\"onERC721Received(address,address,uint256,bytes)\"))`.Requires executor to have `ROLE_TOKEN_CREATOR` permission",
        "params": {
          "_data": "additional data with no specified format, sent in call to `_to`",
          "_to": "an address to mint token to",
          "_tokenId": "ID of the token to mint",
          "n": "how many tokens to mint, sequentially increasing the _tokenId"
        }
      },
      "safeTransferFrom(address,address,uint256)": {
        "details": "This works identically to the other function with an extra data parameter,  except this function just sets data to \"\".",
        "params": {
          "_from": "The current owner of the NFT",
          "_to": "The new owner",
          "_tokenId": "The NFT to transfer"
        }
      },
      "safeTransferFrom(address,address,uint256,bytes)": {
        "details": "Throws unless `msg.sender` is the current owner, an authorized  operator, or the approved address for this NFT. Throws if `_from` is  not the current owner. Throws if `_to` is the zero address. Throws if  `_tokenId` is not a valid NFT. When transfer is complete, this function  checks if `_to` is a smart contract (code size > 0). If so, it calls  `onERC721Received` on `_to` and throws if the return value is not  `bytes4(keccak256(\"onERC721Received(address,address,uint256,bytes)\"))`.",
        "params": {
          "_data": "Additional data with no specified format, sent in call to `_to`",
          "_from": "The current owner of the NFT",
          "_to": "The new owner",
          "_tokenId": "The NFT to transfer"
        }
      },
      "setApprovalForAll(address,bool)": {
        "details": "Emits the ApprovalForAll event. The contract MUST allow  multiple operators per owner.",
        "params": {
          "_approved": "True if the operator is approved, false to revoke approval",
          "_operator": "Address to add to the set of authorized operators"
        }
      },
      "setBaseURI(string)": {
        "details": "Restricted access function which updates base URI used to construct      ERC721Metadata.tokenURIRequires executor to have ROLE_URI_MANAGER permission",
        "params": {
          "_baseURI": "new base URI to set"
        }
      },
      "setTokenURI(uint256,string)": {
        "details": "Sets the token URI for the token defined by its ID",
        "params": {
          "_tokenId": "an ID of the token to set URI for",
          "_tokenURI": "token URI to set"
        }
      },
      "supportsInterface(bytes4)": {
        "details": "Interface identification is specified in ERC-165.      This function uses less than 30,000 gas.",
        "params": {
          "interfaceID": "The interface identifier, as specified in ERC-165"
        },
        "returns": {
          "_0": "`true` if the contract implements `interfaceID` and      `interfaceID` is not 0xffffffff, `false` otherwise"
        }
      },
      "tokenByIndex(uint256)": {
        "details": "Throws if `_index` >= `totalSupply()`.",
        "params": {
          "_index": "A counter less than `totalSupply()`"
        },
        "returns": {
          "_0": "The token identifier for the `_index`th NFT,  (sort order not specified)"
        }
      },
      "tokenOfOwnerByIndex(address,uint256)": {
        "details": "Throws if `_index` >= `balanceOf(_owner)` or if  `_owner` is the zero address, representing invalid NFTs.",
        "params": {
          "_index": "A counter less than `balanceOf(_owner)`",
          "_owner": "An address where we are interested in NFTs owned by them"
        },
        "returns": {
          "_0": "The token identifier for the `_index`th NFT assigned to `_owner`,   (sort order not specified)"
        }
      },
      "tokenURI(uint256)": {
        "details": "Returns token URI if it was previously set with `setTokenURI`,      otherwise constructs it as base URI + token ID"
      },
      "totalSupply()": {
        "returns": {
          "_0": "A count of valid NFTs tracked by this contract, where each one of  them has an assigned and queryable owner not equal to the zero address"
        }
      },
      "transferFrom(address,address,uint256)": {
        "details": "Throws unless `msg.sender` is the current owner, an authorized  operator, or the approved address for this NFT. Throws if `_from` is  not the current owner. Throws if `_to` is the zero address. Throws if  `_tokenId` is not a valid NFT.",
        "params": {
          "_from": "The current owner of the NFT",
          "_to": "The new owner",
          "_tokenId": "The NFT to transfer"
        }
      },
      "updateFeatures(uint256)": {
        "details": "Requires transaction sender to have `ROLE_ACCESS_MANAGER` permissionFunction is left for backward compatibility with older versions",
        "params": {
          "_mask": "bitmask representing a set of features to enable/disable"
        }
      },
      "updateRole(address,uint256)": {
        "details": "Setting role to zero is equivalent to removing an all permissionsSetting role to `FULL_PRIVILEGES_MASK` is equivalent to      copying senders' permissions (role) to the userRequires transaction sender to have `ROLE_ACCESS_MANAGER` permission",
        "params": {
          "operator": "address of a user to alter permissions for,       or self address to alter global features of the smart contract",
          "role": "bitmask representing a set of permissions to      enable/disable for a user specified"
        }
      }
    },
    "stateVariables": {
      "BATCH_SIZE_MULTIPLIER": {
        "details": "32 bit token ID space is optimal for batch minting in batches of size 8      8 * 32 = 256 - single storage slot in global/local collection(s)"
      },
      "DOMAIN_TYPEHASH": {
        "details": "Note: we do not include version into the domain typehash/separator,      it is implied version is concatenated to the name field, like \"TinyERC721v1\""
      },
      "FEATURE_BURNS_ON_BEHALF": {
        "details": "Feature FEATURE_BURNS_ON_BEHALF must be enabled in order for      `burn()` function to succeed when called by approved operator"
      },
      "FEATURE_OPERATOR_PERMITS": {
        "details": "Feature FEATURE_OPERATOR_PERMITS must be enabled in order for      `permitForAll()` function to succeed"
      },
      "FEATURE_OWN_BURNS": {
        "details": "Feature FEATURE_OWN_BURNS must be enabled in order for      `burn()` function to succeed when called by token owner"
      },
      "FEATURE_PERMITS": {
        "details": "Feature FEATURE_PERMITS must be enabled in order for      `permit()` function to succeed"
      },
      "FEATURE_TRANSFERS": {
        "details": "Feature FEATURE_TRANSFERS must be enabled in order for      `transferFrom()` function to succeed when executed by token owner"
      },
      "FEATURE_TRANSFERS_ON_BEHALF": {
        "details": "Feature FEATURE_TRANSFERS_ON_BEHALF must be enabled in order for      `transferFrom()` function to succeed whe executed by approved operatorToken owner must call `approve()` or `setApprovalForAll()`      first to authorize the transfer on behalf"
      },
      "ROLE_TOKEN_CREATOR": {
        "details": "Role ROLE_TOKEN_CREATOR allows minting tokens      (calling `mint` function)"
      },
      "ROLE_TOKEN_DESTROYER": {
        "details": "Role ROLE_TOKEN_DESTROYER allows burning tokens      (calling `burn` function)"
      },
      "ROLE_URI_MANAGER": {
        "details": "Role ROLE_URI_MANAGER allows updating the base URI      (executing `setBaseURI` function)"
      },
      "_tokenURIs": {
        "details": "Optional mapping for token URIs to be returned as is when `tokenURI()`      is called; if mapping doesn't exist for token, the URI is constructed      as `base URI + token ID`, where plus (+) denotes string concatenation"
      },
      "allTokens": {
        "details": "We call this collection \"Global\" token collectionArray with all Token IDs, used for enumerationTotal token supply `tokenSupply` is the length of this collection:      `totalSupply() = allTokens.length`"
      },
      "approvals": {
        "details": "`Maps Token ID => Approved Address`, where      Approved Address is an address allowed transfer ownership for the token      defined by Token ID"
      },
      "approvedOperators": {
        "details": "Maps `Token Owner Address => Operator Address => Approval State` - true/false (approved/not), where      - Token Owner Address is any address which may own tokens or not,      - Operator Address is any other address which may own tokens or not,      - Approval State is a flag indicating if Operator Address is allowed to        transfer tokens owned by Token Owner Address o their behalf"
      },
      "baseURI": {
        "details": "Base URI is used to construct ERC721Metadata.tokenURI as      `base URI + token ID` if token URI is not set (not present in `_tokenURIs` mapping)For example, if base URI is https://api.com/token/, then token #1      will have an URI https://api.com/token/1If token URI is set with `setTokenURI()` it will be returned as is via `tokenURI()`"
      },
      "collections": {
        "details": "We call these collections \"Local\" token collectionsMaps `Token Owner Address => Owned Token IDs Array`Token owner balance is the length of their token collection:      `balanceOf(owner) = collections[owner].length`"
      },
      "decimals": {
        "details": "ERC20 compliant token decimals is equal to zero since ERC721 token is non-fungible      and therefore non-divisible"
      },
      "permitNonces": {
        "details": "A record of nonces for signing/validating signatures in EIP-712 based      `permit` and `permitForAll` functionsEach time the nonce is used, it is increased by one, meaning reordering      of the EIP-712 transactions is not possibleInspired by EIP-2612 extension for ERC20 token standardMaps token owner address => token owner nonce"
      },
      "tokens": {
        "details": "Maps `Token ID => Token ID Global Index | Token ID Local Index | Token Owner Address`, where      - Token ID Global Index denotes Token ID index in the array of all the tokens,      - Token ID Local Index denotes Token ID index in the array of all the tokens owned by the owner,      - Token ID indexes are 32 bits long,      - `|` denotes bitwise concatenation of the valuesToken Owner Address for a given Token ID is lower 160 bits of the mapping value"
      }
    },
    "title": "Tiny ERC721, a.k.a 32bit NFT",
    "version": 1
  },
  "userdoc": {
    "kind": "user",
    "methods": {
      "DOMAIN_SEPARATOR()": {
        "notice": "EIP-712 contract's domain separator,      see https://eips.ethereum.org/EIPS/eip-712#definition-of-domainseparator      note: we specify contract version in its name"
      },
      "DOMAIN_TYPEHASH()": {
        "notice": "EIP-712 contract's domain typeHash,      see https://eips.ethereum.org/EIPS/eip-712#rationale-for-typehash"
      },
      "FEATURE_BURNS_ON_BEHALF()": {
        "notice": "Enables approved operators to burn tokens on behalf of their owners"
      },
      "FEATURE_OPERATOR_PERMITS()": {
        "notice": "Enables operator approvals on behalf (permits for all via an EIP712 signature)"
      },
      "FEATURE_OWN_BURNS()": {
        "notice": "Enables token owners to burn their own tokens"
      },
      "FEATURE_PERMITS()": {
        "notice": "Enables approvals on behalf (permits via an EIP712 signature)"
      },
      "FEATURE_TRANSFERS()": {
        "notice": "Enables ERC721 transfers of the tokens      (transfer by the token owner himself)"
      },
      "FEATURE_TRANSFERS_ON_BEHALF()": {
        "notice": "Enables ERC721 transfers on behalf      (transfer by someone else on behalf of token owner)"
      },
      "PERMIT_FOR_ALL_TYPEHASH()": {
        "notice": "EIP-712 permitForAll (EIP-2612) struct typeHash,      see https://eips.ethereum.org/EIPS/eip-712#rationale-for-typehash"
      },
      "PERMIT_TYPEHASH()": {
        "notice": "EIP-712 permit (EIP-2612) struct typeHash,      see https://eips.ethereum.org/EIPS/eip-712#rationale-for-typehash"
      },
      "ROLE_ACCESS_MANAGER()": {
        "notice": "Access manager is responsible for assigning the roles to users,      enabling/disabling global features of the smart contractAccess manager can add, remove and update user roles,      remove and update global features"
      },
      "ROLE_TOKEN_CREATOR()": {
        "notice": "Token creator is responsible for creating (minting)      tokens to an arbitrary address"
      },
      "ROLE_TOKEN_DESTROYER()": {
        "notice": "Token destroyer is responsible for destroying (burning)      tokens owned by an arbitrary address"
      },
      "ROLE_UPGRADE_MANAGER()": {
        "notice": "Upgrade manager is responsible for smart contract upgrades,      see https://docs.openzeppelin.com/contracts/4.x/api/proxy#UUPSUpgradeable      see https://docs.openzeppelin.com/contracts/4.x/upgradeable"
      },
      "ROLE_URI_MANAGER()": {
        "notice": "URI manager is responsible for managing base URI      part of the token URI ERC721Metadata interface"
      },
      "approve(address,uint256)": {
        "notice": "Change or reaffirm the approved address for an NFT"
      },
      "balanceOf(address)": {
        "notice": "Count all NFTs assigned to an owner"
      },
      "decimals()": {
        "notice": "Current implementation includes a function `decimals` that returns uint8(0)      to be more compatible with ERC-20"
      },
      "exists(uint256)": {
        "notice": "Checks if specified token exists"
      },
      "features()": {
        "notice": "Retrieves globally set of features enabled"
      },
      "getApproved(uint256)": {
        "notice": "Get the approved address for a single NFT"
      },
      "getRole(address)": {
        "notice": "Reads the permissions (role) for a given user from the `userRoles` mapping      (privileged addresses with defined roles/permissions)In the context of ERC20/ERC721 tokens these can be permissions to      allow minting or burning tokens, transferring on behalf and so on"
      },
      "isApprovedForAll(address,address)": {
        "notice": "Query if an address is an authorized operator for another address"
      },
      "isFeatureEnabled(uint256)": {
        "notice": "Checks if requested set of features is enabled globally on the contract"
      },
      "isOperatorInRole(address,uint256)": {
        "notice": "Checks if operator has all the permissions (role) required"
      },
      "isSenderInRole(uint256)": {
        "notice": "Checks if transaction sender `msg.sender` has all the permissions required"
      },
      "name()": {
        "notice": "ERC-20 compatible descriptive name for a collection of NFTs in this contract"
      },
      "ownerOf(uint256)": {
        "notice": "Find the owner of an NFT"
      },
      "permit(address,address,uint256,uint256,uint8,bytes32,bytes32)": {
        "notice": "Change or reaffirm the approved address for an NFT on behalf"
      },
      "permitForAll(address,address,bool,uint256,uint8,bytes32,bytes32)": {
        "notice": "Enable or disable approval for a third party (\"operator\") to manage      all of owner's assets - on behalf"
      },
      "safeTransferFrom(address,address,uint256)": {
        "notice": "Transfers the ownership of an NFT from one address to another address"
      },
      "safeTransferFrom(address,address,uint256,bytes)": {
        "notice": "Transfers the ownership of an NFT from one address to another address"
      },
      "setApprovalForAll(address,bool)": {
        "notice": "Enable or disable approval for a third party (\"operator\") to manage  all of `msg.sender`'s assets"
      },
      "supportsInterface(bytes4)": {
        "notice": "Query if a contract implements an interface"
      },
      "symbol()": {
        "notice": "ERC-20 compatible abbreviated name for a collection of NFTs in this contract"
      },
      "tokenByIndex(uint256)": {
        "notice": "Enumerate valid NFTs"
      },
      "tokenOfOwnerByIndex(address,uint256)": {
        "notice": "Enumerate NFTs assigned to an owner"
      },
      "tokenURI(uint256)": {
        "notice": "A distinct Uniform Resource Identifier (URI) for a given asset."
      },
      "totalSupply()": {
        "notice": "Count NFTs tracked by this contract"
      },
      "transferFrom(address,address,uint256)": {
        "notice": "Transfer ownership of an NFT -- THE CALLER IS RESPONSIBLE  TO CONFIRM THAT `_to` IS CAPABLE OF RECEIVING NFTS OR ELSE  THEY MAY BE PERMANENTLY LOST"
      },
      "updateFeatures(uint256)": {
        "notice": "Updates set of the globally enabled features (`features`),      taking into account sender's permissions"
      },
      "updateRole(address,uint256)": {
        "notice": "Updates set of permissions (role) for a given user,      taking into account sender's permissions."
      }
    },
    "notice": "Tiny ERC721 defines an NFT with an integer (up to 32 bits) ID space.Rationale      Problem: ERC721 enumeration support requires some additional writes to the storage:      - when transferring a token in order to update the NFT collections of        the previous and next owners,      - when minting/burning a token in order to update global NFT collection      Solution: Reducing NFT ID space to 32 bits allows      - to eliminate the need to have and to write to two additional storage mappings        (also achievable with the 48 bits ID space)      - when batch minting, an optimization of writing 8 tokens at once into        global/local collections appliesThis smart contract can be used as is, but also can be inherited and used as a template.Fully ERC721-compatible with all optional interfaces implemented (metadata, enumeration),      see https://eips.ethereum.org/EIPS/eip-721",
    "version": 1
  },
  "storageLayout": {
    "storage": [
      {
        "astId": 303,
        "contract": "contracts/token/TinyERC721.sol:TinyERC721",
        "label": "_initialized",
        "offset": 0,
        "slot": "0",
        "type": "t_uint8"
      },
      {
        "astId": 306,
        "contract": "contracts/token/TinyERC721.sol:TinyERC721",
        "label": "_initializing",
        "offset": 1,
        "slot": "0",
        "type": "t_bool"
      },
      {
        "astId": 10,
        "contract": "contracts/token/TinyERC721.sol:TinyERC721",
        "label": "userRoles",
        "offset": 0,
        "slot": "1",
        "type": "t_mapping(t_address,t_uint256)"
      },
      {
        "astId": 15,
        "contract": "contracts/token/TinyERC721.sol:TinyERC721",
        "label": "__gap",
        "offset": 0,
        "slot": "2",
        "type": "t_array(t_uint256)49_storage"
      },
      {
        "astId": 1479,
        "contract": "contracts/token/TinyERC721.sol:TinyERC721",
        "label": "name",
        "offset": 0,
        "slot": "51",
        "type": "t_string_storage"
      },
      {
        "astId": 1483,
        "contract": "contracts/token/TinyERC721.sol:TinyERC721",
        "label": "symbol",
        "offset": 0,
        "slot": "52",
        "type": "t_string_storage"
      },
      {
        "astId": 1492,
        "contract": "contracts/token/TinyERC721.sol:TinyERC721",
        "label": "tokens",
        "offset": 0,
        "slot": "53",
        "type": "t_mapping(t_uint256,t_uint256)"
      },
      {
        "astId": 1498,
        "contract": "contracts/token/TinyERC721.sol:TinyERC721",
        "label": "collections",
        "offset": 0,
        "slot": "54",
        "type": "t_mapping(t_address,t_array(t_uint32)dyn_storage)"
      },
      {
        "astId": 1502,
        "contract": "contracts/token/TinyERC721.sol:TinyERC721",
        "label": "allTokens",
        "offset": 0,
        "slot": "55",
        "type": "t_array(t_uint32)dyn_storage"
      },
      {
        "astId": 1507,
        "contract": "contracts/token/TinyERC721.sol:TinyERC721",
        "label": "approvals",
        "offset": 0,
        "slot": "56",
        "type": "t_mapping(t_uint256,t_address)"
      },
      {
        "astId": 1514,
        "contract": "contracts/token/TinyERC721.sol:TinyERC721",
        "label": "approvedOperators",
        "offset": 0,
        "slot": "57",
        "type": "t_mapping(t_address,t_mapping(t_address,t_bool))"
      },
      {
        "astId": 1519,
        "contract": "contracts/token/TinyERC721.sol:TinyERC721",
        "label": "permitNonces",
        "offset": 0,
        "slot": "58",
        "type": "t_mapping(t_address,t_uint256)"
      },
      {
        "astId": 1524,
        "contract": "contracts/token/TinyERC721.sol:TinyERC721",
        "label": "baseURI",
        "offset": 0,
        "slot": "59",
        "type": "t_string_storage"
      },
      {
        "astId": 1529,
        "contract": "contracts/token/TinyERC721.sol:TinyERC721",
        "label": "_tokenURIs",
        "offset": 0,
        "slot": "60",
        "type": "t_mapping(t_uint256,t_string_storage)"
      }
    ],
    "types": {
      "t_address": {
        "encoding": "inplace",
        "label": "address",
        "numberOfBytes": "20"
      },
      "t_array(t_uint256)49_storage": {
        "base": "t_uint256",
        "encoding": "inplace",
        "label": "uint256[49]",
        "numberOfBytes": "1568"
      },
      "t_array(t_uint32)dyn_storage": {
        "base": "t_uint32",
        "encoding": "dynamic_array",
        "label": "uint32[]",
        "numberOfBytes": "32"
      },
      "t_bool": {
        "encoding": "inplace",
        "label": "bool",
        "numberOfBytes": "1"
      },
      "t_mapping(t_address,t_array(t_uint32)dyn_storage)": {
        "encoding": "mapping",
        "key": "t_address",
        "label": "mapping(address => uint32[])",
        "numberOfBytes": "32",
        "value": "t_array(t_uint32)dyn_storage"
      },
      "t_mapping(t_address,t_bool)": {
        "encoding": "mapping",
        "key": "t_address",
        "label": "mapping(address => bool)",
        "numberOfBytes": "32",
        "value": "t_bool"
      },
      "t_mapping(t_address,t_mapping(t_address,t_bool))": {
        "encoding": "mapping",
        "key": "t_address",
        "label": "mapping(address => mapping(address => bool))",
        "numberOfBytes": "32",
        "value": "t_mapping(t_address,t_bool)"
      },
      "t_mapping(t_address,t_uint256)": {
        "encoding": "mapping",
        "key": "t_address",
        "label": "mapping(address => uint256)",
        "numberOfBytes": "32",
        "value": "t_uint256"
      },
      "t_mapping(t_uint256,t_address)": {
        "encoding": "mapping",
        "key": "t_uint256",
        "label": "mapping(uint256 => address)",
        "numberOfBytes": "32",
        "value": "t_address"
      },
      "t_mapping(t_uint256,t_string_storage)": {
        "encoding": "mapping",
        "key": "t_uint256",
        "label": "mapping(uint256 => string)",
        "numberOfBytes": "32",
        "value": "t_string_storage"
      },
      "t_mapping(t_uint256,t_uint256)": {
        "encoding": "mapping",
        "key": "t_uint256",
        "label": "mapping(uint256 => uint256)",
        "numberOfBytes": "32",
        "value": "t_uint256"
      },
      "t_string_storage": {
        "encoding": "bytes",
        "label": "string",
        "numberOfBytes": "32"
      },
      "t_uint256": {
        "encoding": "inplace",
        "label": "uint256",
        "numberOfBytes": "32"
      },
      "t_uint32": {
        "encoding": "inplace",
        "label": "uint32",
        "numberOfBytes": "4"
      },
      "t_uint8": {
        "encoding": "inplace",
        "label": "uint8",
        "numberOfBytes": "1"
      }
    }
  }
}