{
  "address": "0x9ac197768D4bC204aD83CC8c9E564F6B66a98170",
  "abi": [
    {
      "inputs": [
        {
          "internalType": "address",
          "name": "_contractOwner",
          "type": "address"
        },
        {
          "internalType": "string",
          "name": "_name",
          "type": "string"
        },
        {
          "internalType": "string",
          "name": "_symbol",
          "type": "string"
        },
        {
          "internalType": "address",
          "name": "_initialHolder",
          "type": "address"
        },
        {
          "internalType": "uint256",
          "name": "_initialSupply",
          "type": "uint256"
        },
        {
          "internalType": "uint256",
          "name": "_initialFeatures",
          "type": "uint256"
        }
      ],
      "stateMutability": "nonpayable",
      "type": "constructor"
    },
    {
      "anonymous": false,
      "inputs": [
        {
          "indexed": true,
          "internalType": "address",
          "name": "owner",
          "type": "address"
        },
        {
          "indexed": true,
          "internalType": "address",
          "name": "spender",
          "type": "address"
        },
        {
          "indexed": false,
          "internalType": "uint256",
          "name": "oldValue",
          "type": "uint256"
        },
        {
          "indexed": false,
          "internalType": "uint256",
          "name": "value",
          "type": "uint256"
        }
      ],
      "name": "Approval",
      "type": "event"
    },
    {
      "anonymous": false,
      "inputs": [
        {
          "indexed": true,
          "internalType": "address",
          "name": "owner",
          "type": "address"
        },
        {
          "indexed": true,
          "internalType": "address",
          "name": "spender",
          "type": "address"
        },
        {
          "indexed": false,
          "internalType": "uint256",
          "name": "value",
          "type": "uint256"
        }
      ],
      "name": "Approval",
      "type": "event"
    },
    {
      "anonymous": false,
      "inputs": [
        {
          "indexed": true,
          "internalType": "address",
          "name": "authorizer",
          "type": "address"
        },
        {
          "indexed": true,
          "internalType": "bytes32",
          "name": "nonce",
          "type": "bytes32"
        }
      ],
      "name": "AuthorizationCanceled",
      "type": "event"
    },
    {
      "anonymous": false,
      "inputs": [
        {
          "indexed": true,
          "internalType": "address",
          "name": "authorizer",
          "type": "address"
        },
        {
          "indexed": true,
          "internalType": "bytes32",
          "name": "nonce",
          "type": "bytes32"
        }
      ],
      "name": "AuthorizationUsed",
      "type": "event"
    },
    {
      "anonymous": false,
      "inputs": [
        {
          "indexed": true,
          "internalType": "address",
          "name": "by",
          "type": "address"
        },
        {
          "indexed": true,
          "internalType": "address",
          "name": "from",
          "type": "address"
        },
        {
          "indexed": false,
          "internalType": "uint256",
          "name": "value",
          "type": "uint256"
        }
      ],
      "name": "Burnt",
      "type": "event"
    },
    {
      "anonymous": false,
      "inputs": [
        {
          "indexed": true,
          "internalType": "address",
          "name": "source",
          "type": "address"
        },
        {
          "indexed": true,
          "internalType": "address",
          "name": "from",
          "type": "address"
        },
        {
          "indexed": true,
          "internalType": "address",
          "name": "to",
          "type": "address"
        }
      ],
      "name": "DelegateChanged",
      "type": "event"
    },
    {
      "anonymous": false,
      "inputs": [
        {
          "indexed": false,
          "internalType": "uint8",
          "name": "version",
          "type": "uint8"
        }
      ],
      "name": "Initialized",
      "type": "event"
    },
    {
      "anonymous": false,
      "inputs": [
        {
          "indexed": true,
          "internalType": "address",
          "name": "by",
          "type": "address"
        },
        {
          "indexed": true,
          "internalType": "address",
          "name": "to",
          "type": "address"
        },
        {
          "indexed": false,
          "internalType": "uint256",
          "name": "value",
          "type": "uint256"
        }
      ],
      "name": "Minted",
      "type": "event"
    },
    {
      "anonymous": false,
      "inputs": [
        {
          "indexed": true,
          "internalType": "address",
          "name": "operator",
          "type": "address"
        },
        {
          "indexed": false,
          "internalType": "uint256",
          "name": "requested",
          "type": "uint256"
        },
        {
          "indexed": false,
          "internalType": "uint256",
          "name": "assigned",
          "type": "uint256"
        }
      ],
      "name": "RoleUpdated",
      "type": "event"
    },
    {
      "anonymous": false,
      "inputs": [
        {
          "indexed": true,
          "internalType": "address",
          "name": "by",
          "type": "address"
        },
        {
          "indexed": true,
          "internalType": "address",
          "name": "from",
          "type": "address"
        },
        {
          "indexed": true,
          "internalType": "address",
          "name": "to",
          "type": "address"
        },
        {
          "indexed": false,
          "internalType": "uint256",
          "name": "value",
          "type": "uint256"
        }
      ],
      "name": "Transfer",
      "type": "event"
    },
    {
      "anonymous": false,
      "inputs": [
        {
          "indexed": true,
          "internalType": "address",
          "name": "from",
          "type": "address"
        },
        {
          "indexed": true,
          "internalType": "address",
          "name": "to",
          "type": "address"
        },
        {
          "indexed": false,
          "internalType": "uint256",
          "name": "value",
          "type": "uint256"
        }
      ],
      "name": "Transfer",
      "type": "event"
    },
    {
      "anonymous": false,
      "inputs": [
        {
          "indexed": true,
          "internalType": "address",
          "name": "by",
          "type": "address"
        },
        {
          "indexed": true,
          "internalType": "address",
          "name": "target",
          "type": "address"
        },
        {
          "indexed": false,
          "internalType": "uint256",
          "name": "fromVal",
          "type": "uint256"
        },
        {
          "indexed": false,
          "internalType": "uint256",
          "name": "toVal",
          "type": "uint256"
        }
      ],
      "name": "VotingPowerChanged",
      "type": "event"
    },
    {
      "inputs": [],
      "name": "CANCEL_AUTHORIZATION_TYPEHASH",
      "outputs": [
        {
          "internalType": "bytes32",
          "name": "",
          "type": "bytes32"
        }
      ],
      "stateMutability": "view",
      "type": "function"
    },
    {
      "inputs": [],
      "name": "DELEGATION_TYPEHASH",
      "outputs": [
        {
          "internalType": "bytes32",
          "name": "",
          "type": "bytes32"
        }
      ],
      "stateMutability": "view",
      "type": "function"
    },
    {
      "inputs": [],
      "name": "DOMAIN_SEPARATOR",
      "outputs": [
        {
          "internalType": "bytes32",
          "name": "",
          "type": "bytes32"
        }
      ],
      "stateMutability": "view",
      "type": "function"
    },
    {
      "inputs": [],
      "name": "DOMAIN_TYPEHASH",
      "outputs": [
        {
          "internalType": "bytes32",
          "name": "",
          "type": "bytes32"
        }
      ],
      "stateMutability": "view",
      "type": "function"
    },
    {
      "inputs": [],
      "name": "FEATURE_BURNS_ON_BEHALF",
      "outputs": [
        {
          "internalType": "uint32",
          "name": "",
          "type": "uint32"
        }
      ],
      "stateMutability": "view",
      "type": "function"
    },
    {
      "inputs": [],
      "name": "FEATURE_DELEGATIONS",
      "outputs": [
        {
          "internalType": "uint32",
          "name": "",
          "type": "uint32"
        }
      ],
      "stateMutability": "view",
      "type": "function"
    },
    {
      "inputs": [],
      "name": "FEATURE_DELEGATIONS_ON_BEHALF",
      "outputs": [
        {
          "internalType": "uint32",
          "name": "",
          "type": "uint32"
        }
      ],
      "stateMutability": "view",
      "type": "function"
    },
    {
      "inputs": [],
      "name": "FEATURE_EIP2612_PERMITS",
      "outputs": [
        {
          "internalType": "uint32",
          "name": "",
          "type": "uint32"
        }
      ],
      "stateMutability": "view",
      "type": "function"
    },
    {
      "inputs": [],
      "name": "FEATURE_EIP3009_RECEPTIONS",
      "outputs": [
        {
          "internalType": "uint32",
          "name": "",
          "type": "uint32"
        }
      ],
      "stateMutability": "view",
      "type": "function"
    },
    {
      "inputs": [],
      "name": "FEATURE_EIP3009_TRANSFERS",
      "outputs": [
        {
          "internalType": "uint32",
          "name": "",
          "type": "uint32"
        }
      ],
      "stateMutability": "view",
      "type": "function"
    },
    {
      "inputs": [],
      "name": "FEATURE_ERC1363_APPROVALS",
      "outputs": [
        {
          "internalType": "uint32",
          "name": "",
          "type": "uint32"
        }
      ],
      "stateMutability": "view",
      "type": "function"
    },
    {
      "inputs": [],
      "name": "FEATURE_ERC1363_TRANSFERS",
      "outputs": [
        {
          "internalType": "uint32",
          "name": "",
          "type": "uint32"
        }
      ],
      "stateMutability": "view",
      "type": "function"
    },
    {
      "inputs": [],
      "name": "FEATURE_OWN_BURNS",
      "outputs": [
        {
          "internalType": "uint32",
          "name": "",
          "type": "uint32"
        }
      ],
      "stateMutability": "view",
      "type": "function"
    },
    {
      "inputs": [],
      "name": "FEATURE_TRANSFERS",
      "outputs": [
        {
          "internalType": "uint32",
          "name": "",
          "type": "uint32"
        }
      ],
      "stateMutability": "view",
      "type": "function"
    },
    {
      "inputs": [],
      "name": "FEATURE_TRANSFERS_ON_BEHALF",
      "outputs": [
        {
          "internalType": "uint32",
          "name": "",
          "type": "uint32"
        }
      ],
      "stateMutability": "view",
      "type": "function"
    },
    {
      "inputs": [],
      "name": "FEATURE_UNSAFE_TRANSFERS",
      "outputs": [
        {
          "internalType": "uint32",
          "name": "",
          "type": "uint32"
        }
      ],
      "stateMutability": "view",
      "type": "function"
    },
    {
      "inputs": [],
      "name": "PERMIT_TYPEHASH",
      "outputs": [
        {
          "internalType": "bytes32",
          "name": "",
          "type": "bytes32"
        }
      ],
      "stateMutability": "view",
      "type": "function"
    },
    {
      "inputs": [],
      "name": "RECEIVE_WITH_AUTHORIZATION_TYPEHASH",
      "outputs": [
        {
          "internalType": "bytes32",
          "name": "",
          "type": "bytes32"
        }
      ],
      "stateMutability": "view",
      "type": "function"
    },
    {
      "inputs": [],
      "name": "ROLE_ACCESS_MANAGER",
      "outputs": [
        {
          "internalType": "uint256",
          "name": "",
          "type": "uint256"
        }
      ],
      "stateMutability": "view",
      "type": "function"
    },
    {
      "inputs": [],
      "name": "ROLE_ERC20_RECEIVER",
      "outputs": [
        {
          "internalType": "uint32",
          "name": "",
          "type": "uint32"
        }
      ],
      "stateMutability": "view",
      "type": "function"
    },
    {
      "inputs": [],
      "name": "ROLE_ERC20_SENDER",
      "outputs": [
        {
          "internalType": "uint32",
          "name": "",
          "type": "uint32"
        }
      ],
      "stateMutability": "view",
      "type": "function"
    },
    {
      "inputs": [],
      "name": "ROLE_TOKEN_CREATOR",
      "outputs": [
        {
          "internalType": "uint32",
          "name": "",
          "type": "uint32"
        }
      ],
      "stateMutability": "view",
      "type": "function"
    },
    {
      "inputs": [],
      "name": "ROLE_TOKEN_DESTROYER",
      "outputs": [
        {
          "internalType": "uint32",
          "name": "",
          "type": "uint32"
        }
      ],
      "stateMutability": "view",
      "type": "function"
    },
    {
      "inputs": [],
      "name": "ROLE_UPGRADE_MANAGER",
      "outputs": [
        {
          "internalType": "uint256",
          "name": "",
          "type": "uint256"
        }
      ],
      "stateMutability": "view",
      "type": "function"
    },
    {
      "inputs": [],
      "name": "TRANSFER_WITH_AUTHORIZATION_TYPEHASH",
      "outputs": [
        {
          "internalType": "bytes32",
          "name": "",
          "type": "bytes32"
        }
      ],
      "stateMutability": "view",
      "type": "function"
    },
    {
      "inputs": [
        {
          "internalType": "address",
          "name": "_owner",
          "type": "address"
        },
        {
          "internalType": "address",
          "name": "_spender",
          "type": "address"
        }
      ],
      "name": "allowance",
      "outputs": [
        {
          "internalType": "uint256",
          "name": "remaining",
          "type": "uint256"
        }
      ],
      "stateMutability": "view",
      "type": "function"
    },
    {
      "inputs": [
        {
          "internalType": "address",
          "name": "_spender",
          "type": "address"
        },
        {
          "internalType": "uint256",
          "name": "_value",
          "type": "uint256"
        }
      ],
      "name": "approve",
      "outputs": [
        {
          "internalType": "bool",
          "name": "success",
          "type": "bool"
        }
      ],
      "stateMutability": "nonpayable",
      "type": "function"
    },
    {
      "inputs": [
        {
          "internalType": "address",
          "name": "_spender",
          "type": "address"
        },
        {
          "internalType": "uint256",
          "name": "_value",
          "type": "uint256"
        }
      ],
      "name": "approveAndCall",
      "outputs": [
        {
          "internalType": "bool",
          "name": "",
          "type": "bool"
        }
      ],
      "stateMutability": "nonpayable",
      "type": "function"
    },
    {
      "inputs": [
        {
          "internalType": "address",
          "name": "_spender",
          "type": "address"
        },
        {
          "internalType": "uint256",
          "name": "_value",
          "type": "uint256"
        },
        {
          "internalType": "bytes",
          "name": "_data",
          "type": "bytes"
        }
      ],
      "name": "approveAndCall",
      "outputs": [
        {
          "internalType": "bool",
          "name": "",
          "type": "bool"
        }
      ],
      "stateMutability": "nonpayable",
      "type": "function"
    },
    {
      "inputs": [
        {
          "internalType": "address",
          "name": "_authorizer",
          "type": "address"
        },
        {
          "internalType": "bytes32",
          "name": "_nonce",
          "type": "bytes32"
        }
      ],
      "name": "authorizationState",
      "outputs": [
        {
          "internalType": "bool",
          "name": "",
          "type": "bool"
        }
      ],
      "stateMutability": "view",
      "type": "function"
    },
    {
      "inputs": [
        {
          "internalType": "address",
          "name": "_owner",
          "type": "address"
        }
      ],
      "name": "balanceOf",
      "outputs": [
        {
          "internalType": "uint256",
          "name": "balance",
          "type": "uint256"
        }
      ],
      "stateMutability": "view",
      "type": "function"
    },
    {
      "inputs": [
        {
          "internalType": "address",
          "name": "_from",
          "type": "address"
        },
        {
          "internalType": "uint256",
          "name": "_value",
          "type": "uint256"
        }
      ],
      "name": "burn",
      "outputs": [
        {
          "internalType": "bool",
          "name": "success",
          "type": "bool"
        }
      ],
      "stateMutability": "nonpayable",
      "type": "function"
    },
    {
      "inputs": [
        {
          "internalType": "address",
          "name": "_authorizer",
          "type": "address"
        },
        {
          "internalType": "bytes32",
          "name": "_nonce",
          "type": "bytes32"
        },
        {
          "internalType": "uint8",
          "name": "v",
          "type": "uint8"
        },
        {
          "internalType": "bytes32",
          "name": "r",
          "type": "bytes32"
        },
        {
          "internalType": "bytes32",
          "name": "s",
          "type": "bytes32"
        }
      ],
      "name": "cancelAuthorization",
      "outputs": [],
      "stateMutability": "nonpayable",
      "type": "function"
    },
    {
      "inputs": [],
      "name": "decimals",
      "outputs": [
        {
          "internalType": "uint8",
          "name": "",
          "type": "uint8"
        }
      ],
      "stateMutability": "view",
      "type": "function"
    },
    {
      "inputs": [
        {
          "internalType": "address",
          "name": "_spender",
          "type": "address"
        },
        {
          "internalType": "uint256",
          "name": "_value",
          "type": "uint256"
        }
      ],
      "name": "decreaseAllowance",
      "outputs": [
        {
          "internalType": "bool",
          "name": "",
          "type": "bool"
        }
      ],
      "stateMutability": "nonpayable",
      "type": "function"
    },
    {
      "inputs": [
        {
          "internalType": "address",
          "name": "_to",
          "type": "address"
        }
      ],
      "name": "delegate",
      "outputs": [],
      "stateMutability": "nonpayable",
      "type": "function"
    },
    {
      "inputs": [
        {
          "internalType": "address",
          "name": "_to",
          "type": "address"
        },
        {
          "internalType": "bytes32",
          "name": "_nonce",
          "type": "bytes32"
        },
        {
          "internalType": "uint256",
          "name": "_exp",
          "type": "uint256"
        },
        {
          "internalType": "uint8",
          "name": "v",
          "type": "uint8"
        },
        {
          "internalType": "bytes32",
          "name": "r",
          "type": "bytes32"
        },
        {
          "internalType": "bytes32",
          "name": "s",
          "type": "bytes32"
        }
      ],
      "name": "delegateWithAuthorization",
      "outputs": [],
      "stateMutability": "nonpayable",
      "type": "function"
    },
    {
      "inputs": [],
      "name": "entireSupplyHistory",
      "outputs": [
        {
          "components": [
            {
              "internalType": "uint64",
              "name": "k",
              "type": "uint64"
            },
            {
              "internalType": "uint192",
              "name": "v",
              "type": "uint192"
            }
          ],
          "internalType": "struct AdvancedERC20.KV[]",
          "name": "",
          "type": "tuple[]"
        }
      ],
      "stateMutability": "view",
      "type": "function"
    },
    {
      "inputs": [],
      "name": "features",
      "outputs": [
        {
          "internalType": "uint256",
          "name": "",
          "type": "uint256"
        }
      ],
      "stateMutability": "view",
      "type": "function"
    },
    {
      "inputs": [],
      "name": "getInitializedVersion",
      "outputs": [
        {
          "internalType": "uint64",
          "name": "",
          "type": "uint64"
        }
      ],
      "stateMutability": "view",
      "type": "function"
    },
    {
      "inputs": [
        {
          "internalType": "address",
          "name": "operator",
          "type": "address"
        }
      ],
      "name": "getRole",
      "outputs": [
        {
          "internalType": "uint256",
          "name": "",
          "type": "uint256"
        }
      ],
      "stateMutability": "view",
      "type": "function"
    },
    {
      "inputs": [
        {
          "internalType": "address",
          "name": "_spender",
          "type": "address"
        },
        {
          "internalType": "uint256",
          "name": "_value",
          "type": "uint256"
        }
      ],
      "name": "increaseAllowance",
      "outputs": [
        {
          "internalType": "bool",
          "name": "",
          "type": "bool"
        }
      ],
      "stateMutability": "nonpayable",
      "type": "function"
    },
    {
      "inputs": [
        {
          "internalType": "uint256",
          "name": "required",
          "type": "uint256"
        }
      ],
      "name": "isFeatureEnabled",
      "outputs": [
        {
          "internalType": "bool",
          "name": "",
          "type": "bool"
        }
      ],
      "stateMutability": "view",
      "type": "function"
    },
    {
      "inputs": [
        {
          "internalType": "address",
          "name": "operator",
          "type": "address"
        },
        {
          "internalType": "uint256",
          "name": "required",
          "type": "uint256"
        }
      ],
      "name": "isOperatorInRole",
      "outputs": [
        {
          "internalType": "bool",
          "name": "",
          "type": "bool"
        }
      ],
      "stateMutability": "view",
      "type": "function"
    },
    {
      "inputs": [
        {
          "internalType": "uint256",
          "name": "required",
          "type": "uint256"
        }
      ],
      "name": "isSenderInRole",
      "outputs": [
        {
          "internalType": "bool",
          "name": "",
          "type": "bool"
        }
      ],
      "stateMutability": "view",
      "type": "function"
    },
    {
      "inputs": [
        {
          "internalType": "address",
          "name": "_to",
          "type": "address"
        },
        {
          "internalType": "uint256",
          "name": "_value",
          "type": "uint256"
        }
      ],
      "name": "mint",
      "outputs": [
        {
          "internalType": "bool",
          "name": "success",
          "type": "bool"
        }
      ],
      "stateMutability": "nonpayable",
      "type": "function"
    },
    {
      "inputs": [],
      "name": "name",
      "outputs": [
        {
          "internalType": "string",
          "name": "",
          "type": "string"
        }
      ],
      "stateMutability": "view",
      "type": "function"
    },
    {
      "inputs": [
        {
          "internalType": "address",
          "name": "",
          "type": "address"
        }
      ],
      "name": "nonces",
      "outputs": [
        {
          "internalType": "uint256",
          "name": "",
          "type": "uint256"
        }
      ],
      "stateMutability": "view",
      "type": "function"
    },
    {
      "inputs": [
        {
          "internalType": "address",
          "name": "_owner",
          "type": "address"
        },
        {
          "internalType": "address",
          "name": "_spender",
          "type": "address"
        },
        {
          "internalType": "uint256",
          "name": "_value",
          "type": "uint256"
        },
        {
          "internalType": "uint256",
          "name": "_exp",
          "type": "uint256"
        },
        {
          "internalType": "uint8",
          "name": "v",
          "type": "uint8"
        },
        {
          "internalType": "bytes32",
          "name": "r",
          "type": "bytes32"
        },
        {
          "internalType": "bytes32",
          "name": "s",
          "type": "bytes32"
        }
      ],
      "name": "permit",
      "outputs": [],
      "stateMutability": "nonpayable",
      "type": "function"
    },
    {
      "inputs": [
        {
          "internalType": "address",
          "name": "_contractOwner",
          "type": "address"
        },
        {
          "internalType": "string",
          "name": "_name",
          "type": "string"
        },
        {
          "internalType": "string",
          "name": "_symbol",
          "type": "string"
        },
        {
          "internalType": "address",
          "name": "_initialHolder",
          "type": "address"
        },
        {
          "internalType": "uint256",
          "name": "_initialSupply",
          "type": "uint256"
        },
        {
          "internalType": "uint256",
          "name": "_initialFeatures",
          "type": "uint256"
        }
      ],
      "name": "postConstruct",
      "outputs": [],
      "stateMutability": "nonpayable",
      "type": "function"
    },
    {
      "inputs": [
        {
          "internalType": "address",
          "name": "_from",
          "type": "address"
        },
        {
          "internalType": "address",
          "name": "_to",
          "type": "address"
        },
        {
          "internalType": "uint256",
          "name": "_value",
          "type": "uint256"
        },
        {
          "internalType": "uint256",
          "name": "_validAfter",
          "type": "uint256"
        },
        {
          "internalType": "uint256",
          "name": "_validBefore",
          "type": "uint256"
        },
        {
          "internalType": "bytes32",
          "name": "_nonce",
          "type": "bytes32"
        },
        {
          "internalType": "uint8",
          "name": "v",
          "type": "uint8"
        },
        {
          "internalType": "bytes32",
          "name": "r",
          "type": "bytes32"
        },
        {
          "internalType": "bytes32",
          "name": "s",
          "type": "bytes32"
        }
      ],
      "name": "receiveWithAuthorization",
      "outputs": [],
      "stateMutability": "nonpayable",
      "type": "function"
    },
    {
      "inputs": [
        {
          "internalType": "address",
          "name": "_from",
          "type": "address"
        },
        {
          "internalType": "address",
          "name": "_to",
          "type": "address"
        },
        {
          "internalType": "uint256",
          "name": "_value",
          "type": "uint256"
        },
        {
          "internalType": "bytes",
          "name": "_data",
          "type": "bytes"
        }
      ],
      "name": "safeTransferFrom",
      "outputs": [
        {
          "internalType": "bool",
          "name": "",
          "type": "bool"
        }
      ],
      "stateMutability": "nonpayable",
      "type": "function"
    },
    {
      "inputs": [
        {
          "internalType": "bytes4",
          "name": "interfaceId",
          "type": "bytes4"
        }
      ],
      "name": "supportsInterface",
      "outputs": [
        {
          "internalType": "bool",
          "name": "",
          "type": "bool"
        }
      ],
      "stateMutability": "pure",
      "type": "function"
    },
    {
      "inputs": [],
      "name": "symbol",
      "outputs": [
        {
          "internalType": "string",
          "name": "",
          "type": "string"
        }
      ],
      "stateMutability": "view",
      "type": "function"
    },
    {
      "inputs": [],
      "name": "totalSupply",
      "outputs": [
        {
          "internalType": "uint256",
          "name": "",
          "type": "uint256"
        }
      ],
      "stateMutability": "view",
      "type": "function"
    },
    {
      "inputs": [
        {
          "internalType": "uint256",
          "name": "_blockNum",
          "type": "uint256"
        }
      ],
      "name": "totalSupplyAt",
      "outputs": [
        {
          "internalType": "uint256",
          "name": "",
          "type": "uint256"
        }
      ],
      "stateMutability": "view",
      "type": "function"
    },
    {
      "inputs": [
        {
          "internalType": "uint256",
          "name": "",
          "type": "uint256"
        }
      ],
      "name": "totalSupplyHistory",
      "outputs": [
        {
          "internalType": "uint64",
          "name": "k",
          "type": "uint64"
        },
        {
          "internalType": "uint192",
          "name": "v",
          "type": "uint192"
        }
      ],
      "stateMutability": "view",
      "type": "function"
    },
    {
      "inputs": [],
      "name": "totalSupplyHistoryLength",
      "outputs": [
        {
          "internalType": "uint256",
          "name": "",
          "type": "uint256"
        }
      ],
      "stateMutability": "view",
      "type": "function"
    },
    {
      "inputs": [
        {
          "internalType": "address",
          "name": "_to",
          "type": "address"
        },
        {
          "internalType": "uint256",
          "name": "_value",
          "type": "uint256"
        }
      ],
      "name": "transfer",
      "outputs": [
        {
          "internalType": "bool",
          "name": "success",
          "type": "bool"
        }
      ],
      "stateMutability": "nonpayable",
      "type": "function"
    },
    {
      "inputs": [
        {
          "internalType": "address",
          "name": "_to",
          "type": "address"
        },
        {
          "internalType": "uint256",
          "name": "_value",
          "type": "uint256"
        }
      ],
      "name": "transferAndCall",
      "outputs": [
        {
          "internalType": "bool",
          "name": "",
          "type": "bool"
        }
      ],
      "stateMutability": "nonpayable",
      "type": "function"
    },
    {
      "inputs": [
        {
          "internalType": "address",
          "name": "_to",
          "type": "address"
        },
        {
          "internalType": "uint256",
          "name": "_value",
          "type": "uint256"
        },
        {
          "internalType": "bytes",
          "name": "_data",
          "type": "bytes"
        }
      ],
      "name": "transferAndCall",
      "outputs": [
        {
          "internalType": "bool",
          "name": "",
          "type": "bool"
        }
      ],
      "stateMutability": "nonpayable",
      "type": "function"
    },
    {
      "inputs": [
        {
          "internalType": "address",
          "name": "_from",
          "type": "address"
        },
        {
          "internalType": "address",
          "name": "_to",
          "type": "address"
        },
        {
          "internalType": "uint256",
          "name": "_value",
          "type": "uint256"
        }
      ],
      "name": "transferFrom",
      "outputs": [
        {
          "internalType": "bool",
          "name": "success",
          "type": "bool"
        }
      ],
      "stateMutability": "nonpayable",
      "type": "function"
    },
    {
      "inputs": [
        {
          "internalType": "address",
          "name": "_from",
          "type": "address"
        },
        {
          "internalType": "address",
          "name": "_to",
          "type": "address"
        },
        {
          "internalType": "uint256",
          "name": "_value",
          "type": "uint256"
        },
        {
          "internalType": "bytes",
          "name": "_data",
          "type": "bytes"
        }
      ],
      "name": "transferFromAndCall",
      "outputs": [
        {
          "internalType": "bool",
          "name": "",
          "type": "bool"
        }
      ],
      "stateMutability": "nonpayable",
      "type": "function"
    },
    {
      "inputs": [
        {
          "internalType": "address",
          "name": "_from",
          "type": "address"
        },
        {
          "internalType": "address",
          "name": "_to",
          "type": "address"
        },
        {
          "internalType": "uint256",
          "name": "_value",
          "type": "uint256"
        }
      ],
      "name": "transferFromAndCall",
      "outputs": [
        {
          "internalType": "bool",
          "name": "",
          "type": "bool"
        }
      ],
      "stateMutability": "nonpayable",
      "type": "function"
    },
    {
      "inputs": [
        {
          "internalType": "address",
          "name": "_from",
          "type": "address"
        },
        {
          "internalType": "address",
          "name": "_to",
          "type": "address"
        },
        {
          "internalType": "uint256",
          "name": "_value",
          "type": "uint256"
        },
        {
          "internalType": "uint256",
          "name": "_validAfter",
          "type": "uint256"
        },
        {
          "internalType": "uint256",
          "name": "_validBefore",
          "type": "uint256"
        },
        {
          "internalType": "bytes32",
          "name": "_nonce",
          "type": "bytes32"
        },
        {
          "internalType": "uint8",
          "name": "v",
          "type": "uint8"
        },
        {
          "internalType": "bytes32",
          "name": "r",
          "type": "bytes32"
        },
        {
          "internalType": "bytes32",
          "name": "s",
          "type": "bytes32"
        }
      ],
      "name": "transferWithAuthorization",
      "outputs": [],
      "stateMutability": "nonpayable",
      "type": "function"
    },
    {
      "inputs": [
        {
          "internalType": "address",
          "name": "_from",
          "type": "address"
        },
        {
          "internalType": "address",
          "name": "_to",
          "type": "address"
        },
        {
          "internalType": "uint256",
          "name": "_value",
          "type": "uint256"
        }
      ],
      "name": "unsafeTransferFrom",
      "outputs": [],
      "stateMutability": "nonpayable",
      "type": "function"
    },
    {
      "inputs": [
        {
          "internalType": "uint256",
          "name": "_mask",
          "type": "uint256"
        }
      ],
      "name": "updateFeatures",
      "outputs": [],
      "stateMutability": "nonpayable",
      "type": "function"
    },
    {
      "inputs": [
        {
          "internalType": "address",
          "name": "operator",
          "type": "address"
        },
        {
          "internalType": "uint256",
          "name": "role",
          "type": "uint256"
        }
      ],
      "name": "updateRole",
      "outputs": [],
      "stateMutability": "nonpayable",
      "type": "function"
    },
    {
      "inputs": [
        {
          "internalType": "address",
          "name": "",
          "type": "address"
        }
      ],
      "name": "votingDelegates",
      "outputs": [
        {
          "internalType": "address",
          "name": "",
          "type": "address"
        }
      ],
      "stateMutability": "view",
      "type": "function"
    },
    {
      "inputs": [
        {
          "internalType": "address",
          "name": "_of",
          "type": "address"
        },
        {
          "internalType": "uint256",
          "name": "_blockNum",
          "type": "uint256"
        }
      ],
      "name": "votingPowerAt",
      "outputs": [
        {
          "internalType": "uint256",
          "name": "",
          "type": "uint256"
        }
      ],
      "stateMutability": "view",
      "type": "function"
    },
    {
      "inputs": [
        {
          "internalType": "address",
          "name": "",
          "type": "address"
        },
        {
          "internalType": "uint256",
          "name": "",
          "type": "uint256"
        }
      ],
      "name": "votingPowerHistory",
      "outputs": [
        {
          "internalType": "uint64",
          "name": "k",
          "type": "uint64"
        },
        {
          "internalType": "uint192",
          "name": "v",
          "type": "uint192"
        }
      ],
      "stateMutability": "view",
      "type": "function"
    },
    {
      "inputs": [
        {
          "internalType": "address",
          "name": "_of",
          "type": "address"
        }
      ],
      "name": "votingPowerHistoryLength",
      "outputs": [
        {
          "internalType": "uint256",
          "name": "",
          "type": "uint256"
        }
      ],
      "stateMutability": "view",
      "type": "function"
    },
    {
      "inputs": [
        {
          "internalType": "address",
          "name": "_of",
          "type": "address"
        }
      ],
      "name": "votingPowerHistoryOf",
      "outputs": [
        {
          "components": [
            {
              "internalType": "uint64",
              "name": "k",
              "type": "uint64"
            },
            {
              "internalType": "uint192",
              "name": "v",
              "type": "uint192"
            }
          ],
          "internalType": "struct AdvancedERC20.KV[]",
          "name": "",
          "type": "tuple[]"
        }
      ],
      "stateMutability": "view",
      "type": "function"
    },
    {
      "inputs": [
        {
          "internalType": "address",
          "name": "_of",
          "type": "address"
        }
      ],
      "name": "votingPowerOf",
      "outputs": [
        {
          "internalType": "uint256",
          "name": "",
          "type": "uint256"
        }
      ],
      "stateMutability": "view",
      "type": "function"
    }
  ],
  "transactionHash": "0x2126bff82103959b1d0f6d159deeeba1031ef04007c3dcfcb0c0205a753ce7e0",
  "args": [
    "0x0000000000000000000000000000000000000000",
    "implementation contract, not for use",
    "N/A",
    "0x0000000000000000000000000000000000000000",
    0,
    0
  ],
  "numDeployments": 1,
  "solcInputHash": "3afe244246a1470cf9ec44c3e5f35825",
  "bytecode": "0x60806040523480156200001157600080fd5b5060405162004b1f38038062004b1f833981016040819052620000349162000bd2565b600054610100900460ff1615808015620000555750600054600160ff909116105b8062000085575062000072306200015460201b6200208f1760201c565b15801562000085575060005460ff166001145b620000dd5760405162461bcd60e51b815260206004820152602e602482015260008051602062004abf83398151915260448201526d191e481a5b9a5d1a585b1a5e995960921b60648201526084015b60405180910390fd5b6000805460ff19166001179055801562000101576000805461ff0019166101001790555b801562000137576000805461ff00191690556040516001815260008051602062004adf8339815191529060200160405180910390a15b506200014886868686868662000163565b50505050505062000d0f565b6001600160a01b03163b151590565b600054610100900460ff1615808015620001845750600054600160ff909116105b80620001b45750620001a1306200015460201b6200208f1760201c565b158015620001b4575060005460ff166001145b620002085760405162461bcd60e51b815260206004820152602e602482015260008051602062004abf83398151915260448201526d191e481a5b9a5d1a585b1a5e995960921b6064820152608401620000d4565b6000805460ff1916600117905580156200022c576000805461ff0019166101001790555b60008651116200027f5760405162461bcd60e51b815260206004820152601560248201527f746f6b656e206e616d65206973206e6f742073657400000000000000000000006044820152606401620000d4565b6000855111620002d25760405162461bcd60e51b815260206004820152601760248201527f746f6b656e2073796d626f6c206973206e6f74207365740000000000000000006044820152606401620000d4565b8551620002e790603390602089019062000a5c565b508451620002fd90603490602088019062000a5c565b508215806200031457506001600160a01b03841615155b620003705760405162461bcd60e51b815260206004820152602560248201527f5f696e697469616c486f6c646572206e6f742073657420287a65726f20616464604482015264726573732960d81b6064820152608401620000d4565b82156200038357620003838484620003eb565b6001600160a01b0387161515806200039a57508115155b15620003ac57620003ac878362000650565b8015620003e2576000805461ff00191690556040516001815260008051602062004adf8339815191529060200160405180910390a15b50505050505050565b6001600160a01b038216620004325760405162461bcd60e51b815260206004820152600c60248201526b7a65726f206164647265737360a01b6044820152606401620000d4565b60355481810111620004915760405162461bcd60e51b815260206004820152602160248201527f7a65726f2076616c7565206f722061726974686d65746963206f766572666c6f6044820152607760f81b6064820152608401620000d4565b6035546001600160c01b0390620004aa90839062000c71565b1115620004fa5760405162461bcd60e51b815260206004820152601f60248201527f746f74616c20737570706c79206f766572666c6f77202875696e7431393229006044820152606401620000d4565b80603560008282546200050e919062000c71565b90915550506001600160a01b038216600090815260366020526040812080548392906200053d90849062000c71565b909155506200055c905060396200209e620006dd60201b1783620006f2565b50506001600160a01b038083166000908152603760205260408120546200058892339291168462000899565b6040518181526001600160a01b0383169033907f9d228d69b5fdb8d273a2336f8fb8612d039631024ea9bf09c424a9503aa078f09060200160405180910390a36040518181526001600160a01b0383169060009033907fd1398bee19313d6bf672ccb116e51f4a1a947e91c757907f51fbb5b5e56c698f9060200160405180910390a46040518181526001600160a01b038316906000907fddf252ad1be2c89b69c2b068fc378daa952ba7f163c4a11628f55a4df523b3ef9060200160405180910390a35050565b600054610100900460ff16620006bd5760405162461bcd60e51b815260206004820152602b60248201527f496e697469616c697a61626c653a20636f6e7472616374206973206e6f74206960448201526a6e697469616c697a696e6760a81b6064820152608401620000d4565b620006cc8260001980620009f4565b620006d9308280620009f4565b5050565b6000620006eb828462000c71565b9392505050565b8254600090819015620007575784548590620007119060019062000c8c565b815481106200073057634e487b7160e01b600052603260045260246000fd5b6000918252602090912001546801000000000000000090046001600160c01b03166200075a565b60005b6001600160c01b031691506200077182848660201c565b855490915015801590620007ca5750845443908690620007949060019062000c8c565b81548110620007b357634e487b7160e01b600052603260045260246000fd5b6000918252602090912001546001600160401b0316145b156200083a57845481908690620007e49060019062000c8c565b815481106200080357634e487b7160e01b600052603260045260246000fd5b9060005260206000200160000160086101000a8154816001600160c01b0302191690836001600160c01b0316021790555062000891565b604080518082019091526001600160401b0343811682526001600160c01b0380841660208085019182528954600181018b5560008b8152919091209451915190921668010000000000000000029216919091179101555b935093915050565b816001600160a01b0316836001600160a01b03161480620008b8575080155b15620008c457620009ee565b6001600160a01b0383161562000959576001600160a01b03831660009081526038602090815260408220919081906200090b90849062000a4e901b620020aa1786620006f2565b91509150856001600160a01b0316876001600160a01b031660008051602062004aff83398151915284846040516200094d929190918252602082015260400190565b60405180910390a35050505b6001600160a01b03821615620009ee576001600160a01b0382166000908152603860209081526040822091908190620009a0908490620006dd901b6200209e1786620006f2565b91509150846001600160a01b0316876001600160a01b031660008051602062004aff8339815191528484604051620009e2929190918252602082015260400190565b60405180910390a35050505b50505050565b6001600160a01b03831660008181526001602090815260409182902084905581518581529081018490527fe9be537308880e0f56b7d7cfd7abf85f14c4934486d138f848b92a0cbaf659b4910160405180910390a2505050565b6000620006eb828462000c8c565b82805462000a6a9062000ca6565b90600052602060002090601f01602090048101928262000a8e576000855562000ad9565b82601f1062000aa957805160ff191683800117855562000ad9565b8280016001018555821562000ad9579182015b8281111562000ad957825182559160200191906001019062000abc565b5062000ae792915062000aeb565b5090565b5b8082111562000ae7576000815560010162000aec565b80516001600160a01b038116811462000b1a57600080fd5b919050565b600082601f83011262000b30578081fd5b81516001600160401b038082111562000b4d5762000b4d62000cf9565b604051601f8301601f19908116603f0116810190828211818310171562000b785762000b7862000cf9565b8160405283815260209250868385880101111562000b94578485fd5b8491505b8382101562000bb7578582018301518183018401529082019062000b98565b8382111562000bc857848385830101525b9695505050505050565b60008060008060008060c0878903121562000beb578182fd5b62000bf68762000b02565b60208801519096506001600160401b038082111562000c13578384fd5b62000c218a838b0162000b1f565b9650604089015191508082111562000c37578384fd5b5062000c4689828a0162000b1f565b94505062000c576060880162000b02565b92506080870151915060a087015190509295509295509295565b6000821982111562000c875762000c8762000ce3565b500190565b60008282101562000ca15762000ca162000ce3565b500390565b600181811c9082168062000cbb57607f821691505b6020821081141562000cdd57634e487b7160e01b600052602260045260246000fd5b50919050565b634e487b7160e01b600052601160045260246000fd5b634e487b7160e01b600052604160045260246000fd5b613da08062000d1f6000396000f3fe608060405234801561001057600080fd5b506004361061043e5760003560e01c80637fd491b011610236578063c0d6568d1161013b578063dd62ed3e116100c3578063e98f5ba711610087578063e98f5ba714610a48578063ef55bec614610a52578063f63c2f8214610a65578063f9cf927114610a6d578063fcc2c07814610a8057600080fd5b8063dd62ed3e14610992578063e3ee160e146109cb578063e62cac76146109de578063e7a324dc146109e8578063e94a010214610a0f57600080fd5b8063cae9ca511161010a578063cae9ca511461091f578063d505accf14610932578063d5bb7f6714610945578063d8fbe99414610958578063d91694871461096b57600080fd5b8063c0d6568d146108e7578063c1d34b89146108ef578063c5ff500c14610902578063c688d6931461090c57600080fd5b8063a457c2d7116101be578063ae682e2e1161018d578063ae682e2e14610899578063b3c65015146108a4578063b66dbdc5146108b9578063b88d4fde146108c1578063bcc3f3bd146108d457600080fd5b8063a457c2d714610855578063a9059cbb14610868578063ae5b102e1461087b578063ae60bda41461088e57600080fd5b806394f4f9301161020557806394f4f930146107ed57806395d89b4114610800578063981b24d0146108085780639dc29fac1461081b578063a0cc6a681461082e57600080fd5b80637fd491b01461079f57806387793f3e146107b25780638d4e57e6146107db5780638f6fba8c146107e557600080fd5b806339509351116103475780635c19a95c116102cf57806370a082311161029357806370a0823114610709578063725f3626146107325780637815ef0c146107455780637ecebe00146107585780637f2eecc31461077857600080fd5b80635c19a95c146106955780635e2dc2b7146106a857806364cb8b96146106b1578063653de620146106c65780636641d9a0146106cf57600080fd5b8063442767331161031657806344276733146106285780634721272d1461065157806350c29e371461065a57806359b961ef1461066f5780635a049a701461068257600080fd5b806339509351146105e75780633e9c5f7e146105fa5780634000aea01461060257806340c10f191461061557600080fd5b80631e0fa234116103ca5780632d4c39ea116103995780632d4c39ea1461058357806330adf81f1461058b578063313ce567146105b25780633177029f146105cc5780633644e515146105df57600080fd5b80631e0fa234146104f357806320606b701461053457806323b872dd1461055b5780632b5214161461056e57600080fd5b8063136d035f11610411578063136d035f146104a657806313873a24146104c457806318160ddd146104cc5780631993f554146104e35780631a0b04ea146104eb57600080fd5b806301ffc9a71461044357806306fdde031461046b578063095ea7b3146104805780631296ee6214610493575b600080fd5b610456610451366004613a17565b610a93565b60405190151581526020015b60405180910390f35b610473610b1b565b6040516104629190613bb3565b61045661048e36600461387d565b610ba9565b6104566104a136600461387d565b610bbf565b6104af61080081565b60405163ffffffff9091168152602001610462565b6104af608081565b6104d560355481565b604051908152602001610462565b6104af600481565b6104af600881565b61051c6105013660046136ab565b6037602052600090815260409020546001600160a01b031681565b6040516001600160a01b039091168152602001610462565b6104d57f8cad95687ba82c2ce50e74f7b754645e5117c3a5bec8151c0726d5857980a86681565b6104566105693660046136f7565b610bd3565b306000908152600160205260409020546104d5565b6104af604081565b6104d57f6e71edae12b1b97f4d1f60370fef10105fa2faae0126114a169c64845d6126c981565b6105ba601281565b60405160ff9091168152602001610462565b6104566105da36600461387d565b610c40565b6104d5610c5c565b6104566105f536600461387d565b610cf8565b6104af602081565b6104566106103660046139c3565b610da4565b61045661062336600461387d565b610db2565b6104d56106363660046136ab565b6001600160a01b031660009081526001602052604090205490565b6104af61020081565b61066d61066836600461394a565b610de6565b005b61066d61067d3660046136f7565b61105b565b61066d6106903660046138fd565b61106c565b61066d6106a33660046136ab565b611117565b6104af61040081565b6106b961117a565b6040516104629190613b16565b6104af61010081565b6106e26106dd366004613a4f565b6111f6565b604080516001600160401b0390931683526001600160c01b03909116602083015201610462565b6104d56107173660046136ab565b6001600160a01b031660009081526036602052604090205490565b610456610740366004613a4f565b611231565b6106b96107533660046136ab565b61124d565b6104d56107663660046136ab565b603a6020526000908152604090205481565b6104d57fd099cc98ef71107a616c4f0f941f04c322d8e254fe26b3c6668db87aae413de881565b6106e26107ad36600461387d565b6112df565b6104d56107c03660046136ab565b6001600160a01b031660009081526038602052604090205490565b6104af6201000081565b6104af600281565b6104d56107fb36600461387d565b611328565b610473611391565b6104d5610816366004613a4f565b61139e565b61045661082936600461387d565b6113f0565b6104d57f7c7c6cdb67a18743f49ec6fa9b35f50d52ed05cbed4cc592e13b44501c1a226781565b61045661086336600461387d565b611847565b61045661087636600461387d565b611924565b61066d61088936600461387d565b611931565b6104d5600160fe1b81565b6104d5600160ff1b81565b60005460405160ff9091168152602001610462565b6039546104d5565b6104566108cf366004613732565b6119ba565b6104d56108e23660046136ab565b6119e0565b6104af600181565b6104566108fd366004613732565b611a61565b6104af6204000081565b61045661091a36600461387d565b611ad2565b61045661092d3660046139c3565b611af4565b61066d610940366004613814565b611b63565b61066d610953366004613a4f565b611cb2565b6104566109663660046136f7565b611cbc565b6104d57f158b0a9edf7a828aad02f63cd515c68ef2f50ba807396f6d12842833a159742981565b6104d56109a03660046136c5565b6001600160a01b039182166000908152603c6020908152604080832093909416825291909152205490565b61066d6109d9366004613797565b611cd9565b6104af6202000081565b6104d57fff41620983935eb4d4a3c7384a066ca8c1d10cef9a5eca9eb97ca735cd14a75581565b610456610a1d36600461387d565b6001600160a01b03919091166000908152603b60209081526040808320938352929052205460ff1690565b6104af6208000081565b61066d610a60366004613797565b611e34565b6104af601081565b61066d610a7b3660046138a6565b611f93565b610456610a8e366004613a4f565b612083565b60006001600160e01b031982166301ffc9a760e01b1480610ac457506001600160e01b031982166336372b0760e01b145b80610adf57506001600160e01b0319821663b0202a1160e01b145b80610afa57506001600160e01b03198216634ec7fbed60e11b145b80610b1557506001600160e01b03198216635ffa99dd60e11b145b92915050565b60338054610b2890613c92565b80601f0160208091040260200160405190810160405280929190818152602001828054610b5490613c92565b8015610ba15780601f10610b7657610100808354040283529160200191610ba1565b820191906000526020600020905b815481529060010190602001808311610b8457829003601f168201915b505050505081565b6000610bb63384846120b6565b50600192915050565b6000610bcc338484611cbc565b9392505050565b6000610bdf6004611231565b80610bf25750610bf28362040000611ad2565b80610c045750610c0462080000612083565b15610c1957610c1484848461105b565b610c36565b610c34848484604051806020016040528060008152506119ba565b505b5060019392505050565b6000610bcc838360405180602001604052806000815250611af4565b604080518082018252600f81526e416476616e6365644552433230763160881b60209182015281517f8cad95687ba82c2ce50e74f7b754645e5117c3a5bec8151c0726d5857980a866818301527f65218aa0cdc6725da873801e9daf9d54f230d8a515289f76c8bd31dd8648c50d81840152466060820152306080808301919091528351808303909101815260a0909101909252815191012090565b336000908152603c602090815260408083206001600160a01b03861684529091528120548281018110610d8e5760405162461bcd60e51b815260206004820152603360248201527f7a65726f2076616c756520617070726f76616c20696e637265617365206f722060448201527261726974686d65746963206f766572666c6f7760681b60648201526084015b60405180910390fd5b610d9c8461048e8584613c43565b949350505050565b6000610d9c33858585611a61565b6000610dc062010000612083565b610ddc5760405162461bcd60e51b8152600401610d8590613bf1565b610bb683836121c7565b600054610100900460ff1615808015610e065750600054600160ff909116105b80610e205750303b158015610e20575060005460ff166001145b610e835760405162461bcd60e51b815260206004820152602e60248201527f496e697469616c697a61626c653a20636f6e747261637420697320616c72656160448201526d191e481a5b9a5d1a585b1a5e995960921b6064820152608401610d85565b6000805460ff191660011790558015610ea6576000805461ff0019166101001790555b6000865111610eef5760405162461bcd60e51b81526020600482015260156024820152741d1bdad95b881b985b59481a5cc81b9bdd081cd95d605a1b6044820152606401610d85565b6000855111610f405760405162461bcd60e51b815260206004820152601760248201527f746f6b656e2073796d626f6c206973206e6f74207365740000000000000000006044820152606401610d85565b8551610f5390603390602089019061355f565b508451610f6790603490602088019061355f565b50821580610f7d57506001600160a01b03841615155b610fd75760405162461bcd60e51b815260206004820152602560248201527f5f696e697469616c486f6c646572206e6f742073657420287a65726f20616464604482015264726573732960d81b6064820152608401610d85565b8215610fe757610fe784846121c7565b6001600160a01b038716151580610ffd57508115155b1561100c5761100c87836123ef565b8015611052576000805461ff0019169055604051600181527f7f26b83ff96e1f2b6a682f133852f6798a09c465da95921460cefb38474024989060200160405180910390a15b50505050505050565b61106733848484612472565b505050565b604080517f158b0a9edf7a828aad02f63cd515c68ef2f50ba807396f6d12842833a159742960208201526001600160a01b03871691810191909152606081018590526000906110d0906080015b6040516020818303038152906040528585856129fe565b9050856001600160a01b0316816001600160a01b0316146111035760405162461bcd60e51b8152600401610d8590613bc6565b61110f86866001612a63565b505050505050565b6111216020611231565b61116d5760405162461bcd60e51b815260206004820152601860248201527f64656c65676174696f6e73206172652064697361626c656400000000000000006044820152606401610d85565b6111773382612b71565b50565b60606039805480602002602001604051908101604052809291908181526020016000905b828210156111ed57600084815260209081902060408051808201909152908401546001600160401b0381168252600160401b90046001600160c01b03168183015282526001909201910161119e565b50505050905090565b6039818154811061120657600080fd5b6000918252602090912001546001600160401b0381169150600160401b90046001600160c01b031682565b30600090815260016020526040812054610b15905b8316831490565b6001600160a01b0381166000908152603860209081526040808320805482518185028101850190935280835260609492939192909184015b828210156112d457600084815260209081902060408051808201909152908401546001600160401b0381168252600160401b90046001600160c01b031681830152825260019092019101611285565b505050509050919050565b603860205281600052604060002081815481106112fb57600080fd5b6000918252602090912001546001600160401b0381169250600160401b90046001600160c01b0316905082565b600043821061136f5760405162461bcd60e51b8152602060048201526013602482015272189b1bd8dac81b9bdd081e595d081b5a5b9959606a1b6044820152606401610d85565b6001600160a01b0383166000908152603860205260409020610bcc9083612c0d565b60348054610b2890613c92565b60004382106113e55760405162461bcd60e51b8152602060048201526013602482015272189b1bd8dac81b9bdd081e595d081b5a5b9959606a1b6044820152606401610d85565b610b15603983612c0d565b60006113fe62020000612083565b611621576001600160a01b0383163314801561141f575061141f6008611231565b8061144357506001600160a01b038316331480159061144357506114436010611231565b6001600160a01b038416331461148e576040518060400160405280601c81526020017f6275726e73206f6e20626568616c66206172652064697361626c6564000000008152506114ba565b60405180604001604052806012815260200171189d5c9b9cc8185c9948191a5cd8589b195960721b8152505b906114d85760405162461bcd60e51b8152600401610d859190613bb3565b506001600160a01b0383163314611621576001600160a01b0383166000908152603c602090815260408083203384529091529020548281101561155d5760405162461bcd60e51b815260206004820152601d60248201527f6275726e20616d6f756e74206578636565647320616c6c6f77616e63650000006044820152606401610d85565b60001981101561161f576115718382613c7b565b6001600160a01b0385166000818152603c60209081526040808320338085529252909120839055919250907fb3fd5071835887567a0671151121894ddccc2842f1d10bedad13e0d17cace9a76115c78685613c43565b60408051918252602082018690520160405180910390a360405181815233906001600160a01b038616907f8c5be1e5ebec7d5bd14f71427d1e84f3dd0314c0f7b2291e5b200ac8c7c3b9259060200160405180910390a35b505b816116605760405162461bcd60e51b815260206004820152600f60248201526e3d32b937903b30b63ab290313ab93760891b6044820152606401610d85565b6001600160a01b0383166116b65760405162461bcd60e51b815260206004820152601a60248201527f6275726e2066726f6d20746865207a65726f20616464726573730000000000006044820152606401610d85565b6001600160a01b03831660009081526036602052604090205482111561171e5760405162461bcd60e51b815260206004820152601b60248201527f6275726e20616d6f756e7420657863656564732062616c616e636500000000006044820152606401610d85565b6001600160a01b03831660009081526036602052604081208054849290611746908490613c7b565b92505081905550816035600082825461175f9190613c7b565b90915550611773905060396120aa84612e34565b50506001600160a01b0380841660009081526037602052604081205461179e92339291169085612fc5565b6040518281526001600160a01b0384169033907fe8a89cc6e5096f9d9f43de82c077c1f4cfe707c0e0c2032176c68813b9ae6a5c9060200160405180910390a36040518281526000906001600160a01b038516903390600080516020613d2b8339815191529060200160405180910390a46040518281526000906001600160a01b03851690600080516020613d4b8339815191529060200160405180910390a350600192915050565b336000908152603c602090815260408083206001600160a01b0386168452909152812054826118b85760405162461bcd60e51b815260206004820152601c60248201527f7a65726f2076616c756520617070726f76616c206465637265617365000000006044820152606401610d85565b828110156119165760405162461bcd60e51b815260206004820152602560248201527f45524332303a2064656372656173656420616c6c6f77616e63652062656c6f77604482015264207a65726f60d81b6064820152608401610d85565b610d9c8461048e8584613c7b565b6000610bcc338484610bd3565b61193e600160ff1b612083565b61195a5760405162461bcd60e51b8152600401610d8590613bf1565b6119b682826119b133611982876001600160a01b031660009081526001602052604090205490565b6001600160a01b0391909116600090815260016020526040902054600019808818821618908716919091171690565b61311a565b5050565b60006119c785858561105b565b6119d5858585856001613174565b506001949350505050565b6001600160a01b0381166000908152603860205260408120805415611a4e5780548190611a0f90600190613c7b565b81548110611a2d57634e487b7160e01b600052603260045260246000fd5b600091825260209091200154600160401b90046001600160c01b0316611a51565b60005b6001600160c01b03169392505050565b6000611a6d6080611231565b611ab95760405162461bcd60e51b815260206004820152601e60248201527f45524331333633207472616e7366657273206172652064697361626c656400006044820152606401610d85565b611ac485858561105b565b6119d5858585856000613174565b6001600160a01b038216600090815260016020526040812054610bcc90611246565b6000611b01610100611231565b611b4d5760405162461bcd60e51b815260206004820152601e60248201527f4552433133363320617070726f76616c73206172652064697361626c656400006044820152606401610d85565b611b578484610ba9565b50610c368484846132c1565b611b6e610200611231565b611bba5760405162461bcd60e51b815260206004820152601c60248201527f45495032363132207065726d697473206172652064697361626c6564000000006044820152606401610d85565b6001600160a01b0387166000908152603a602052604081208054611c4b917f6e71edae12b1b97f4d1f60370fef10105fa2faae0126114a169c64845d6126c9918b918b918b9187611c0a83613ccd565b909155506040805160208101969096526001600160a01b0394851690860152929091166060840152608083015260a082015260c0810187905260e0016110b9565b9050876001600160a01b0316816001600160a01b031614611c7e5760405162461bcd60e51b8152600401610d8590613bc6565b844210611c9d5760405162461bcd60e51b8152600401610d8590613c18565b611ca88888886120b6565b5050505050505050565b6111773082611931565b6000610d9c84848460405180602001604052806000815250611a61565b611ce4610400611231565b611d305760405162461bcd60e51b815260206004820152601e60248201527f45495033303039207472616e7366657273206172652064697361626c656400006044820152606401610d85565b6000611d757f7c7c6cdb67a18743f49ec6fa9b35f50d52ed05cbed4cc592e13b44501c1a226760001b8b8b8b8b8b8b6040516020016110b99796959493929190613b77565b9050896001600160a01b0316816001600160a01b031614611da85760405162461bcd60e51b8152600401610d8590613bc6565b864211611df15760405162461bcd60e51b81526020600482015260176024820152761cda59db985d1d5c99481b9bdd081e595d081d985b1a59604a1b6044820152606401610d85565b854210611e105760405162461bcd60e51b8152600401610d8590613c18565b611e1c8a866000612a63565b611e28818b8b8b612472565b50505050505050505050565b611e3f610800611231565b611e8b5760405162461bcd60e51b815260206004820152601f60248201527f4549503330303920726563657074696f6e73206172652064697361626c6564006044820152606401610d85565b6000611ed07fd099cc98ef71107a616c4f0f941f04c322d8e254fe26b3c6668db87aae413de860001b8b8b8b8b8b8b6040516020016110b99796959493929190613b77565b9050896001600160a01b0316816001600160a01b031614611f035760405162461bcd60e51b8152600401610d8590613bc6565b864211611f4c5760405162461bcd60e51b81526020600482015260176024820152761cda59db985d1d5c99481b9bdd081e595d081d985b1a59604a1b6044820152606401610d85565b854210611f6b5760405162461bcd60e51b8152600401610d8590613c18565b6001600160a01b0389163314611e105760405162461bcd60e51b8152600401610d8590613bf1565b611f9d6040611231565b611ff45760405162461bcd60e51b815260206004820152602260248201527f64656c65676174696f6e73206f6e20626568616c66206172652064697361626c604482015261195960f21b6064820152608401610d85565b604080517fff41620983935eb4d4a3c7384a066ca8c1d10cef9a5eca9eb97ca735cd14a75560208201526001600160a01b03881691810191909152606081018690526080810185905260009061204c9060a0016110b9565b905084421061206d5760405162461bcd60e51b8152600401610d8590613c18565b61207981876000612a63565b6110528188612b71565b6000610b153383611ad2565b6001600160a01b03163b151590565b6000610bcc8284613c43565b6000610bcc8284613c7b565b6001600160a01b03821661210c5760405162461bcd60e51b815260206004820152601b60248201527f617070726f766520746f20746865207a65726f206164647265737300000000006044820152606401610d85565b6001600160a01b038381166000818152603c602090815260408083209487168084529482529182902080549086905582518181529182018690529392917fb3fd5071835887567a0671151121894ddccc2842f1d10bedad13e0d17cace9a7910160405180910390a3826001600160a01b0316846001600160a01b03167f8c5be1e5ebec7d5bd14f71427d1e84f3dd0314c0f7b2291e5b200ac8c7c3b925846040516121b991815260200190565b60405180910390a350505050565b6001600160a01b03821661220c5760405162461bcd60e51b815260206004820152600c60248201526b7a65726f206164647265737360a01b6044820152606401610d85565b603554818101116122695760405162461bcd60e51b815260206004820152602160248201527f7a65726f2076616c7565206f722061726974686d65746963206f766572666c6f6044820152607760f81b6064820152608401610d85565b6035546001600160c01b0390612280908390613c43565b11156122ce5760405162461bcd60e51b815260206004820152601f60248201527f746f74616c20737570706c79206f766572666c6f77202875696e7431393229006044820152606401610d85565b80603560008282546122e09190613c43565b90915550506001600160a01b0382166000908152603660205260408120805483929061230d908490613c43565b909155506123219050603961209e83612e34565b50506001600160a01b0380831660009081526037602052604081205461234b923392911684612fc5565b6040518181526001600160a01b0383169033907f9d228d69b5fdb8d273a2336f8fb8612d039631024ea9bf09c424a9503aa078f09060200160405180910390a36040518181526001600160a01b038316906000903390600080516020613d2b8339815191529060200160405180910390a46040518181526001600160a01b03831690600090600080516020613d4b8339815191529060200160405180910390a35050565b600054610100900460ff1661245a5760405162461bcd60e51b815260206004820152602b60248201527f496e697469616c697a61626c653a20636f6e7472616374206973206e6f74206960448201526a6e697469616c697a696e6760a81b6064820152608401610d85565b612467826000198061311a565b6119b630828361311a565b836001600160a01b0316836001600160a01b031614801561249857506124986001611231565b806124c55750836001600160a01b0316836001600160a01b0316141580156124c557506124c56002611231565b846001600160a01b0316846001600160a01b031614612519576040518060400160405280602081526020017f7472616e7366657273206f6e20626568616c66206172652064697361626c6564815250612549565b604051806040016040528060168152602001751d1c985b9cd9995c9cc8185c9948191a5cd8589b195960521b8152505b906125675760405162461bcd60e51b8152600401610d859190613bb3565b506001600160a01b0383166125be5760405162461bcd60e51b815260206004820152601e60248201527f7472616e736665722066726f6d20746865207a65726f206164647265737300006044820152606401610d85565b6001600160a01b0382166126145760405162461bcd60e51b815260206004820152601c60248201527f7472616e7366657220746f20746865207a65726f2061646472657373000000006044820152606401610d85565b6001600160a01b0382163014156126935760405162461bcd60e51b815260206004820152603f60248201527f696e76616c696420726563697069656e7420287472616e7366657220746f207460448201527f686520746f6b656e20736d61727420636f6e747261637420697473656c6629006064820152608401610d85565b8061271d57816001600160a01b0316836001600160a01b0316856001600160a01b0316600080516020613d2b833981519152846040516126d591815260200190565b60405180910390a4816001600160a01b0316836001600160a01b0316600080516020613d4b8339815191528360405161271091815260200190565b60405180910390a36129f8565b836001600160a01b0316836001600160a01b03161461288b576001600160a01b038084166000908152603c6020908152604080832093881683529290522054818110156127b65760405162461bcd60e51b815260206004820152602160248201527f7472616e7366657220616d6f756e74206578636565647320616c6c6f77616e636044820152606560f81b6064820152608401610d85565b600019811015612889576127ca8282613c7b565b6001600160a01b038086166000818152603c60209081526040808320948b16808452949091529020839055919250907fb3fd5071835887567a0671151121894ddccc2842f1d10bedad13e0d17cace9a76128248585613c43565b60408051918252602082018690520160405180910390a3846001600160a01b0316846001600160a01b03167f8c5be1e5ebec7d5bd14f71427d1e84f3dd0314c0f7b2291e5b200ac8c7c3b9258360405161288091815260200190565b60405180910390a35b505b6001600160a01b0383166000908152603660205260409020548111156128f35760405162461bcd60e51b815260206004820152601f60248201527f7472616e7366657220616d6f756e7420657863656564732062616c616e6365006044820152606401610d85565b6001600160a01b0383166000908152603660205260408120805483929061291b908490613c7b565b90915550506001600160a01b03821660009081526036602052604081208054839290612948908490613c43565b90915550506001600160a01b038084166000908152603760205260408082205485841683529120546129809287928116911684612fc5565b816001600160a01b0316836001600160a01b0316856001600160a01b0316600080516020613d2b833981519152846040516129bd91815260200190565b60405180910390a4816001600160a01b0316836001600160a01b0316600080516020613d4b833981519152836040516121b991815260200190565b50505050565b8351602085012060009081612a11610c5c565b60405161190160f01b60208201526022810191909152604281018390526062016040516020818303038152906040528051906020012090506000612a57828888886133fc565b98975050505050505050565b6001600160a01b0383166000908152603b6020908152604080832085845290915290205460ff1615612ac75760405162461bcd60e51b815260206004820152600d60248201526c696e76616c6964206e6f6e636560981b6044820152606401610d85565b6001600160a01b0383166000908152603b602090815260408083208584529091529020805460ff191660011790558015612b365760405182906001600160a01b038516907f1cdd46ff242716cdaa72d159d339a485b3438398348d68f09d7c8c0a59353d8190600090a3505050565b60405182906001600160a01b038516907f98de503528ee59b575ef0c0a2576a82497bfc029a5685b209e9ec333479b10a590600090a3505050565b6001600160a01b0380831660009081526037602081815260408084208054603684529190942054929091528484166001600160a01b0319821617909255911690612bbd84838584612fc5565b826001600160a01b0316826001600160a01b0316856001600160a01b03167f3134e8a2e6d97e929a7e54011ea5485d7d196dd5f0ba4d4ef95803e8e3fc257f60405160405180910390a450505050565b8154600090612c1e57506000610b15565b825482908490612c3090600190613c7b565b81548110612c4e57634e487b7160e01b600052603260045260246000fd5b6000918252602090912001546001600160401b031611612cb95782548390612c7890600190613c7b565b81548110612c9657634e487b7160e01b600052603260045260246000fd5b600091825260209091200154600160401b90046001600160c01b03169050610b15565b8183600081548110612cdb57634e487b7160e01b600052603260045260246000fd5b6000918252602090912001546001600160401b03161115612cfe57506000610b15565b82546000908190612d1190600190613c7b565b90505b81811115612def5760006002612d2a8484613c7b565b612d349190613c5b565b612d3e9083613c7b565b90506000868281548110612d6257634e487b7160e01b600052603260045260246000fd5b6000918252602091829020604080518082019091529101546001600160401b038116808352600160401b9091046001600160c01b0316928201929092529150861415612dc057602001516001600160c01b03169350610b1592505050565b80516001600160401b0316861115612dda57819350612de8565b612de5600183613c7b565b92505b5050612d14565b848281548110612e0f57634e487b7160e01b600052603260045260246000fd5b600091825260209091200154600160401b90046001600160c01b031695945050505050565b8254600090819015612e8f5784548590612e5090600190613c7b565b81548110612e6e57634e487b7160e01b600052603260045260246000fd5b600091825260209091200154600160401b90046001600160c01b0316612e92565b60005b6001600160c01b03169150612eab82848663ffffffff16565b855490915015801590612f005750845443908690612ecb90600190613c7b565b81548110612ee957634e487b7160e01b600052603260045260246000fd5b6000918252602090912001546001600160401b0316145b15612f6b57845481908690612f1790600190613c7b565b81548110612f3557634e487b7160e01b600052603260045260246000fd5b9060005260206000200160000160086101000a8154816001600160c01b0302191690836001600160c01b03160217905550612fbd565b604080518082019091526001600160401b0343811682526001600160c01b0380841660208085019182528954600181018b5560008b81529190912094519151909216600160401b029216919091179101555b935093915050565b816001600160a01b0316836001600160a01b03161480612fe3575080155b15612fed576129f8565b6001600160a01b03831615613081576001600160a01b03831660009081526038602052604081209080613023836120aa86612e34565b91509150856001600160a01b0316876001600160a01b03167fd1404f22081753a56b50e0d5ff5c9ed0e4a3a840e1171a443721a342e71bb5c18484604051613075929190918252602082015260400190565b60405180910390a35050505b6001600160a01b038216156129f8576001600160a01b038216600090815260386020526040812090806130b78361209e86612e34565b91509150846001600160a01b0316876001600160a01b03167fd1404f22081753a56b50e0d5ff5c9ed0e4a3a840e1171a443721a342e71bb5c18484604051613109929190918252602082015260400190565b60405180910390a350505050505050565b6001600160a01b03831660008181526001602090815260409182902084905581518581529081018490527fe9be537308880e0f56b7d7cfd7abf85f14c4934486d138f848b92a0cbaf659b4910160405180910390a2505050565b6001600160a01b0384163b6131c557806131c05760405162461bcd60e51b815260206004820152600d60248201526c1153d0481c9958da5c1a595b9d609a1b6044820152606401610d85565b6132ba565b604051632229f29760e21b81526000906001600160a01b038616906388a7ca5c906131fa9033908a9089908990600401613ab2565b602060405180830381600087803b15801561321457600080fd5b505af1158015613228573d6000803e3d6000fd5b505050506040513d601f19601f8201168201806040525081019061324c9190613a33565b90506001600160e01b03198116632229f29760e21b1461110f5760405162461bcd60e51b815260206004820152602360248201527f696e76616c6964206f6e5472616e73666572526563656976656420726573706f6044820152626e736560e81b6064820152608401610d85565b5050505050565b6000836001600160a01b03163b116133095760405162461bcd60e51b815260206004820152600b60248201526a22a7a09039b832b73232b960a91b6044820152606401610d85565b6040516307b04a2d60e41b81526000906001600160a01b03851690637b04a2d09061333c90339087908790600401613aef565b602060405180830381600087803b15801561335657600080fd5b505af115801561336a573d6000803e3d6000fd5b505050506040513d601f19601f8201168201806040525081019061338e9190613a33565b90506001600160e01b031981166307b04a2d60e41b146129f85760405162461bcd60e51b815260206004820152602360248201527f696e76616c6964206f6e417070726f76616c526563656976656420726573706f6044820152626e736560e81b6064820152608401610d85565b60007f7fffffffffffffffffffffffffffffff5d576e7357a4501ddfe92f46681b20a082111561346e5760405162461bcd60e51b815260206004820152601b60248201527f696e76616c6964207369676e6174757265202773272076616c756500000000006044820152606401610d85565b8360ff16601b148061348357508360ff16601c145b6134cf5760405162461bcd60e51b815260206004820152601b60248201527f696e76616c6964207369676e6174757265202776272076616c756500000000006044820152606401610d85565b6040805160008082526020820180845288905260ff871692820192909252606081018590526080810184905260019060a0016020604051602081039080840390855afa158015613523573d6000803e3d6000fd5b5050604051601f1901519150506001600160a01b0381166135565760405162461bcd60e51b8152600401610d8590613bc6565b95945050505050565b82805461356b90613c92565b90600052602060002090601f01602090048101928261358d57600085556135d3565b82601f106135a657805160ff19168380011785556135d3565b828001600101855582156135d3579182015b828111156135d35782518255916020019190600101906135b8565b506135df9291506135e3565b5090565b5b808211156135df57600081556001016135e4565b80356001600160a01b038116811461360f57600080fd5b919050565b600082601f830112613624578081fd5b81356001600160401b038082111561363e5761363e613cfe565b604051601f8301601f19908116603f0116810190828211818310171561366657613666613cfe565b8160405283815286602085880101111561367e578485fd5b8360208701602083013792830160200193909352509392505050565b803560ff8116811461360f57600080fd5b6000602082840312156136bc578081fd5b610bcc826135f8565b600080604083850312156136d7578081fd5b6136e0836135f8565b91506136ee602084016135f8565b90509250929050565b60008060006060848603121561370b578081fd5b613714846135f8565b9250613722602085016135f8565b9150604084013590509250925092565b60008060008060808587031215613747578081fd5b613750856135f8565b935061375e602086016135f8565b92506040850135915060608501356001600160401b0381111561377f578182fd5b61378b87828801613614565b91505092959194509250565b60008060008060008060008060006101208a8c0312156137b5578485fd5b6137be8a6135f8565b98506137cc60208b016135f8565b975060408a0135965060608a0135955060808a0135945060a08a013593506137f660c08b0161369a565b925060e08a013591506101008a013590509295985092959850929598565b600080600080600080600060e0888a03121561382e578283fd5b613837886135f8565b9650613845602089016135f8565b955060408801359450606088013593506138616080890161369a565b925060a0880135915060c0880135905092959891949750929550565b6000806040838503121561388f578182fd5b613898836135f8565b946020939093013593505050565b60008060008060008060c087890312156138be578182fd5b6138c7876135f8565b955060208701359450604087013593506138e36060880161369a565b92506080870135915060a087013590509295509295509295565b600080600080600060a08688031215613914578283fd5b61391d866135f8565b9450602086013593506139326040870161369a565b94979396509394606081013594506080013592915050565b60008060008060008060c08789031215613962578384fd5b61396b876135f8565b955060208701356001600160401b0380821115613986578586fd5b6139928a838b01613614565b965060408901359150808211156139a7578586fd5b506139b489828a01613614565b9450506138e3606088016135f8565b6000806000606084860312156139d7578081fd5b6139e0846135f8565b92506020840135915060408401356001600160401b03811115613a01578182fd5b613a0d86828701613614565b9150509250925092565b600060208284031215613a28578081fd5b8135610bcc81613d14565b600060208284031215613a44578081fd5b8151610bcc81613d14565b600060208284031215613a60578081fd5b5035919050565b60008151808452815b81811015613a8c57602081850181015186830182015201613a70565b81811115613a9d5782602083870101525b50601f01601f19169290920160200192915050565b6001600160a01b0385811682528416602082015260408101839052608060608201819052600090613ae590830184613a67565b9695505050505050565b60018060a01b03841681528260208201526060604082015260006135566060830184613a67565b602080825282518282018190526000919060409081850190868401855b82811015613b6a57815180516001600160401b031685528601516001600160c01b0316868501529284019290850190600101613b33565b5091979650505050505050565b9687526001600160a01b0395861660208801529390941660408601526060850191909152608084015260a083019190915260c082015260e00190565b602081526000610bcc6020830184613a67565b602080825260119082015270696e76616c6964207369676e617475726560781b604082015260600190565b6020808252600d908201526c1858d8d95cdcc819195b9a5959609a1b604082015260600190565b6020808252601190820152701cda59db985d1d5c9948195e1c1a5c9959607a1b604082015260600190565b60008219821115613c5657613c56613ce8565b500190565b600082613c7657634e487b7160e01b81526012600452602481fd5b500490565b600082821015613c8d57613c8d613ce8565b500390565b600181811c90821680613ca657607f821691505b60208210811415613cc757634e487b7160e01b600052602260045260246000fd5b50919050565b6000600019821415613ce157613ce1613ce8565b5060010190565b634e487b7160e01b600052601160045260246000fd5b634e487b7160e01b600052604160045260246000fd5b6001600160e01b03198116811461117757600080fdfed1398bee19313d6bf672ccb116e51f4a1a947e91c757907f51fbb5b5e56c698fddf252ad1be2c89b69c2b068fc378daa952ba7f163c4a11628f55a4df523b3efa2646970667358221220618e2186c1b8ec413af92e1b6b0085ad655f43ef3827df2c7902d19bb7aee31e64736f6c63430008040033496e697469616c697a61626c653a20636f6e747261637420697320616c7265617f26b83ff96e1f2b6a682f133852f6798a09c465da95921460cefb3847402498d1404f22081753a56b50e0d5ff5c9ed0e4a3a840e1171a443721a342e71bb5c1",
  "devdoc": {
    "author": "Basil Gorin",
    "details": "Even though smart contract has mint() function which is used to mint initial token supply,      the function is disabled forever after smart contract deployment by revoking `TOKEN_CREATOR`      permission from the deployer accountToken balances and total supply are effectively 192 bits long, meaning that maximum      possible total supply smart contract is able to track is 2^192 (close to 10^40 tokens)Smart contract doesn't use safe math. All arithmetic operations are overflow/underflow safe.      Additionally, Solidity 0.8.7 enforces overflow/underflow safety.Multiple Withdrawal Attack on ERC20 Tokens (arXiv:1907.00903) - resolved      Related events and functions are marked with \"arXiv:1907.00903\" tag:        - event Transfer(address indexed _by, address indexed _from, address indexed _to, uint256 _value)        - event Approve(address indexed _owner, address indexed _spender, uint256 _oldValue, uint256 _value)        - function increaseAllowance(address _spender, uint256 _value) public returns (bool)        - function decreaseAllowance(address _spender, uint256 _value) public returns (bool)      See: https://arxiv.org/abs/1907.00903v1           https://ieeexplore.ieee.org/document/8802438      See: https://github.com/ethereum/EIPs/issues/20#issuecomment-263524729Reviewed      ERC-20   - according to https://eips.ethereum.org/EIPS/eip-20      ERC-1363 - according to https://eips.ethereum.org/EIPS/eip-1363      EIP-2612 - according to https://eips.ethereum.org/EIPS/eip-2612      EIP-3009 - according to https://eips.ethereum.org/EIPS/eip-3009ERC20: contract has passed      - OpenZeppelin ERC20 tests        https://github.com/OpenZeppelin/openzeppelin-contracts/blob/master/test/token/ERC20/ERC20.behavior.js        https://github.com/OpenZeppelin/openzeppelin-contracts/blob/master/test/token/ERC20/ERC20.test.js      - Ref ERC1363 tests        https://github.com/vittominacori/erc1363-payable-token/blob/master/test/token/ERC1363/ERC1363.behaviour.js      - OpenZeppelin EIP2612 tests        https://github.com/OpenZeppelin/openzeppelin-contracts/blob/master/test/token/ERC20/extensions/draft-ERC20Permit.test.js      - Coinbase EIP3009 tests        https://github.com/CoinbaseStablecoin/eip-3009/blob/master/test/EIP3009.test.ts      - Compound voting delegation tests        https://github.com/compound-finance/compound-protocol/blob/master/tests/Governance/CompTest.js        https://github.com/compound-finance/compound-protocol/blob/master/tests/Utils/EIP712.js      - OpenZeppelin voting delegation tests        https://github.com/OpenZeppelin/openzeppelin-contracts/blob/master/test/token/ERC20/extensions/ERC20Votes.test.js      See adopted copies of all the tests in the project test folderCompound-like voting delegation functions', public getters', and events' names      were changed for better code readability (Advanced ERC20 Name <- Comp/Zeppelin name):      - votingDelegates           <- delegates      - votingPowerHistory        <- checkpoints      - votingPowerHistoryLength  <- numCheckpoints      - totalSupplyHistory        <- _totalSupplyCheckpoints (private)      - usedNonces                <- nonces (note: nonces are random instead of sequential)      - DelegateChanged (unchanged)      - VotingPowerChanged        <- DelegateVotesChanged      - votingPowerOf             <- getCurrentVotes      - votingPowerAt             <- getPriorVotes      - totalSupplyAt             <- getPriorTotalSupply      - delegate (unchanged)      - delegateWithAuthorization <- delegateBySigCompound-like voting delegation improved to allow the use of random nonces like in EIP-3009,      instead of sequential; same `usedNonces` EIP-3009 mapping is used to track noncesReference implementations \"used\":      - Atomic allowance:    https://github.com/OpenZeppelin/openzeppelin-contracts      - Unlimited allowance: https://github.com/0xProject/protocol      - Voting delegation:   https://github.com/compound-finance/compound-protocol                             https://github.com/OpenZeppelin/openzeppelin-contracts      - ERC-1363:            https://github.com/vittominacori/erc1363-payable-token      - EIP-2612:            https://github.com/Uniswap/uniswap-v2-core      - EIP-3009:            https://github.com/centrehq/centre-tokens                             https://github.com/CoinbaseStablecoin/eip-3009      - Meta transactions:   https://github.com/0xProject/protocolThe code is based on Artificial Liquid Intelligence Token (ALI) developed by Alethea teamIncludes resolutions for ALI ERC20 Audit by Miguel Palhas, https://hackmd.io/@naps62/alierc20-audit",
    "events": {
      "Approval(address,address,uint256,uint256)": {
        "details": "Resolution for the Multiple Withdrawal Attack on ERC20 Tokens (arXiv:1907.00903)Similar to ERC20 Approve event, but also logs old approval valueFired in approve(), increaseAllowance(), decreaseAllowance() functions,      may get fired in transfer functions",
        "params": {
          "oldValue": "previously granted amount of tokens to transfer on behalf",
          "owner": "an address which granted a permission to transfer      tokens on its behalf",
          "spender": "an address which received a permission to transfer      tokens on behalf of the owner `_owner`",
          "value": "new granted amount of tokens to transfer on behalf"
        }
      },
      "Burnt(address,address,uint256)": {
        "details": "Fired in burn() function",
        "params": {
          "by": "an address which burned some tokens (transaction sender)",
          "from": "an address the tokens were burnt from",
          "value": "an amount of tokens burnt"
        }
      },
      "DelegateChanged(address,address,address)": {
        "details": "Notifies that a key-value pair in `votingDelegates` mapping has changed,      i.e. a delegator address has changed its delegate address",
        "params": {
          "from": "old delegate, an address which delegate right is revoked",
          "source": "delegator address, a token owner, effectively transaction sender (`by`)",
          "to": "new delegate, an address which received the voting power"
        }
      },
      "Minted(address,address,uint256)": {
        "details": "Fired in mint() function",
        "params": {
          "by": "an address which minted some tokens (transaction sender)",
          "to": "an address the tokens were minted to",
          "value": "an amount of tokens minted"
        }
      },
      "Transfer(address,address,address,uint256)": {
        "details": "Resolution for the Multiple Withdrawal Attack on ERC20 Tokens (arXiv:1907.00903)Similar to ERC20 Transfer event, but also logs an address which executed transferFired in transfer(), transferFrom() and some other (non-ERC20) functions",
        "params": {
          "by": "an address which performed the transfer",
          "from": "an address tokens were consumed from",
          "to": "an address tokens were sent to",
          "value": "number of tokens transferred"
        }
      },
      "VotingPowerChanged(address,address,uint256,uint256)": {
        "details": "Notifies that a key-value pair in `votingPowerHistory` mapping has changed,      i.e. a delegate's voting power has changed.",
        "params": {
          "by": "an address which executed delegate, mint, burn, or transfer operation      which had led to delegate voting power change",
          "fromVal": "previous number of votes delegate had",
          "target": "delegate whose voting power has changed",
          "toVal": "new number of votes delegate has"
        }
      }
    },
    "kind": "dev",
    "methods": {
      "allowance(address,address)": {
        "details": "A function to check an amount of tokens owner approved      to transfer on its behalf by some other address called \"spender\"",
        "params": {
          "_owner": "an address which approves transferring some tokens on its behalf",
          "_spender": "an address approved to transfer some tokens on behalf"
        },
        "returns": {
          "remaining": "an amount of tokens approved address `_spender` can transfer on behalf      of token owner `_owner`"
        }
      },
      "approve(address,uint256)": {
        "details": "Transaction sender must not necessarily own any tokens to grant the permission",
        "params": {
          "_spender": "an address approved by the caller (token owner)      to spend some tokens on its behalf",
          "_value": "an amount of tokens spender `_spender` is allowed to      transfer on behalf of the token owner"
        },
        "returns": {
          "success": "true on success, throws otherwise"
        }
      },
      "approveAndCall(address,uint256)": {
        "details": "Caller must not necessarily own any tokens to grant the permissionThrows if `_spender` is an EOA or a smart contract which doesn't support ERC1363Spender interface",
        "params": {
          "_spender": "an address approved by the caller (token owner)      to spend some tokens on its behalf",
          "_value": "an amount of tokens spender `_spender` is allowed to      transfer on behalf of the token owner"
        },
        "returns": {
          "_0": "true unless throwing"
        }
      },
      "approveAndCall(address,uint256,bytes)": {
        "details": "Caller must not necessarily own any tokens to grant the permission",
        "params": {
          "_data": "[optional] additional data with no specified format,      sent in onApprovalReceived call to `_spender`",
          "_spender": "an address approved by the caller (token owner)      to spend some tokens on its behalf",
          "_value": "an amount of tokens spender `_spender` is allowed to      transfer on behalf of the token owner"
        },
        "returns": {
          "_0": "true unless throwing"
        }
      },
      "authorizationState(address,bytes32)": {
        "details": "Nonces are expected to be client-side randomly generated 32-byte values      unique to the authorizer's addressAlias for usedNonces(authorizer, nonce)",
        "params": {
          "_authorizer": "an address to check nonce for",
          "_nonce": "a nonce to check"
        },
        "returns": {
          "_0": "true if the nonce was used, false otherwise"
        }
      },
      "balanceOf(address)": {
        "params": {
          "_owner": "the address to query the the balance for"
        },
        "returns": {
          "balance": "an amount of tokens owned by the address specified"
        }
      },
      "burn(address,uint256)": {
        "details": "Burns (destroys) some tokens from the address specifiedThe value specified is treated as is without taking      into account what `decimals` value isRequires executor to have `ROLE_TOKEN_DESTROYER` permission      or FEATURE_OWN_BURNS/FEATURE_BURNS_ON_BEHALF features to be enabledCan be disabled by the contract creator forever by disabling      FEATURE_OWN_BURNS/FEATURE_BURNS_ON_BEHALF features and then revoking      its own roles to burn tokens and to enable burning features",
        "params": {
          "_from": "an address to burn some tokens from",
          "_value": "an amount of tokens to burn (destroy)"
        },
        "returns": {
          "success": "true on success, throws otherwise"
        }
      },
      "cancelAuthorization(address,bytes32,uint8,bytes32,bytes32)": {
        "params": {
          "_authorizer": "transaction authorizer",
          "_nonce": "unique random nonce to cancel (mark as used)",
          "r": "half of the ECDSA signature pair",
          "s": "half of the ECDSA signature pair",
          "v": "the recovery byte of the signature"
        }
      },
      "constructor": {
        "details": "Deploys the token smart contract,      assigns initial token supply to the address specified",
        "params": {
          "_contractOwner": "smart contract owner (has minting/burning and all other permissions)",
          "_initialFeatures": "RBAC features enabled initially",
          "_initialHolder": "owner of the initial token supply",
          "_initialSupply": "initial token supply",
          "_name": "token name to set",
          "_symbol": "token symbol to set"
        }
      },
      "decreaseAllowance(address,uint256)": {
        "details": "Resolution for the Multiple Withdrawal Attack on ERC20 Tokens (arXiv:1907.00903)Throws if value to decrease by is zero or is greater than currently allowed value",
        "params": {
          "_spender": "an address approved by the caller (token owner)      to spend some tokens on its behalf",
          "_value": "an amount of tokens to decrease by"
        },
        "returns": {
          "_0": "true unless throwing"
        }
      },
      "delegate(address)": {
        "details": "Accepts zero value address to delegate voting power to, effectively      removing the delegate in that case",
        "params": {
          "_to": "address to delegate voting power to"
        }
      },
      "delegateWithAuthorization(address,bytes32,uint256,uint8,bytes32,bytes32)": {
        "details": "Accepts zero value address to delegate voting power to, effectively      removing the delegate in that caseCompliant with EIP-712: Ethereum typed structured data hashing and signing,      see https://eips.ethereum.org/EIPS/eip-712",
        "params": {
          "_exp": "signature expiration time",
          "_nonce": "nonce used to construct the signature, and used to validate it;      nonce is increased by one after successful signature validation and vote delegation",
          "_to": "address to delegate voting power to",
          "r": "half of the ECDSA signature pair",
          "s": "half of the ECDSA signature pair",
          "v": "the recovery byte of the signature"
        }
      },
      "entireSupplyHistory()": {
        "details": "Reads an entire total token supply history array",
        "returns": {
          "_0": "total token supply history array, a key-value pair array,      where key is a block number and value is total token supply at that block"
        }
      },
      "features()": {
        "details": "Effectively reads userRoles role for the contract itself",
        "returns": {
          "_0": "256-bit bitmask of the features enabled"
        }
      },
      "getInitializedVersion()": {
        "details": "Highest version that has been initialized.      Non-zero value means contract was already initialized.see {Initializable}, {reinitializer}.",
        "returns": {
          "_0": "highest version that has been initialized"
        }
      },
      "getRole(address)": {
        "details": "Having a simple getter instead of making the mapping public      allows enforcing the encapsulation of the mapping and protects from      writing to it directly in the inheriting smart contracts",
        "params": {
          "operator": "address of a user to read permissions for,      or self address to read global features of the smart contract"
        }
      },
      "increaseAllowance(address,uint256)": {
        "details": "Resolution for the Multiple Withdrawal Attack on ERC20 Tokens (arXiv:1907.00903)Throws if value to increase by is zero or too big and causes arithmetic overflow",
        "params": {
          "_spender": "an address approved by the caller (token owner)      to spend some tokens on its behalf",
          "_value": "an amount of tokens to increase by"
        },
        "returns": {
          "_0": "true unless throwing"
        }
      },
      "isFeatureEnabled(uint256)": {
        "params": {
          "required": "set of features to check against"
        },
        "returns": {
          "_0": "true if all the features requested are enabled, false otherwise"
        }
      },
      "isOperatorInRole(address,uint256)": {
        "params": {
          "operator": "address of the user to check role for",
          "required": "set of permissions (role) to check"
        },
        "returns": {
          "_0": "true if all the permissions requested are enabled, false otherwise"
        }
      },
      "isSenderInRole(uint256)": {
        "params": {
          "required": "set of permissions (role) to check against"
        },
        "returns": {
          "_0": "true if all the permissions requested are enabled, false otherwise"
        }
      },
      "mint(address,uint256)": {
        "details": "Mints (creates) some tokens to address specifiedThe value specified is treated as is without taking      into account what `decimals` value isRequires executor to have `ROLE_TOKEN_CREATOR` permissionThrows on overflow, if totalSupply + _value doesn't fit into uint192",
        "params": {
          "_to": "an address to mint tokens to",
          "_value": "an amount of tokens to mint (create)"
        },
        "returns": {
          "success": "true on success, throws otherwise"
        }
      },
      "permit(address,address,uint256,uint256,uint8,bytes32,bytes32)": {
        "details": "Executes approve(_spender, _value) on behalf of the owner who EIP-712      signed the transaction, i.e. as if transaction sender is the EIP712 signerSets the `_value` as the allowance of `_spender` over `_owner` tokens,      given `_owner` EIP-712 signed approvalInherits the Multiple Withdrawal Attack on ERC20 Tokens (arXiv:1907.00903)      vulnerability in the same way as ERC20 `approve`, use standard ERC20 workaround      if this might become an issue:      https://docs.google.com/document/d/1YLPtQxZu1UAvO9cZ1O2RPXBbT0mooh4DYKjA_jp-RLM/editEmits `Approval` event(s) in the same way as `approve` doesRequires:     - `_spender` to be non-zero address     - `_exp` to be a timestamp in the future     - `v`, `r` and `s` to be a valid `secp256k1` signature from `_owner`        over the EIP712-formatted function arguments.     - the signature to use `_owner` current nonce (see `nonces`).For more information on the signature format, see the      https://eips.ethereum.org/EIPS/eip-2612#specification",
        "params": {
          "_exp": "signature expiration time (unix timestamp)",
          "_owner": "owner of the tokens to set approval on behalf of,      an address which signed the EIP-712 message",
          "_spender": "an address approved by the token owner      to spend some tokens on its behalf",
          "_value": "an amount of tokens spender `_spender` is allowed to      transfer on behalf of the token owner",
          "r": "half of the ECDSA signature pair",
          "s": "half of the ECDSA signature pair",
          "v": "the recovery byte of the signature"
        }
      },
      "postConstruct(address,string,string,address,uint256,uint256)": {
        "details": "\"Constructor replacement\" for a smart contract with a delayed initialization (post-deployment initialization)",
        "params": {
          "_contractOwner": "smart contract owner (has minting/burning and all other permissions)",
          "_initialFeatures": "RBAC features enabled initially",
          "_initialHolder": "owner of the initial token supply",
          "_initialSupply": "initial token supply value",
          "_name": "token name to set",
          "_symbol": "token symbol to set"
        }
      },
      "receiveWithAuthorization(address,address,uint256,uint256,uint256,bytes32,uint8,bytes32,bytes32)": {
        "details": "This has an additional check to ensure that the payee's address      matches the caller of this function to prevent front-running attacks.",
        "params": {
          "_from": "token sender and transaction authorizer",
          "_nonce": "unique random nonce",
          "_to": "token receiver",
          "_validAfter": "signature valid after time (unix timestamp)",
          "_validBefore": "signature valid before time (unix timestamp)",
          "_value": "amount to be transferred",
          "r": "half of the ECDSA signature pair",
          "s": "half of the ECDSA signature pair",
          "v": "the recovery byte of the signature"
        }
      },
      "safeTransferFrom(address,address,uint256,bytes)": {
        "details": "Called by token owner on his own or approved address,      an address approved earlier by token owner to      transfer some amount of tokens on its behalfThrows on any error like      * insufficient token balance or      * incorrect `_to` address:          * zero address or          * same as `_from` address (self transfer)          * smart contract which doesn't support ERC1363Receiver interfaceReturns true on success, throws otherwise",
        "params": {
          "_data": "[optional] additional data with no specified format,      sent in onTransferReceived call to `_to` in case if its a smart contract",
          "_from": "token owner which approved caller (transaction sender)      to transfer `_value` of tokens on its behalf",
          "_to": "an address to transfer tokens to,      must be either an external address or a smart contract,      implementing ERC1363Receiver",
          "_value": "amount of tokens to be transferred,, zero      value is allowed"
        },
        "returns": {
          "_0": "true unless throwing"
        }
      },
      "supportsInterface(bytes4)": {
        "details": "Interface identification is specified in ERC-165.      This function uses less than 30,000 gas.",
        "params": {
          "interfaceID": "The interface identifier, as specified in ERC-165"
        },
        "returns": {
          "_0": "`true` if the contract implements `interfaceID` and      `interfaceID` is not 0xffffffff, `false` otherwise"
        }
      },
      "totalSupplyAt(uint256)": {
        "details": "Throws if `_blockNum` is not in the past (not the finalized block)",
        "params": {
          "_blockNum": "block number to get the total token supply at"
        },
        "returns": {
          "_0": "past total token supply at block number `_blockNum`"
        }
      },
      "totalSupplyHistoryLength()": {
        "details": "Returns length of the total token supply history array;      useful since reading an entire array just to get its length is expensive (gas cost)",
        "returns": {
          "_0": "total token supply history array"
        }
      },
      "transfer(address,uint256)": {
        "details": "Called by token owner (an address which has a      positive token balance tracked by this smart contract)Throws on any error like      * insufficient token balance or      * incorrect `_to` address:          * zero address or          * self address or          * smart contract which doesn't support ERC20",
        "params": {
          "_to": "an address to transfer tokens to,      must be either an external address or a smart contract,      compliant with the ERC20 standard",
          "_value": "amount of tokens to be transferred,, zero      value is allowed"
        },
        "returns": {
          "success": "true on success, throws otherwise"
        }
      },
      "transferAndCall(address,uint256)": {
        "details": "Called by token owner (an address which has a      positive token balance tracked by this smart contract)Throws on any error like      * insufficient token balance or      * incorrect `_to` address:          * zero address or          * same as `_from` address (self transfer)          * EOA or smart contract which doesn't support ERC1363Receiver interfaceReturns true on success, throws otherwise",
        "params": {
          "_to": "an address to transfer tokens to,      must be a smart contract, implementing ERC1363Receiver",
          "_value": "amount of tokens to be transferred,, zero      value is allowed"
        },
        "returns": {
          "_0": "true unless throwing"
        }
      },
      "transferAndCall(address,uint256,bytes)": {
        "details": "Called by token owner (an address which has a      positive token balance tracked by this smart contract)Throws on any error like      * insufficient token balance or      * incorrect `_to` address:          * zero address or          * same as `_from` address (self transfer)          * EOA or smart contract which doesn't support ERC1363Receiver interfaceReturns true on success, throws otherwise",
        "params": {
          "_data": "[optional] additional data with no specified format,      sent in onTransferReceived call to `_to`",
          "_to": "an address to transfer tokens to,      must be a smart contract, implementing ERC1363Receiver",
          "_value": "amount of tokens to be transferred,, zero      value is allowed"
        },
        "returns": {
          "_0": "true unless throwing"
        }
      },
      "transferFrom(address,address,uint256)": {
        "details": "Called by token owner on his own or approved address,      an address approved earlier by token owner to      transfer some amount of tokens on its behalfThrows on any error like      * insufficient token balance or      * incorrect `_to` address:          * zero address or          * same as `_from` address (self transfer)          * smart contract which doesn't support ERC20",
        "params": {
          "_from": "token owner which approved caller (transaction sender)      to transfer `_value` of tokens on its behalf",
          "_to": "an address to transfer tokens to,      must be either an external address or a smart contract,      compliant with the ERC20 standard",
          "_value": "amount of tokens to be transferred,, zero      value is allowed"
        },
        "returns": {
          "success": "true on success, throws otherwise"
        }
      },
      "transferFromAndCall(address,address,uint256)": {
        "details": "Called by token owner on his own or approved address,      an address approved earlier by token owner to      transfer some amount of tokens on its behalfThrows on any error like      * insufficient token balance or      * incorrect `_to` address:          * zero address or          * same as `_from` address (self transfer)          * EOA or smart contract which doesn't support ERC1363Receiver interfaceReturns true on success, throws otherwise",
        "params": {
          "_from": "token owner which approved caller (transaction sender)      to transfer `_value` of tokens on its behalf",
          "_to": "an address to transfer tokens to,      must be a smart contract, implementing ERC1363Receiver",
          "_value": "amount of tokens to be transferred,, zero      value is allowed"
        },
        "returns": {
          "_0": "true unless throwing"
        }
      },
      "transferFromAndCall(address,address,uint256,bytes)": {
        "details": "Called by token owner on his own or approved address,      an address approved earlier by token owner to      transfer some amount of tokens on its behalfThrows on any error like      * insufficient token balance or      * incorrect `_to` address:          * zero address or          * same as `_from` address (self transfer)          * EOA or smart contract which doesn't support ERC1363Receiver interfaceReturns true on success, throws otherwise",
        "params": {
          "_data": "[optional] additional data with no specified format,      sent in onTransferReceived call to `_to`",
          "_from": "token owner which approved caller (transaction sender)      to transfer `_value` of tokens on its behalf",
          "_to": "an address to transfer tokens to,      must be a smart contract, implementing ERC1363Receiver",
          "_value": "amount of tokens to be transferred,, zero      value is allowed"
        },
        "returns": {
          "_0": "true unless throwing"
        }
      },
      "transferWithAuthorization(address,address,uint256,uint256,uint256,bytes32,uint8,bytes32,bytes32)": {
        "params": {
          "_from": "token sender and transaction authorizer",
          "_nonce": "unique random nonce",
          "_to": "token receiver",
          "_validAfter": "signature valid after time (unix timestamp)",
          "_validBefore": "signature valid before time (unix timestamp)",
          "_value": "amount to be transferred",
          "r": "half of the ECDSA signature pair",
          "s": "half of the ECDSA signature pair",
          "v": "the recovery byte of the signature"
        }
      },
      "unsafeTransferFrom(address,address,uint256)": {
        "details": "In contrast to `transferFromAndCall` doesn't check recipient      smart contract to support ERC20 tokens (ERC1363Receiver)Designed to be used by developers when the receiver is known      to support ERC20 tokens but doesn't implement ERC1363Receiver interfaceCalled by token owner on his own or approved address,      an address approved earlier by token owner to      transfer some amount of tokens on its behalfThrows on any error like      * insufficient token balance or      * incorrect `_to` address:          * zero address or          * same as `_from` address (self transfer)Returns silently on success, throws otherwise",
        "params": {
          "_from": "token sender, token owner which approved caller (transaction sender)      to transfer `_value` of tokens on its behalf",
          "_to": "token receiver, an address to transfer tokens to",
          "_value": "amount of tokens to be transferred,, zero      value is allowed"
        }
      },
      "updateFeatures(uint256)": {
        "details": "Requires transaction sender to have `ROLE_ACCESS_MANAGER` permissionFunction is left for backward compatibility with older versions",
        "params": {
          "_mask": "bitmask representing a set of features to enable/disable"
        }
      },
      "updateRole(address,uint256)": {
        "details": "Setting role to zero is equivalent to removing an all permissionsSetting role to `FULL_PRIVILEGES_MASK` is equivalent to      copying senders' permissions (role) to the userRequires transaction sender to have `ROLE_ACCESS_MANAGER` permission",
        "params": {
          "operator": "address of a user to alter permissions for,       or self address to alter global features of the smart contract",
          "role": "bitmask representing a set of permissions to      enable/disable for a user specified"
        }
      },
      "votingPowerAt(address,uint256)": {
        "details": "Throws if `_blockNum` is not in the past (not the finalized block)",
        "params": {
          "_blockNum": "block number to get the voting power at",
          "_of": "the address of account to get voting power of"
        },
        "returns": {
          "_0": "past cumulative voting power of the account,      sum of token balances of all its voting delegators at block number `_blockNum`"
        }
      },
      "votingPowerHistoryLength(address)": {
        "details": "Returns length of the voting power history array for the delegate specified;      useful since reading an entire array just to get its length is expensive (gas cost)",
        "params": {
          "_of": "delegate to query voting power history length for"
        },
        "returns": {
          "_0": "voting power history array length for the delegate of interest"
        }
      },
      "votingPowerHistoryOf(address)": {
        "details": "Reads an entire voting power history array for the delegate specified",
        "params": {
          "_of": "delegate to query voting power history for"
        },
        "returns": {
          "_0": "voting power history array for the delegate of interest"
        }
      },
      "votingPowerOf(address)": {
        "params": {
          "_of": "the address of account to get voting power of"
        },
        "returns": {
          "_0": "current cumulative voting power of the account,      sum of token balances of all its voting delegators"
        }
      }
    },
    "stateVariables": {
      "DOMAIN_TYPEHASH": {
        "details": "Note: we do not include version into the domain typehash/separator,      it is implied version is concatenated to the name field, like \"AdvancedERC20v1\""
      },
      "FEATURE_BURNS_ON_BEHALF": {
        "details": "Feature FEATURE_BURNS_ON_BEHALF must be enabled in order for      `burn()` function to succeed when called by approved operator"
      },
      "FEATURE_DELEGATIONS": {
        "details": "Feature FEATURE_DELEGATIONS must be enabled in order for      `delegate()` function to succeed"
      },
      "FEATURE_DELEGATIONS_ON_BEHALF": {
        "details": "Feature FEATURE_DELEGATIONS_ON_BEHALF must be enabled in order for      `delegateWithAuthorization()` function to succeed"
      },
      "FEATURE_EIP2612_PERMITS": {
        "details": "Feature FEATURE_EIP2612_PERMITS must be enabled in order for      `permit()` function to succeed"
      },
      "FEATURE_EIP3009_RECEPTIONS": {
        "details": "Feature FEATURE_EIP3009_RECEPTIONS must be enabled in order for      `receiveWithAuthorization()` function to succeed"
      },
      "FEATURE_EIP3009_TRANSFERS": {
        "details": "Feature FEATURE_EIP3009_TRANSFERS must be enabled in order for      `transferWithAuthorization()` function to succeed"
      },
      "FEATURE_ERC1363_APPROVALS": {
        "details": "Feature FEATURE_ERC1363_APPROVALS must be enabled in order for      ERC-1363 `approveAndCall` functions to succeed"
      },
      "FEATURE_ERC1363_TRANSFERS": {
        "details": "Feature FEATURE_ERC1363_TRANSFERS must be enabled in order for      ERC-1363 `transferFromAndCall` functions to succeed"
      },
      "FEATURE_OWN_BURNS": {
        "details": "Feature FEATURE_OWN_BURNS must be enabled in order for      `burn()` function to succeed when called by token owner"
      },
      "FEATURE_TRANSFERS": {
        "details": "Feature FEATURE_TRANSFERS must be enabled in order for      `transfer()` function to succeed"
      },
      "FEATURE_TRANSFERS_ON_BEHALF": {
        "details": "Feature FEATURE_TRANSFERS_ON_BEHALF must be enabled in order for      `transferFrom()` function to succeedToken owner must call `approve()` first to authorize      the transfer on behalf"
      },
      "FEATURE_UNSAFE_TRANSFERS": {
        "details": "Defines if the default behavior of `transfer` and `transferFrom`      checks if the receiver smart contract supports ERC20 tokensWhen feature FEATURE_UNSAFE_TRANSFERS is enabled the transfers do not      check if the receiver smart contract supports ERC20 tokens,      i.e. `transfer` and `transferFrom` behave like `unsafeTransferFrom`When feature FEATURE_UNSAFE_TRANSFERS is disabled (default) the transfers      check if the receiver smart contract supports ERC20 tokens,      i.e. `transfer` and `transferFrom` behave like `transferFromAndCall`"
      },
      "ROLE_ERC20_RECEIVER": {
        "details": "When `FEATURE_UNSAFE_TRANSFERS` is not enabled addresses having      `ROLE_ERC20_RECEIVER` permission are allowed to receive tokens      via `transfer` and `transferFrom` functions in the same way they      would via `unsafeTransferFrom` functionWhen `FEATURE_UNSAFE_TRANSFERS` is enabled `ROLE_ERC20_RECEIVER` permission      doesn't affect the transfer behaviour since      `transfer` and `transferFrom` behave like `unsafeTransferFrom` for any receiverROLE_ERC20_RECEIVER is a shortening for ROLE_UNSAFE_ERC20_RECEIVER"
      },
      "ROLE_ERC20_SENDER": {
        "details": "When `FEATURE_UNSAFE_TRANSFERS` is not enabled senders having      `ROLE_ERC20_SENDER` permission are allowed to send tokens      via `transfer` and `transferFrom` functions in the same way they      would via `unsafeTransferFrom` functionWhen `FEATURE_UNSAFE_TRANSFERS` is enabled `ROLE_ERC20_SENDER` permission      doesn't affect the transfer behaviour since      `transfer` and `transferFrom` behave like `unsafeTransferFrom` for any receiverROLE_ERC20_SENDER is a shortening for ROLE_UNSAFE_ERC20_SENDER"
      },
      "ROLE_TOKEN_CREATOR": {
        "details": "Role ROLE_TOKEN_CREATOR allows minting tokens      (calling `mint` function)"
      },
      "ROLE_TOKEN_DESTROYER": {
        "details": "Role ROLE_TOKEN_DESTROYER allows burning tokens      (calling `burn` function)"
      },
      "decimals": {
        "details": "ERC20 `function decimals() public view returns (uint8)`Field is declared public: getter decimals() is created when compiled,      it returns the number of decimals used to get its user representation.      For example, if `decimals` equals `6`, a balance of `1,500,000` tokens should      be displayed to a user as `1,5` (`1,500,000 / 10 ** 6`).NOTE: This information is only used for _display_ purposes: it in      no way affects any of the arithmetic of the contract, including balanceOf() and transfer()."
      },
      "name": {
        "details": "ERC20 `function name() public view returns (string)`Field is declared public: getter name() is created when compiled,      it returns the name of the token."
      },
      "nonces": {
        "details": "A record of nonces for signing/validating signatures in EIP-2612 `permit`Note: EIP2612 doesn't imply a possibility for nonce randomization like in EIP-3009Maps delegate address => delegate nonce"
      },
      "symbol": {
        "details": "ERC20 `function symbol() public view returns (string)`Field is declared public: getter symbol() is created when compiled,      it returns the symbol of the token"
      },
      "tokenBalances": {
        "details": "A record of all the token balancesThis mapping keeps record of all token owners:      owner => balance"
      },
      "totalSupply": {
        "details": "ERC20 `function totalSupply() public view returns (uint256)`Field is declared public: getter totalSupply() is created when compiled,      it returns the amount of tokens in existence."
      },
      "totalSupplyHistory": {
        "details": "Primarily data structure to store total token supply.Stores current value and entire history of its changes.      The changes are stored as an array of checkpoints (key-value pairs).      Checkpoint is an auxiliary data structure containing total      token supply and block number when the checkpoint is saved"
      },
      "transferAllowances": {
        "details": "Maps token owner address to an address approved to spend      some tokens on behalf, maps approved address to that amountowner => spender => value"
      },
      "usedNonces": {
        "details": "A record of used nonces for EIP-3009 transactionsA record of used nonces for signing/validating signatures      in `delegateWithAuthorization` for every delegateMaps authorizer address => nonce => true/false (used unused)"
      },
      "votingDelegates": {
        "details": "Auxiliary data structure used to sum up an account's voting powerThis mapping keeps record of all voting power delegations:      voting delegator (token owner) => voting delegate"
      },
      "votingPowerHistory": {
        "details": "Primarily data structure to store voting power for each account.      Voting power sums up from the account's token balance and delegated      balances.Stores current value and entire history of its changes.      The changes are stored as an array of checkpoints (key-value pairs).      Checkpoint is an auxiliary data structure containing voting      power (number of votes) and block number when the checkpoint is savedMaps voting delegate => voting power record"
      }
    },
    "title": "Advanced ERC20",
    "version": 1
  },
  "userdoc": {
    "kind": "user",
    "methods": {
      "CANCEL_AUTHORIZATION_TYPEHASH()": {
        "notice": "EIP-712 CancelAuthorization (EIP-3009) struct typeHash,      see https://eips.ethereum.org/EIPS/eip-712#rationale-for-typehash"
      },
      "DELEGATION_TYPEHASH()": {
        "notice": "EIP-712 delegation struct typeHash,      see https://eips.ethereum.org/EIPS/eip-712#rationale-for-typehash"
      },
      "DOMAIN_SEPARATOR()": {
        "notice": "EIP-712 contract domain separator,      see https://eips.ethereum.org/EIPS/eip-712#definition-of-domainseparator      note: we specify contract version in its name"
      },
      "DOMAIN_TYPEHASH()": {
        "notice": "EIP-712 contract's domain typeHash,      see https://eips.ethereum.org/EIPS/eip-712#rationale-for-typehash"
      },
      "FEATURE_BURNS_ON_BEHALF()": {
        "notice": "Enables approved operators to burn tokens on behalf of their owners"
      },
      "FEATURE_DELEGATIONS()": {
        "notice": "Enables delegators to elect delegates"
      },
      "FEATURE_DELEGATIONS_ON_BEHALF()": {
        "notice": "Enables delegators to elect delegates on behalf      (via an EIP712 signature)"
      },
      "FEATURE_EIP2612_PERMITS()": {
        "notice": "Enables approvals on behalf (EIP2612 permits      via an EIP712 signature)"
      },
      "FEATURE_EIP3009_RECEPTIONS()": {
        "notice": "Enables meta transfers on behalf (EIP3009 transfers      via an EIP712 signature)"
      },
      "FEATURE_EIP3009_TRANSFERS()": {
        "notice": "Enables meta transfers on behalf (EIP3009 transfers      via an EIP712 signature)"
      },
      "FEATURE_ERC1363_APPROVALS()": {
        "notice": "Enables ERC-1363 approvals with callback"
      },
      "FEATURE_ERC1363_TRANSFERS()": {
        "notice": "Enables ERC-1363 transfers with callback"
      },
      "FEATURE_OWN_BURNS()": {
        "notice": "Enables token owners to burn their own tokens"
      },
      "FEATURE_TRANSFERS()": {
        "notice": "Enables ERC20 transfers of the tokens      (transfer by the token owner himself)"
      },
      "FEATURE_TRANSFERS_ON_BEHALF()": {
        "notice": "Enables ERC20 transfers on behalf      (transfer by someone else on behalf of token owner)"
      },
      "PERMIT_TYPEHASH()": {
        "notice": "EIP-712 permit (EIP-2612) struct typeHash,      see https://eips.ethereum.org/EIPS/eip-712#rationale-for-typehash"
      },
      "RECEIVE_WITH_AUTHORIZATION_TYPEHASH()": {
        "notice": "EIP-712 ReceiveWithAuthorization (EIP-3009) struct typeHash,      see https://eips.ethereum.org/EIPS/eip-712#rationale-for-typehash"
      },
      "ROLE_ACCESS_MANAGER()": {
        "notice": "Access manager is responsible for assigning the roles to users,      enabling/disabling global features of the smart contractAccess manager can add, remove and update user roles,      remove and update global features"
      },
      "ROLE_ERC20_RECEIVER()": {
        "notice": "ERC20 receivers are allowed to receive tokens without ERC20 safety checks,      which may be useful to simplify tokens transfers into \"legacy\" smart contracts"
      },
      "ROLE_ERC20_SENDER()": {
        "notice": "ERC20 senders are allowed to send tokens without ERC20 safety checks,      which may be useful to simplify tokens transfers into \"legacy\" smart contracts"
      },
      "ROLE_TOKEN_CREATOR()": {
        "notice": "Token creator is responsible for creating (minting)      tokens to an arbitrary address"
      },
      "ROLE_TOKEN_DESTROYER()": {
        "notice": "Token destroyer is responsible for destroying (burning)      tokens owned by an arbitrary address"
      },
      "ROLE_UPGRADE_MANAGER()": {
        "notice": "Upgrade manager is responsible for smart contract upgrades,      see https://docs.openzeppelin.com/contracts/4.x/api/proxy#UUPSUpgradeable      see https://docs.openzeppelin.com/contracts/4.x/upgradeable"
      },
      "TRANSFER_WITH_AUTHORIZATION_TYPEHASH()": {
        "notice": "EIP-712 TransferWithAuthorization (EIP-3009) struct typeHash,      see https://eips.ethereum.org/EIPS/eip-712#rationale-for-typehash"
      },
      "allowance(address,address)": {
        "notice": "Returns the amount which _spender is still allowed to withdraw from _owner."
      },
      "approve(address,uint256)": {
        "notice": "Approves address called `_spender` to transfer some amount      of tokens on behalf of the owner (transaction sender)"
      },
      "approveAndCall(address,uint256)": {
        "notice": "Approves address called `_spender` to transfer some amount      of tokens on behalf of the owner, then executes a `onApprovalReceived` callback on `_spender`"
      },
      "approveAndCall(address,uint256,bytes)": {
        "notice": "Approves address called `_spender` to transfer some amount      of tokens on behalf of the owner, then executes a callback on `_spender`"
      },
      "authorizationState(address,bytes32)": {
        "notice": "Checks if specified nonce was already used"
      },
      "balanceOf(address)": {
        "notice": "Gets the balance of a particular address"
      },
      "cancelAuthorization(address,bytes32,uint8,bytes32,bytes32)": {
        "notice": "Attempt to cancel an authorization"
      },
      "decimals()": {
        "notice": "Decimals of the token: 18"
      },
      "decreaseAllowance(address,uint256)": {
        "notice": "Decreases the allowance granted to `spender` by the caller."
      },
      "delegate(address)": {
        "notice": "Delegates voting power of the delegator `msg.sender` to the delegate `_to`"
      },
      "delegateWithAuthorization(address,bytes32,uint256,uint8,bytes32,bytes32)": {
        "notice": "Delegates voting power of the delegator (represented by its signature) to the delegate `_to`"
      },
      "features()": {
        "notice": "Retrieves globally set of features enabled"
      },
      "getRole(address)": {
        "notice": "Reads the permissions (role) for a given user from the `userRoles` mapping      (privileged addresses with defined roles/permissions)In the context of ERC20/ERC721 tokens these can be permissions to      allow minting or burning tokens, transferring on behalf and so on"
      },
      "increaseAllowance(address,uint256)": {
        "notice": "Increases the allowance granted to `spender` by the transaction sender"
      },
      "isFeatureEnabled(uint256)": {
        "notice": "Checks if requested set of features is enabled globally on the contract"
      },
      "isOperatorInRole(address,uint256)": {
        "notice": "Checks if operator has all the permissions (role) required"
      },
      "isSenderInRole(uint256)": {
        "notice": "Checks if transaction sender `msg.sender` has all the permissions required"
      },
      "name()": {
        "notice": "Name of the tokenERC20 name of the token (long name)"
      },
      "permit(address,address,uint256,uint256,uint8,bytes32,bytes32)": {
        "notice": "For all addresses owner, spender, uint256s value, deadline and nonce, uint8 v, bytes32 r and s,      a call to permit(owner, spender, value, deadline, v, r, s) will set approval[owner][spender] to value,      increment nonces[owner] by 1, and emit a corresponding Approval event,      if and only if the following conditions are met:        - The current blocktime is less than or equal to deadline.        - owner is not the zero address.        - nonces[owner] (before the state update) is equal to nonce.        - r, s and v is a valid secp256k1 signature from owner of the message:"
      },
      "receiveWithAuthorization(address,address,uint256,uint256,uint256,bytes32,uint8,bytes32,bytes32)": {
        "notice": "Receive a transfer with a signed authorization from the payer"
      },
      "safeTransferFrom(address,address,uint256,bytes)": {
        "notice": "Transfers some tokens on behalf of address `_from' (token owner)      to some other address `_to` and then executes `onTransferReceived` callback      on the receiver if it is a smart contract (not an EOA)"
      },
      "supportsInterface(bytes4)": {
        "notice": "Query if a contract implements an interface"
      },
      "symbol()": {
        "notice": "Symbol of the tokenERC20 symbol of that token (short name)"
      },
      "totalSupply()": {
        "notice": "Total supply of the token: initially 10,000,000,000,      with the potential to decline over time as some tokens may get burnt but not minted"
      },
      "totalSupplyAt(uint256)": {
        "notice": "Gets past total token supply value at some block `_blockNum`"
      },
      "totalSupplyHistory(uint256)": {
        "notice": "A record of total token supply historical data"
      },
      "transfer(address,uint256)": {
        "notice": "Transfers some tokens to an external address or a smart contract"
      },
      "transferAndCall(address,uint256)": {
        "notice": "Transfers some tokens and then executes `onTransferReceived` callback on the receiver"
      },
      "transferAndCall(address,uint256,bytes)": {
        "notice": "Transfers some tokens and then executes `onTransferReceived` callback on the receiver"
      },
      "transferFrom(address,address,uint256)": {
        "notice": "Transfers some tokens on behalf of address `_from' (token owner)      to some other address `_to`"
      },
      "transferFromAndCall(address,address,uint256)": {
        "notice": "Transfers some tokens on behalf of address `_from' (token owner)      to some other address `_to` and then executes `onTransferReceived` callback on the receiver"
      },
      "transferFromAndCall(address,address,uint256,bytes)": {
        "notice": "Transfers some tokens on behalf of address `_from' (token owner)      to some other address `_to` and then executes a `onTransferReceived` callback on the receiver"
      },
      "transferWithAuthorization(address,address,uint256,uint256,uint256,bytes32,uint8,bytes32,bytes32)": {
        "notice": "Execute a transfer with a signed authorization"
      },
      "unsafeTransferFrom(address,address,uint256)": {
        "notice": "Transfers some tokens on behalf of address `_from' (token owner)      to some other address `_to`"
      },
      "updateFeatures(uint256)": {
        "notice": "Updates set of the globally enabled features (`features`),      taking into account sender's permissions"
      },
      "updateRole(address,uint256)": {
        "notice": "Updates set of permissions (role) for a given user,      taking into account sender's permissions."
      },
      "votingDelegates(address)": {
        "notice": "A record of each account's voting delegate"
      },
      "votingPowerAt(address,uint256)": {
        "notice": "Gets past voting power of the account `_of` at some block `_blockNum`"
      },
      "votingPowerHistory(address,uint256)": {
        "notice": "A record of each account's voting power historical data"
      },
      "votingPowerOf(address)": {
        "notice": "Gets current voting power of the account `_of`"
      }
    },
    "notice": "Feature rich lightweight ERC20 implementation which is not built on top of OpenZeppelin ERC20 implementation.      It uses some other OpenZeppelin code:         - low level functions to work with ECDSA signatures (recover)         - low level functions to work contract addresses (isContract)         - OZ UUPS proxy and smart contracts upgradeability codeToken Summary:      - Symbol: configurable (set on deployment)      - Name: configurable (set on deployment)      - Decimals: 18      - Initial/maximum total supply: configurable (set on deployment)      - Initial supply holder (initial holder) address: configurable (set on deployment)      - Mintability: configurable (initially enabled, but possible to revoke forever)      - Burnability: configurable (initially enabled, but possible to revoke forever)      - DAO Support: supports voting delegationFeatures Summary:      - Supports atomic allowance modification, resolves well-known ERC20 issue with approve (arXiv:1907.00903)      - Voting delegation and delegation on behalf via EIP-712 (like in Compound CMP token) - gives the token        powerful governance capabilities by allowing holders to form voting groups by electing delegates      - Unlimited approval feature (like in 0x ZRX token) - saves gas for transfers on behalf        by eliminating the need to update unlimited allowance value      - ERC-1363 Payable Token - ERC721-like callback execution mechanism for transfers,        transfers on behalf and approvals; allows creation of smart contracts capable of executing callbacks        in response to transfer or approval in a single transaction      - EIP-2612: permit - 712-signed approvals - improves user experience by allowing to use a token        without having an ETH to pay gas fees      - EIP-3009: Transfer With Authorization - improves user experience by allowing to use a token        without having an ETH to pay gas feesThis smart contract can be used as is, but also can be inherited and used as a template.",
    "version": 1
  },
  "storageLayout": {
    "storage": [
      {
        "astId": 703,
        "contract": "contracts/token/AdvancedERC20.sol:AdvancedERC20",
        "label": "_initialized",
        "offset": 0,
        "slot": "0",
        "type": "t_uint8"
      },
      {
        "astId": 706,
        "contract": "contracts/token/AdvancedERC20.sol:AdvancedERC20",
        "label": "_initializing",
        "offset": 1,
        "slot": "0",
        "type": "t_bool"
      },
      {
        "astId": 10,
        "contract": "contracts/token/AdvancedERC20.sol:AdvancedERC20",
        "label": "userRoles",
        "offset": 0,
        "slot": "1",
        "type": "t_mapping(t_address,t_uint256)"
      },
      {
        "astId": 15,
        "contract": "contracts/token/AdvancedERC20.sol:AdvancedERC20",
        "label": "__gap",
        "offset": 0,
        "slot": "2",
        "type": "t_array(t_uint256)49_storage"
      },
      {
        "astId": 3326,
        "contract": "contracts/token/AdvancedERC20.sol:AdvancedERC20",
        "label": "name",
        "offset": 0,
        "slot": "51",
        "type": "t_string_storage"
      },
      {
        "astId": 3329,
        "contract": "contracts/token/AdvancedERC20.sol:AdvancedERC20",
        "label": "symbol",
        "offset": 0,
        "slot": "52",
        "type": "t_string_storage"
      },
      {
        "astId": 3337,
        "contract": "contracts/token/AdvancedERC20.sol:AdvancedERC20",
        "label": "totalSupply",
        "offset": 0,
        "slot": "53",
        "type": "t_uint256"
      },
      {
        "astId": 3342,
        "contract": "contracts/token/AdvancedERC20.sol:AdvancedERC20",
        "label": "tokenBalances",
        "offset": 0,
        "slot": "54",
        "type": "t_mapping(t_address,t_uint256)"
      },
      {
        "astId": 3347,
        "contract": "contracts/token/AdvancedERC20.sol:AdvancedERC20",
        "label": "votingDelegates",
        "offset": 0,
        "slot": "55",
        "type": "t_mapping(t_address,t_address)"
      },
      {
        "astId": 3359,
        "contract": "contracts/token/AdvancedERC20.sol:AdvancedERC20",
        "label": "votingPowerHistory",
        "offset": 0,
        "slot": "56",
        "type": "t_mapping(t_address,t_array(t_struct(KV)3352_storage)dyn_storage)"
      },
      {
        "astId": 3364,
        "contract": "contracts/token/AdvancedERC20.sol:AdvancedERC20",
        "label": "totalSupplyHistory",
        "offset": 0,
        "slot": "57",
        "type": "t_array(t_struct(KV)3352_storage)dyn_storage"
      },
      {
        "astId": 3370,
        "contract": "contracts/token/AdvancedERC20.sol:AdvancedERC20",
        "label": "nonces",
        "offset": 0,
        "slot": "58",
        "type": "t_mapping(t_address,t_uint256)"
      },
      {
        "astId": 3377,
        "contract": "contracts/token/AdvancedERC20.sol:AdvancedERC20",
        "label": "usedNonces",
        "offset": 0,
        "slot": "59",
        "type": "t_mapping(t_address,t_mapping(t_bytes32,t_bool))"
      },
      {
        "astId": 3384,
        "contract": "contracts/token/AdvancedERC20.sol:AdvancedERC20",
        "label": "transferAllowances",
        "offset": 0,
        "slot": "60",
        "type": "t_mapping(t_address,t_mapping(t_address,t_uint256))"
      }
    ],
    "types": {
      "t_address": {
        "encoding": "inplace",
        "label": "address",
        "numberOfBytes": "20"
      },
      "t_array(t_struct(KV)3352_storage)dyn_storage": {
        "base": "t_struct(KV)3352_storage",
        "encoding": "dynamic_array",
        "label": "struct AdvancedERC20.KV[]",
        "numberOfBytes": "32"
      },
      "t_array(t_uint256)49_storage": {
        "base": "t_uint256",
        "encoding": "inplace",
        "label": "uint256[49]",
        "numberOfBytes": "1568"
      },
      "t_bool": {
        "encoding": "inplace",
        "label": "bool",
        "numberOfBytes": "1"
      },
      "t_bytes32": {
        "encoding": "inplace",
        "label": "bytes32",
        "numberOfBytes": "32"
      },
      "t_mapping(t_address,t_address)": {
        "encoding": "mapping",
        "key": "t_address",
        "label": "mapping(address => address)",
        "numberOfBytes": "32",
        "value": "t_address"
      },
      "t_mapping(t_address,t_array(t_struct(KV)3352_storage)dyn_storage)": {
        "encoding": "mapping",
        "key": "t_address",
        "label": "mapping(address => struct AdvancedERC20.KV[])",
        "numberOfBytes": "32",
        "value": "t_array(t_struct(KV)3352_storage)dyn_storage"
      },
      "t_mapping(t_address,t_mapping(t_address,t_uint256))": {
        "encoding": "mapping",
        "key": "t_address",
        "label": "mapping(address => mapping(address => uint256))",
        "numberOfBytes": "32",
        "value": "t_mapping(t_address,t_uint256)"
      },
      "t_mapping(t_address,t_mapping(t_bytes32,t_bool))": {
        "encoding": "mapping",
        "key": "t_address",
        "label": "mapping(address => mapping(bytes32 => bool))",
        "numberOfBytes": "32",
        "value": "t_mapping(t_bytes32,t_bool)"
      },
      "t_mapping(t_address,t_uint256)": {
        "encoding": "mapping",
        "key": "t_address",
        "label": "mapping(address => uint256)",
        "numberOfBytes": "32",
        "value": "t_uint256"
      },
      "t_mapping(t_bytes32,t_bool)": {
        "encoding": "mapping",
        "key": "t_bytes32",
        "label": "mapping(bytes32 => bool)",
        "numberOfBytes": "32",
        "value": "t_bool"
      },
      "t_string_storage": {
        "encoding": "bytes",
        "label": "string",
        "numberOfBytes": "32"
      },
      "t_struct(KV)3352_storage": {
        "encoding": "inplace",
        "label": "struct AdvancedERC20.KV",
        "members": [
          {
            "astId": 3349,
            "contract": "contracts/token/AdvancedERC20.sol:AdvancedERC20",
            "label": "k",
            "offset": 0,
            "slot": "0",
            "type": "t_uint64"
          },
          {
            "astId": 3351,
            "contract": "contracts/token/AdvancedERC20.sol:AdvancedERC20",
            "label": "v",
            "offset": 8,
            "slot": "0",
            "type": "t_uint192"
          }
        ],
        "numberOfBytes": "32"
      },
      "t_uint192": {
        "encoding": "inplace",
        "label": "uint192",
        "numberOfBytes": "24"
      },
      "t_uint256": {
        "encoding": "inplace",
        "label": "uint256",
        "numberOfBytes": "32"
      },
      "t_uint64": {
        "encoding": "inplace",
        "label": "uint64",
        "numberOfBytes": "8"
      },
      "t_uint8": {
        "encoding": "inplace",
        "label": "uint8",
        "numberOfBytes": "1"
      }
    }
  }
}