{
  "address": "0x6a0426233BC2965e99F2441Ed1b20C9E7e773B1C",
  "abi": [
    {
      "anonymous": false,
      "inputs": [
        {
          "indexed": false,
          "internalType": "address",
          "name": "previousAdmin",
          "type": "address"
        },
        {
          "indexed": false,
          "internalType": "address",
          "name": "newAdmin",
          "type": "address"
        }
      ],
      "name": "AdminChanged",
      "type": "event"
    },
    {
      "anonymous": false,
      "inputs": [
        {
          "indexed": true,
          "internalType": "address",
          "name": "beacon",
          "type": "address"
        }
      ],
      "name": "BeaconUpgraded",
      "type": "event"
    },
    {
      "anonymous": false,
      "inputs": [
        {
          "indexed": false,
          "internalType": "uint8",
          "name": "version",
          "type": "uint8"
        }
      ],
      "name": "Initialized",
      "type": "event"
    },
    {
      "anonymous": false,
      "inputs": [
        {
          "indexed": true,
          "internalType": "address",
          "name": "by",
          "type": "address"
        },
        {
          "indexed": false,
          "internalType": "address",
          "name": "proxyAddress",
          "type": "address"
        },
        {
          "indexed": true,
          "internalType": "address",
          "name": "implAddress",
          "type": "address"
        },
        {
          "indexed": false,
          "internalType": "bytes",
          "name": "data",
          "type": "bytes"
        },
        {
          "indexed": false,
          "internalType": "bytes",
          "name": "returnData",
          "type": "bytes"
        }
      ],
      "name": "ProxyDeployed",
      "type": "event"
    },
    {
      "anonymous": false,
      "inputs": [
        {
          "indexed": true,
          "internalType": "address",
          "name": "operator",
          "type": "address"
        },
        {
          "indexed": false,
          "internalType": "uint256",
          "name": "requested",
          "type": "uint256"
        },
        {
          "indexed": false,
          "internalType": "uint256",
          "name": "assigned",
          "type": "uint256"
        }
      ],
      "name": "RoleUpdated",
      "type": "event"
    },
    {
      "anonymous": false,
      "inputs": [
        {
          "indexed": true,
          "internalType": "address",
          "name": "implementation",
          "type": "address"
        }
      ],
      "name": "Upgraded",
      "type": "event"
    },
    {
      "inputs": [],
      "name": "ROLE_ACCESS_MANAGER",
      "outputs": [
        {
          "internalType": "uint256",
          "name": "",
          "type": "uint256"
        }
      ],
      "stateMutability": "view",
      "type": "function"
    },
    {
      "inputs": [],
      "name": "ROLE_UPGRADE_MANAGER",
      "outputs": [
        {
          "internalType": "uint256",
          "name": "",
          "type": "uint256"
        }
      ],
      "stateMutability": "view",
      "type": "function"
    },
    {
      "inputs": [
        {
          "internalType": "address",
          "name": "_implAddress",
          "type": "address"
        },
        {
          "internalType": "bytes",
          "name": "_data",
          "type": "bytes"
        }
      ],
      "name": "clone",
      "outputs": [
        {
          "internalType": "address",
          "name": "proxyAddress",
          "type": "address"
        },
        {
          "internalType": "bytes",
          "name": "returnData",
          "type": "bytes"
        }
      ],
      "stateMutability": "nonpayable",
      "type": "function"
    },
    {
      "inputs": [],
      "name": "features",
      "outputs": [
        {
          "internalType": "uint256",
          "name": "",
          "type": "uint256"
        }
      ],
      "stateMutability": "view",
      "type": "function"
    },
    {
      "inputs": [],
      "name": "getImplementation",
      "outputs": [
        {
          "internalType": "address",
          "name": "",
          "type": "address"
        }
      ],
      "stateMutability": "view",
      "type": "function"
    },
    {
      "inputs": [],
      "name": "getInitializedVersion",
      "outputs": [
        {
          "internalType": "uint64",
          "name": "",
          "type": "uint64"
        }
      ],
      "stateMutability": "view",
      "type": "function"
    },
    {
      "inputs": [
        {
          "internalType": "address",
          "name": "operator",
          "type": "address"
        }
      ],
      "name": "getRole",
      "outputs": [
        {
          "internalType": "uint256",
          "name": "",
          "type": "uint256"
        }
      ],
      "stateMutability": "view",
      "type": "function"
    },
    {
      "inputs": [
        {
          "internalType": "uint256",
          "name": "required",
          "type": "uint256"
        }
      ],
      "name": "isFeatureEnabled",
      "outputs": [
        {
          "internalType": "bool",
          "name": "",
          "type": "bool"
        }
      ],
      "stateMutability": "view",
      "type": "function"
    },
    {
      "inputs": [
        {
          "internalType": "address",
          "name": "operator",
          "type": "address"
        },
        {
          "internalType": "uint256",
          "name": "required",
          "type": "uint256"
        }
      ],
      "name": "isOperatorInRole",
      "outputs": [
        {
          "internalType": "bool",
          "name": "",
          "type": "bool"
        }
      ],
      "stateMutability": "view",
      "type": "function"
    },
    {
      "inputs": [
        {
          "internalType": "uint256",
          "name": "required",
          "type": "uint256"
        }
      ],
      "name": "isSenderInRole",
      "outputs": [
        {
          "internalType": "bool",
          "name": "",
          "type": "bool"
        }
      ],
      "stateMutability": "view",
      "type": "function"
    },
    {
      "inputs": [],
      "name": "postConstruct",
      "outputs": [],
      "stateMutability": "nonpayable",
      "type": "function"
    },
    {
      "inputs": [],
      "name": "proxiableUUID",
      "outputs": [
        {
          "internalType": "bytes32",
          "name": "",
          "type": "bytes32"
        }
      ],
      "stateMutability": "view",
      "type": "function"
    },
    {
      "inputs": [
        {
          "internalType": "uint256",
          "name": "_mask",
          "type": "uint256"
        }
      ],
      "name": "updateFeatures",
      "outputs": [],
      "stateMutability": "nonpayable",
      "type": "function"
    },
    {
      "inputs": [
        {
          "internalType": "address",
          "name": "operator",
          "type": "address"
        },
        {
          "internalType": "uint256",
          "name": "role",
          "type": "uint256"
        }
      ],
      "name": "updateRole",
      "outputs": [],
      "stateMutability": "nonpayable",
      "type": "function"
    },
    {
      "inputs": [
        {
          "internalType": "address",
          "name": "newImplementation",
          "type": "address"
        }
      ],
      "name": "upgradeTo",
      "outputs": [],
      "stateMutability": "nonpayable",
      "type": "function"
    },
    {
      "inputs": [
        {
          "internalType": "address",
          "name": "newImplementation",
          "type": "address"
        },
        {
          "internalType": "bytes",
          "name": "data",
          "type": "bytes"
        }
      ],
      "name": "upgradeToAndCall",
      "outputs": [],
      "stateMutability": "payable",
      "type": "function"
    }
  ],
  "transactionHash": "0x9ea0325069cabd9e2980e70cec8312a0e16add6e2ab30609d09ad7a7ac24165e",
  "args": [],
  "numDeployments": 1,
  "solcInputHash": "ee9e46210755b26530eb8e2b1055af34",
  "bytecode": "0x60a06040523060601b60805234801561001757600080fd5b50600054610100900460ff16158080156100385750600054600160ff909116105b8061006357506100513061013960201b6108a21760201c565b158015610063575060005460ff166001145b6100ca5760405162461bcd60e51b815260206004820152602e60248201527f496e697469616c697a61626c653a20636f6e747261637420697320616c72656160448201526d191e481a5b9a5d1a585b1a5e995960921b606482015260840160405180910390fd5b6000805460ff1916600117905580156100ed576000805461ff0019166101001790555b8015610133576000805461ff0019169055604051600181527f7f26b83ff96e1f2b6a682f133852f6798a09c465da95921460cefb38474024989060200160405180910390a15b50610148565b6001600160a01b03163b151590565b60805160601c61125661018260003960008181610454015281816104940152818161051d0152818161055d01526105d901526112566000f3fe6080604052600436106100f35760003560e01c8063ae5b102e1161008a578063b3c6501511610059578063b3c650151461029d578063c688d693146102bf578063d5bb7f67146102df578063fcc2c078146102ff57600080fd5b8063ae5b102e14610238578063ae60bda414610258578063ae682e2e14610270578063af504c961461028857600080fd5b80634f1ef286116100c65780634f1ef286146101b357806352d1902d146101c6578063725f3626146101db578063aaf10f421461020b57600080fd5b80630fbe133c146100f85780632b5214161461012f5780633659cfe61461015b578063442767331461017d575b600080fd5b34801561010457600080fd5b50610118610113366004610e84565b61031f565b6040516101269291906110c8565b60405180910390f35b34801561013b57600080fd5b50306000908152600160205260409020545b604051908152602001610126565b34801561016757600080fd5b5061017b610176366004610e6a565b610449565b005b34801561018957600080fd5b5061014d610198366004610e6a565b6001600160a01b031660009081526001602052604090205490565b61017b6101c1366004610f02565b610512565b3480156101d257600080fd5b5061014d6105cc565b3480156101e757600080fd5b506101fb6101f6366004611000565b61067f565b6040519015158152602001610126565b34801561021757600080fd5b506102206106a1565b6040516001600160a01b039091168152602001610126565b34801561024457600080fd5b5061017b610253366004610fbf565b6106ab565b34801561026457600080fd5b5061014d600160fe1b81565b34801561027c57600080fd5b5061014d600160ff1b81565b34801561029457600080fd5b5061017b610750565b3480156102a957600080fd5b5060005460405160ff9091168152602001610126565b3480156102cb57600080fd5b506101fb6102da366004610fbf565b610863565b3480156102eb57600080fd5b5061017b6102fa366004611000565b61088c565b34801561030b57600080fd5b506101fb61031a366004611000565b610896565b6000606061032c856108b1565b915082156103eb576000826001600160a01b03168585604051610350929190611044565b6000604051808303816000865af19150503d806000811461038d576040519150601f19603f3d011682016040523d82523d6000602084013e610392565b606091505b5092509050806103e95760405162461bcd60e51b815260206004820152601b60248201527f70726f787920696e697469616c697a6174696f6e206661696c6564000000000060448201526064015b60405180910390fd5b505b846001600160a01b0316336001600160a01b03167f712c33c376f9104bcb4369b5ef428db727ad5fdb8cbe636eae1fe34df88887d7848787866040516104349493929190611070565b60405180910390a3935093915050565b905090565b306001600160a01b037f00000000000000000000000000000000000000000000000000000000000000001614156104925760405162461bcd60e51b81526004016103e0906110ff565b7f00000000000000000000000000000000000000000000000000000000000000006001600160a01b03166104c461094b565b6001600160a01b0316146104ea5760405162461bcd60e51b81526004016103e09061114b565b6104f381610967565b6040805160008082526020820190925261050f918391906109b0565b50565b306001600160a01b037f000000000000000000000000000000000000000000000000000000000000000016141561055b5760405162461bcd60e51b81526004016103e0906110ff565b7f00000000000000000000000000000000000000000000000000000000000000006001600160a01b031661058d61094b565b6001600160a01b0316146105b35760405162461bcd60e51b81526004016103e09061114b565b6105bc82610967565b6105c8828260016109b0565b5050565b6000306001600160a01b037f0000000000000000000000000000000000000000000000000000000000000000161461066c5760405162461bcd60e51b815260206004820152603860248201527f555550535570677261646561626c653a206d757374206e6f742062652063616c60448201527f6c6564207468726f7567682064656c656761746563616c6c000000000000000060648201526084016103e0565b506000805160206111da83398151915290565b3060009081526001602052604081205461069b905b8316831490565b92915050565b600061044461094b565b6106b8600160ff1b610896565b6106f45760405162461bcd60e51b815260206004820152600d60248201526c1858d8d95cdcc819195b9a5959609a1b60448201526064016103e0565b6105c8828261074b3361071c876001600160a01b031660009081526001602052604090205490565b6001600160a01b0391909116600090815260016020526040902054600019808818821618908716919091171690565b610b2f565b600054610100900460ff16158080156107705750600054600160ff909116105b8061078a5750303b15801561078a575060005460ff166001145b6107ed5760405162461bcd60e51b815260206004820152602e60248201527f496e697469616c697a61626c653a20636f6e747261637420697320616c72656160448201526d191e481a5b9a5d1a585b1a5e995960921b60648201526084016103e0565b6000805460ff191660011790558015610810576000805461ff0019166101001790555b61081b336000610b89565b801561050f576000805461ff0019169055604051600181527f7f26b83ff96e1f2b6a682f133852f6798a09c465da95921460cefb38474024989060200160405180910390a150565b6001600160a01b03821660009081526001602052604081205461088590610694565b9392505050565b61050f30826106ab565b600061069b3383610863565b6001600160a01b03163b151590565b6000763d602d80600a3d3981f3363d3d373d3d3d363d730000008260601b60e81c176000526e5af43d82803e903d91602b57fd5bf38260781b17602052603760096000f090506001600160a01b0381166109465760405162461bcd60e51b8152602060048201526016602482015275115490cc4c4d8dce8818dc99585d194819985a5b195960521b60448201526064016103e0565b919050565b6000805160206111da833981519152546001600160a01b031690565b610974600160fe1b610896565b61050f5760405162461bcd60e51b815260206004820152600d60248201526c1858d8d95cdcc819195b9a5959609a1b60448201526064016103e0565b7f4910fdfa16fed3260ed0e7147f7cc6da11a60208b5b9406d12a635614ffd91435460ff16156109e8576109e383610c0c565b505050565b826001600160a01b03166352d1902d6040518163ffffffff1660e01b815260040160206040518083038186803b158015610a2157600080fd5b505afa925050508015610a51575060408051601f3d908101601f19168201909252610a4e91810190610fe8565b60015b610ab45760405162461bcd60e51b815260206004820152602e60248201527f45524331393637557067726164653a206e657720696d706c656d656e7461746960448201526d6f6e206973206e6f74205555505360901b60648201526084016103e0565b6000805160206111da8339815191528114610b235760405162461bcd60e51b815260206004820152602960248201527f45524331393637557067726164653a20756e737570706f727465642070726f786044820152681a58589b195555525160ba1b60648201526084016103e0565b506109e3838383610ca8565b6001600160a01b03831660008181526001602090815260409182902084905581518581529081018490527fe9be537308880e0f56b7d7cfd7abf85f14c4934486d138f848b92a0cbaf659b4910160405180910390a2505050565b600054610100900460ff16610bf45760405162461bcd60e51b815260206004820152602b60248201527f496e697469616c697a61626c653a20636f6e7472616374206973206e6f74206960448201526a6e697469616c697a696e6760a81b60648201526084016103e0565b610c018260001980610b2f565b6105c8308283610b2f565b6001600160a01b0381163b610c795760405162461bcd60e51b815260206004820152602d60248201527f455243313936373a206e657720696d706c656d656e746174696f6e206973206e60448201526c1bdd08184818dbdb9d1c9858dd609a1b60648201526084016103e0565b6000805160206111da83398151915280546001600160a01b0319166001600160a01b0392909216919091179055565b610cb183610cd3565b600082511180610cbe5750805b156109e357610ccd8383610d13565b50505050565b610cdc81610c0c565b6040516001600160a01b038216907fbc7cd75a20ee27fd9adebab32041f755214dbc6bffa90cc0225b39da2e5c2d3b90600090a250565b606061088583836040518060600160405280602781526020016111fa602791396060600080856001600160a01b031685604051610d509190611054565b600060405180830381855af49150503d8060008114610d8b576040519150601f19603f3d011682016040523d82523d6000602084013e610d90565b606091505b5091509150610da186838387610dab565b9695505050505050565b60608315610e17578251610e10576001600160a01b0385163b610e105760405162461bcd60e51b815260206004820152601d60248201527f416464726573733a2063616c6c20746f206e6f6e2d636f6e747261637400000060448201526064016103e0565b5081610e21565b610e218383610e29565b949350505050565b815115610e395781518083602001fd5b8060405162461bcd60e51b81526004016103e091906110ec565b80356001600160a01b038116811461094657600080fd5b600060208284031215610e7b578081fd5b61088582610e53565b600080600060408486031215610e98578182fd5b610ea184610e53565b9250602084013567ffffffffffffffff80821115610ebd578384fd5b818601915086601f830112610ed0578384fd5b813581811115610ede578485fd5b876020828501011115610eef578485fd5b6020830194508093505050509250925092565b60008060408385031215610f14578182fd5b610f1d83610e53565b9150602083013567ffffffffffffffff80821115610f39578283fd5b818501915085601f830112610f4c578283fd5b813581811115610f5e57610f5e6111c3565b604051601f8201601f19908116603f01168101908382118183101715610f8657610f866111c3565b81604052828152886020848701011115610f9e578586fd5b82602086016020830137856020848301015280955050505050509250929050565b60008060408385031215610fd1578182fd5b610fda83610e53565b946020939093013593505050565b600060208284031215610ff9578081fd5b5051919050565b600060208284031215611011578081fd5b5035919050565b60008151808452611030816020860160208601611197565b601f01601f19169290920160200192915050565b8183823760009101908152919050565b60008251611066818460208701611197565b9190910192915050565b6001600160a01b038516815260606020820181905281018390528284608083013760008060808584010152601f19601f850116820160808382030160408401526110bd6080820185611018565b979650505050505050565b6001600160a01b0383168152604060208201819052600090610e2190830184611018565b6020815260006108856020830184611018565b6020808252602c908201527f46756e6374696f6e206d7573742062652063616c6c6564207468726f7567682060408201526b19195b1959d85d1958d85b1b60a21b606082015260800190565b6020808252602c908201527f46756e6374696f6e206d7573742062652063616c6c6564207468726f7567682060408201526b6163746976652070726f787960a01b606082015260800190565b60005b838110156111b257818101518382015260200161119a565b83811115610ccd5750506000910152565b634e487b7160e01b600052604160045260246000fdfe360894a13ba1a3210667c828492db98dca3e2076cc3735a920a3ca505d382bbc416464726573733a206c6f772d6c6576656c2064656c65676174652063616c6c206661696c6564a2646970667358221220f5db2b5f1402500e14156b2fff9fe32d1a485226f4332aca0da529de5c161c1364736f6c63430008040033",
  "devdoc": {
    "author": "Basil Gorin",
    "details": "The deployment is done via EIP-1167 Minimal Proxy Contract      See https://eips.ethereum.org/EIPS/eip-1167",
    "events": {
      "ProxyDeployed(address,address,address,bytes,bytes)": {
        "details": "Fired in clone()",
        "params": {
          "by": "an address who made the deployment (clone), msg.sender",
          "data": "optional data bytes passed to the proxy for initialization;      can be empty, in which case this means proxy wasn't initialized",
          "implAddress": "impl address used for cloning",
          "proxyAddress": "deployed EIP-1167 clone (proxy) address,      this is the main `clone()` function output",
          "returnData": "when data field is used, contains the response from low-level      proxy initialization call; can be empty"
        }
      }
    },
    "kind": "dev",
    "methods": {
      "clone(address,bytes)": {
        "details": "Technically this deploys a tiny EIP 1167 proxy pointing to the impl address specified      and optionally initializes it immediately, making the deployment safe and ready for useThrows on proxy initialization failure",
        "params": {
          "_data": "optional bytes data to execute the low-level call on cloned instance for initialization",
          "_implAddress": "contract implementation address to clone"
        }
      },
      "features()": {
        "details": "Effectively reads userRoles role for the contract itself",
        "returns": {
          "_0": "256-bit bitmask of the features enabled"
        }
      },
      "getImplementation()": {
        "returns": {
          "_0": "the current implementation address"
        }
      },
      "getInitializedVersion()": {
        "details": "Highest version that has been initialized.      Non-zero value means contract was already initialized.see {Initializable}, {reinitializer}.",
        "returns": {
          "_0": "highest version that has been initialized"
        }
      },
      "getRole(address)": {
        "details": "Having a simple getter instead of making the mapping public      allows enforcing the encapsulation of the mapping and protects from      writing to it directly in the inheriting smart contracts",
        "params": {
          "operator": "address of a user to read permissions for,      or self address to read global features of the smart contract"
        }
      },
      "isFeatureEnabled(uint256)": {
        "params": {
          "required": "set of features to check against"
        },
        "returns": {
          "_0": "true if all the features requested are enabled, false otherwise"
        }
      },
      "isOperatorInRole(address,uint256)": {
        "params": {
          "operator": "address of the user to check role for",
          "required": "set of permissions (role) to check"
        },
        "returns": {
          "_0": "true if all the permissions requested are enabled, false otherwise"
        }
      },
      "isSenderInRole(uint256)": {
        "params": {
          "required": "set of permissions (role) to check against"
        },
        "returns": {
          "_0": "true if all the permissions requested are enabled, false otherwise"
        }
      },
      "postConstruct()": {
        "details": "\"Constructor replacement\" for a smart contract with a delayed initialization (post-deployment initialization)"
      },
      "proxiableUUID()": {
        "details": "Implementation of the ERC1822 {proxiableUUID} function. This returns the storage slot used by the implementation. It is used to validate the implementation's compatibility when performing an upgrade. IMPORTANT: A proxy pointing at a proxiable contract should not be considered proxiable itself, because this risks bricking a proxy that upgrades to it, by delegating to itself until out of gas. Thus it is critical that this function revert if invoked through a proxy. This is guaranteed by the `notDelegated` modifier."
      },
      "updateFeatures(uint256)": {
        "details": "Requires transaction sender to have `ROLE_ACCESS_MANAGER` permissionFunction is left for backward compatibility with older versions",
        "params": {
          "_mask": "bitmask representing a set of features to enable/disable"
        }
      },
      "updateRole(address,uint256)": {
        "details": "Setting role to zero is equivalent to removing an all permissionsSetting role to `FULL_PRIVILEGES_MASK` is equivalent to      copying senders' permissions (role) to the userRequires transaction sender to have `ROLE_ACCESS_MANAGER` permission",
        "params": {
          "operator": "address of a user to alter permissions for,       or self address to alter global features of the smart contract",
          "role": "bitmask representing a set of permissions to      enable/disable for a user specified"
        }
      },
      "upgradeTo(address)": {
        "custom:oz-upgrades-unsafe-allow-reachable": "delegatecall",
        "details": "Upgrade the implementation of the proxy to `newImplementation`. Calls {_authorizeUpgrade}. Emits an {Upgraded} event."
      },
      "upgradeToAndCall(address,bytes)": {
        "custom:oz-upgrades-unsafe-allow-reachable": "delegatecall",
        "details": "Upgrade the implementation of the proxy to `newImplementation`, and subsequently execute the function call encoded in `data`. Calls {_authorizeUpgrade}. Emits an {Upgraded} event."
      }
    },
    "title": "Generic Factory, a.k.a Generic Smart Contract Deployer",
    "version": 1
  },
  "userdoc": {
    "kind": "user",
    "methods": {
      "ROLE_ACCESS_MANAGER()": {
        "notice": "Access manager is responsible for assigning the roles to users,      enabling/disabling global features of the smart contractAccess manager can add, remove and update user roles,      remove and update global features"
      },
      "ROLE_UPGRADE_MANAGER()": {
        "notice": "Upgrade manager is responsible for smart contract upgrades,      see https://docs.openzeppelin.com/contracts/4.x/api/proxy#UUPSUpgradeable      see https://docs.openzeppelin.com/contracts/4.x/upgradeable"
      },
      "clone(address,bytes)": {
        "notice": "Clones the specified contract and optionally initializes it immediately"
      },
      "features()": {
        "notice": "Retrieves globally set of features enabled"
      },
      "getImplementation()": {
        "notice": "Returns an address of the implementation smart contract,      see ERC1967Upgrade._getImplementation()"
      },
      "getRole(address)": {
        "notice": "Reads the permissions (role) for a given user from the `userRoles` mapping      (privileged addresses with defined roles/permissions)In the context of ERC20/ERC721 tokens these can be permissions to      allow minting or burning tokens, transferring on behalf and so on"
      },
      "isFeatureEnabled(uint256)": {
        "notice": "Checks if requested set of features is enabled globally on the contract"
      },
      "isOperatorInRole(address,uint256)": {
        "notice": "Checks if operator has all the permissions (role) required"
      },
      "isSenderInRole(uint256)": {
        "notice": "Checks if transaction sender `msg.sender` has all the permissions required"
      },
      "updateFeatures(uint256)": {
        "notice": "Updates set of the globally enabled features (`features`),      taking into account sender's permissions"
      },
      "updateRole(address,uint256)": {
        "notice": "Updates set of permissions (role) for a given user,      taking into account sender's permissions."
      }
    },
    "notice": "A helper stand-alone contract allowing to \"clone\" anything",
    "version": 1
  },
  "storageLayout": {
    "storage": [
      {
        "astId": 703,
        "contract": "contracts/protocol/GenericFactoryV1.sol:GenericFactoryV1",
        "label": "_initialized",
        "offset": 0,
        "slot": "0",
        "type": "t_uint8"
      },
      {
        "astId": 706,
        "contract": "contracts/protocol/GenericFactoryV1.sol:GenericFactoryV1",
        "label": "_initializing",
        "offset": 1,
        "slot": "0",
        "type": "t_bool"
      },
      {
        "astId": 10,
        "contract": "contracts/protocol/GenericFactoryV1.sol:GenericFactoryV1",
        "label": "userRoles",
        "offset": 0,
        "slot": "1",
        "type": "t_mapping(t_address,t_uint256)"
      },
      {
        "astId": 15,
        "contract": "contracts/protocol/GenericFactoryV1.sol:GenericFactoryV1",
        "label": "__gap",
        "offset": 0,
        "slot": "2",
        "type": "t_array(t_uint256)49_storage"
      },
      {
        "astId": 685,
        "contract": "contracts/protocol/GenericFactoryV1.sol:GenericFactoryV1",
        "label": "__gap",
        "offset": 0,
        "slot": "51",
        "type": "t_array(t_uint256)50_storage"
      },
      {
        "astId": 1000,
        "contract": "contracts/protocol/GenericFactoryV1.sol:GenericFactoryV1",
        "label": "__gap",
        "offset": 0,
        "slot": "101",
        "type": "t_array(t_uint256)50_storage"
      }
    ],
    "types": {
      "t_address": {
        "encoding": "inplace",
        "label": "address",
        "numberOfBytes": "20"
      },
      "t_array(t_uint256)49_storage": {
        "base": "t_uint256",
        "encoding": "inplace",
        "label": "uint256[49]",
        "numberOfBytes": "1568"
      },
      "t_array(t_uint256)50_storage": {
        "base": "t_uint256",
        "encoding": "inplace",
        "label": "uint256[50]",
        "numberOfBytes": "1600"
      },
      "t_bool": {
        "encoding": "inplace",
        "label": "bool",
        "numberOfBytes": "1"
      },
      "t_mapping(t_address,t_uint256)": {
        "encoding": "mapping",
        "key": "t_address",
        "label": "mapping(address => uint256)",
        "numberOfBytes": "32",
        "value": "t_uint256"
      },
      "t_uint256": {
        "encoding": "inplace",
        "label": "uint256",
        "numberOfBytes": "32"
      },
      "t_uint8": {
        "encoding": "inplace",
        "label": "uint8",
        "numberOfBytes": "1"
      }
    }
  }
}